:0E0000000C941B040C9400000C9400000C9453
:10000E0000000C9400000C9400000C9400000C9462
:10001E0000000C9400000C9400000C9400000C9452
:10002E0000000C9400000C9400000C9418070C9423
:10003E0000000C940A070C9400000C94B9070C9461
:10004E0000000C9400000C9400000C9400000C9422
:10005E0000000C9400000C9400000C9400000C9412
:10006E0000000C9400000C9437070C94DF070C94DE
:10007E0000000C9400000C9400000C940000000092
:10008E0000000000000000000000000000FFFFFF65
:10009E00FF0000000D0A2B2B2B2B2B2B2B2B2B2B8E
:1000AE0020536D61727420537769746368202B2B13
:1000BE002B2B2B2B2B2B2B2B0D0A000D0A4669728B
:1000CE006D776172652056657273696F6E203A2086
:1000DE0025302E31660D0A0043757272656E7420DE
:1000EE0053656E736F722020203A2041435337318F
:1000FE0032454C4354522D3035422D542028253054
:10010E002E3166206D562F416D702E290D0A000D71
:10011E000A2B2B2B2B2B2B2B2B2B2B20536D617266
:10012E007420506C7567202B2B2B2B2B2B2B2B2BF2
:10013E002B0D0A0043757272656E742053656E73D3
:10014E006F722020203A20414353373132454C43C1
:10015E0054522D3230412D54202825302E31662018
:10016E006D562F416D702E290D0A000D0A2B2B2B6B
:10017E002B2B2B2B2B2B2B20536D61727420427249
:10018E0065616B6572202B2B2B2B2B2B2B2B2B2B8B
:10019E000D0A0043757272656E742053656E736F2F
:1001AE00722020203A20414353373132454C43547C
:1001BE00522D3330412D54202825302E3166206D9E
:1001CE00562F416D702E290D0A0052656164204430
:1001DE0069702D537769746368204552524F5221CE
:1001EE000D0A000D0A2B2B2B2B2B2B2B2B2B2B2005
:1001FE0044656661756C742054797065203A20539D
:10020E006D61727420537769746368202B2B2B2BCE
:10021E002B2B2B2B2B2B0D0A0043757272656E74D4
:10022E00204D65617375726520203A203E20253081
:10023E002E326620416D702E0D0A000D0A2D2D2DC9
:10024E002D2D2D2D2D20496E697469616C20436F03
:10025E006D706C657465202D2D2D2D2D2D2D2D0D74
:10026E000A000D0A2D2D2D2D2D2D2D2D20537461AF
:10027E0072742050726F6772616D202D2D2D2D2D91
:10028E002D2D2D0D0A000D0A2D2D2D2D2D2D2D2D43
:10029E002049646C65202D2D2D2D2D2D2D2D0D0A13
:1002AE00000D0A2D2D2D2D2D2D2D2D20504F502092
:1002BE004556454E54202D2D2D2D2D2D2D2D0D0A0F
:1002CE00000D0A2D2D2D2D2D2D2D2D204163746900
:1002DE007665202D2D2D2D2D2D2D2D0D0A00253041
:1002EE003564202020002530325820002563002E52
:1002FE00000D0A005741524E494E47203A205541B3
:10030E0052543020425546464552204F564552468D
:10031E004C4F572025640D0A00007E000408014151
:10032E00496C7E00040801534C577E0004080153AB
:10033E00485B0D0A202B2B2B2B2B2B2B2B2B2B2007
:10034E0053656E64204149202B2B2B2B2B2B2B2BF3
:10035E000D0A000D0A202B2B2B2B2B2B2B2B2B2B93
:10036E002053656E64205348202B2B2B2B2B2B2BCD
:10037E002B0D0A000D0A202B2B2B2B2B2B2B2B2B73
:10038E002B2053656E6420534C202B2B2B2B2B2BA9
:10039E002B2B0D0A000D0A202B2B2B2B2B2B2B2B53
:1003AE002B2B2052656372656976652044617461FA
:1003BE00202B2B2B2B2B2B2B2B0D0A007E002310EF
:1003CE00010000000000000000FFFE0000300000F1
:1003DE0000000000000000000000000000007E0091
:1003EE0001A17E002310010000000000000000FFAC
:1003FE00FE000030000000000000000000000000C1
:10040E00000000007E0001A47E0025100100000007
:10041E000000000000FFFE000030000000000000A1
:10042E00000000000000000000007E0001A5010099
:10043E007E004810010000000000000000FFFE00DA
:10044E00003000000000000000000000000000006E
:10045E0000007E0026A70101000000000000000041
:10046E000200000000000000000300000000000079
:10047E00000004000D0A202B2B2B2B2B2B2B2B2BB0
:10048E002B2053656E64204C4544202B2B2B2B2B9D
:10049E002B2B2B0D0A000D0A202B2B2B2B2B2B2B52
:1004AE002B2B2B2053656E64204A6F696E202B2BED
:1004BE002B2B2B2B2B2B0D0A000D0A202B2B2B2B32
:1004CE002B2B2B2B2B2B2053656E642050696E67C4
:1004DE00202B2B2B2B2B2B2B2B0D0A000D0A202B1D
:1004EE002B2B2B2B2B2B2B2B2B2053656E6420456C
:1004FE0056454E5420524543495645202B2B2B2B07
:10050E002B2B2B2B0D0A000D0A202B2B2B2B2B2BE1
:10051E002B2B2B2B2053656E64205245504F52547B
:10052E00202B2B2B2B2B2B2B2B0D0A000D0A3D3D9D
:10053E003D3D3D3D3D3D3D3D3D3D3D3D3D3D3D3DDD
:10054E003D3D3D3D3D3D3D3D3D3D3D3D3D3D3D3DCD
:10055E003D3D3D3D3D3D3D3D3D3D3D3D3D3D3D3DBD
:10056E003D3D3D3D0D0A005673756D203D202530F5
:10057E002E34662020004973756D203D2025302EC7
:10058E0034662020005073756D203D2025302E34AA
:10059E00660D0A0056617667203D2025302E3466A2
:1005AE002020200049617667203D2025302E3466BC
:1005BE002020200050617667203D2025302E3466A5
:1005CE000D0A00576174742D486F75722053756D46
:1005DE00203D2025302E34660D0A004E756D626565
:1005EE00722053616D706C696E67203D2025640D1D
:1005FE000A003D3D3D3D3D3D3D3D3D3D3D3D3D3D8D
:10060E003D3D3D3D3D3D3D3D3D3D3D3D3D3D3D3D0C
:10061E003D3D3D3D3D3D3D3D3D3D3D3D3D3D3D3DFC
:10062E003D3D3D3D3D3D3D3D0D0A0D0A004375727C
:10063E0072656E7420457863656564202D2D535761
:10064E0049544348204F4646210D0A0040000500FC
:10065E0000401C45414443203D2025640D0A0056B0
:10066E006F6C74203D2025660D0A00004556454EE0
:10067E0054203D2025640D0A00636F756E745F650E
:10068E0076656E74203D2025640D0A000D0A2D2D11
:10069E002D2D2D2D2D2D204A4F494E54205355438F
:1006AE0043455353202D2D2D2D2D2D2D2D0D0A006F
:1006BE000D0A2D2D2D2D2D2D2D2D20524543495614
:1006CE00452050494E47202D2D2D2D2D2D2D2D0DF4
:1006DE000A000D0A202B2B2B2B2B2B2B2B2B2B20FD
:1006EE005F6576656E74203D3D20353130207C7C13
:1006FE00205F6576656E74203D3D20353131202BAF
:10070E002B2B2B2B2B2B2B0D0A000D0A2D2D2D2DCC
:10071E002D2D2D2D20524543495645204556454EEB
:10072E0054202D2D2D2D2D2D2D2D0D0A000D0A2091
:10073E002B2B2B2B2B2B2B2B2B2B205F6576656ED0
:10074E0074203D3D2035313030207C7C205F657635
:10075E00656E74203D3D2035313130202B2B2B2BF7
:10076E002B2B2B2B0D0A000D0A2D2D2D2D2D2D2D66
:10077E002D2053454E44204556454E542053554347
:10078E0043455353202D2D2D2D2D2D2D2D0D0A008E
:10079E000D0A2D2D2D2D2D2D2D2D2053454E442062
:1007AE005245504F52542053554343455353202DD9
:1007BE002D2D2D2D2D2D2D0D0A0001002D4E414ECE
:1007CE0000494E4600002D4E414E00000100020031
:1007DE008C000400000D8E000D00DF089200020058
:1007EE000800A0000800EC0828030800F4083003F5
:1007FE000800FC08380326000409CA0326002B094A
:10080E00F00327005209160443007B093E04010041
:10081E00E7095A0601009E085C06040040085E06C1
:10082E000100E809C8070000F894EE27ECBBF1E0E0
:10083E00F5BFE5BFE0936C00F8E1F1BDE1BD8DE0E1
:10084E00A2E0BB27ED938A95E9F780E090E1A0E066
:10085E00B1E0ED930197E9F7EAEDF7E08591959117
:10086E00009761F0A591B59105901590BF01F0012B
:10087E0005900D920197E1F7FB01F0CF8BBFEFEFE3
:10088E00EDBFECE0EEBFC0E0D6E00C9465040E9434
:10089E005E1629F40E946416AF9AE0E00BC0A881A0
:1008AE00B981119749F4E0916500E460E093650029
:1008BE00AF98E1E0E093920822960895662477249B
:1008CE000E946A16A0919208AF3F39F40E947216E8
:1008DE00A0E00E94C80D0E946A160E944A0A5E2E6F
:1008EE005520D9F70E94810A4E2EEFE0E41531F51E
:1008FE000E9478160E9489164CF4DF01CB01EFE8B6
:10090E00F2EC65EF7DE30E94F91B08F005C0A0E054
:10091E00B0E00E94321D04C0ECEEF1E568EB7DE321
:10092E00E0933208F09333086093340870933508DF
:10093E00E2E1E093E708E2EAF0E081C0EEE0E415E0
:10094E0091F5E0E0F0E068EC72E40E948E16A4E00F
:10095E00B0E00E94321D0E9489164CF4DF01CB01DB
:10096E00E9E2FCE56FE07EE30E94F91B08F005C0AA
:10097E00A4E0B0E00E94321D04C0EEEAF7E461EE9E
:10098E007DE3E0933208F09333086093340870935C
:10099E003508E1E1E093E708EDE1F1E00E949716FA
:1009AE00E2E4F1E05BC0EDE0E41591F5E0E0F0E0AB
:1009BE0064E872E40E948E16A8E0B0E00E94321D38
:1009CE000E9489164CF4DF01CB01EAE9F9E969E1ED
:1009DE007EE30E94F91B08F005C0A8E0B0E00E947B
:1009EE00321D04C0EFE8F2EC65EF7DE3E0933208D0
:1009FE00F09333086093340870933508E3E1E09385
:100A0E00E708E9E7F1E00E949716E1EAF1E026C077
:100A1E00E0E04E162CF4E8EDF1E00E94AC1624C096
:100A2E000E947816E0933208F093330860933408EE
:100A3E0070933508E2E1E093E708E1EFF1E0FA9315
:100A4E00EA9380E004D12296E9ECF0E0FA93EA937F
:100A5E000E94B3160E94B816E6EEF0E0FA93EA93FF
:100A6E000E94BF160E94B816E0E04E160CF43ACF64
:100A7E00E7E2F2E0FA93EA930E94C8160E94B816D3
:100A8E007894E9E4F2E00E94AC16A8E8B3E10E9483
:100A9E00491AE0E7F2E00E94AC160E94060AE091C5
:100AAE002A06F0912B063097C1F40E94D1160E94AF
:100ABE00D416A0919208A13079F40E94DA160E9401
:100ACE00DE160E94E1160E94E416E1E0F0E03F011E
:100ADE00AFEFB1E00E94670FB8C0E130A0E0FA07B7
:100AEE0029F40E94DE160E94D416AFC0E230A0E0B8
:100AFE00FA0729F40E94E8160E94D416A6C0E33025
:100B0E00A0E0FA0741F5A0EDB7E00E94491A0E9455
:100B1E00770B0E94DA1698991DC00E94DA16E091A2
:100B2E009208E03049F40E94DE160E94E1160E94FF
:100B3E00E416A6EFB3E10CC0A0919208A13051F4D7
:100B4E000E94D1160E94E1160E94E416ACEEB3E1AB
:100B5E000E94670F7AC0E430A0E0FA0711F00C94FF
:100B6E00FF05E4E9F2E00E94AC160E94EB1631F4A8
:100B7E000E947A0FEFEAF2E00E94AC16E1E0F0E09C
:100B8E00E615F70599F4A0919208A13019F4E5E065
:100B9E00F0E006C0E0919208E03031F4E4E0F0E0DD
:100BAE00E0932A06F0932B066624772498991FC0AB
:100BBE000E94F516E0919208E03059F40E94DE167C
:100BCE000E94E1160E94E4160E94F916A6EFB3E108
:100BDE000CC0A0919208A13051F40E94D1160E942F
:100BEE00E1160E94E4160E9400170E94670F2DC0A6
:100BFE00E530A0E0FA0749F5EFECF2E00E94AC1602
:100C0E000E94E10D0E94570E0E94EB1631F4EFEA9E
:100C1E00F2E00E94AC160E947A0FA0913008B091BB
:100C2E003108A83EE3E0BE0711F40E94620C9899C9
:100C3E000CC00E94F5160E94D1160E94E1160E9469
:100C4E00E4160E9400170E94670F27CFFFCFFF9276
:100C5E00F82ED1501A930A93DE01A250BF4F0E9474
:100C6E00501C8D010E940917DE01AC5FBE4F0E9421
:100C7E00501C0E94F31CFA93EA93D8010E944A1466
:100C8E00E0E0EA93DE0113960E942908198108819B
:100C9E002296DF5FFF9008950E940E17EA83E0E030
:100CAE00EB830E94591D0A851B8520E130E0EC85FF
:100CBE00FD85EE83FF83AA85BB850E944A1D84F5C0
:100CCE002A173B074CF00E941317EC85FD85FA930B
:100CDE00EA930E94181724C0F801D9010E94C71C7C
:100CEE00AF010E9413175A934A930E941817041BC0
:100CFE00150BFA01AE81BF81EA0FFB1FEE83FF8356
:100D0E00F9010E941C17E887F987201731073CF07C
:100D1E000E9413171A930A930E94181701C0DCCF72
:100D2E000E94601D2E960895BA93AA930E94591D93
:100D3E00ECEEF2E0FA93EA93E885F9850E9421172A
:100D4E004A855B8500E010E0E885F9850E171F07E0
:100D5E0094F4E4EFF2E00E9424174F5F5F4FE7E058
:100D6E00F0E0E017F10721F4E2EFF2E00E94AC169A
:100D7E000F5F1F4FE9CFA885B985189724F4E2EFCE
:100D8E00F2E00E94AC16A885B98550979CF4A88510
:100D9E00B985E0E1F0E0EA1BFB0B9F0100E010E0FB
:100DAE00021713073CF4E0EFF2E00E94AC160F5F5F
:100DBE001F4FF6CFE0EFF2E00E94AC164A855B853E
:100DCE0000E010E0E885F9850E171F07A4F4DA019C
:100DDE00AC910E945516E03029F0EAEFF2E00E9445
:100DEE00241704C0EDEFF2E00E94AC164F5F5F4F88
:100DFE000F5F1F4FE7CFEFEFF2E00E94AC160E949D
:100E0E00601D2C960895AA93EA93EFB7EA93E7ED47
:100E1E00E2BFA0910006A13019F4E1E0E0939C0836
:100E2E003EC06A937A93AA93BA93EA93FA93EFB772
:100E3E00EA93E7E5EDBDE0E4ECBDA5E9B8E00E947C
:100E4E00FD1CEF5FFF4F6F4F7F4F0E94071DE99113
:100E5E00EFBFF991E991B991A9917991699118959D
:100E6E00AA93EA93EFB7EA930E942C17E0919A089F
:100E7E00E03029F0E0919908EF5FE0939908A09196
:100E8E000006A13019F4E1E0E0939B08E0919D0883
:100E9E00E03029F09F9B02C0AF9801C0AF9AE99154
:100EAE00EFBFE991A9911895E0E0E0BFE6E0E3BF5E
:100EBE00E7EDE2BFE0E0E1BFEFBDE4E0EEBDE7E568
:100ECE00EDBDE0E4ECBDE0E0E7BDE6BDEBBDEABDA7
:100EDE00E9BDE8BDE0937900E0937800E5BDE4BD9F
:100EEE00E3BDE0938B00E4E0E0938A000E942C17B0
:100EFE00E0E0E0938100E0938000E0938700E093D0
:100F0E008600E0938500E0938400E0938300E093F5
:100F1E008200EFE1E1BDEFE0E1BDE0E0E7BFE7BF5A
:100F2E00E0937D0008950E945E1621F4E7B7E1601C
:100F3E00E7BF15C0E130A0E0FA0721F4E7B7E4609F
:100F4E00E7BF0DC0E230A0E0FA0749F0E330A0E0C1
:100F5E00FA0729F4E0917D00E460E0937D00789437
:100F6E000C94750B0E9433171BB10CB1E12FEC7171
:100F7E00C1F4A02F17D0043209F4DD24ED2DD39443
:100F8E00F0E0E65FF94F0083E0E2DE1608F0DD24C4
:100F9E00033239F4ED2DE150CE2EDD24E1E0E09365
:100FAE00090636C0AA935D9BFECFE881ECB948C016
:100FBE000E94331710919B0000919C00E12FEC7161
:100FCE0039F5F50131965F013197E05DF94F0083F8
:100FDE00E0E0F2E0EA15FB0511F4AA24BB24AEE230
:100FEE00B6E00E944317E030A2E0FA0789F4E2E08F
:100FFE00F3E0FA93EA93E0912E06F0912F060E9409
:10100E004917E0E0E0932E06E0932F06689420F84F
:10101E0009911991E991EFBFF991E991B991A991CE
:10102E009991899179916991F990199009901895F2
:10103E00AA93E0919B00E072E1F3E881E0939C00BB
:10104E0021960895BA93AA931A9310E0EB81F0E0DB
:10105E00309761F40E944C17EC91E03031F00E9411
:10106E004C17AC919FDF1F5FF5CF0FC0E130A0E0B2
:10107E00FA0759F40E944C17EC91E03031F00E94BF
:10108E004C17AC91D5DF1F5FF5CF1881C8C00E94F9
:10109E00201DEC81F0E0309771F5E0E0EBB9E8E966
:1010AE00EAB9E6E0E0939500E0E0E09390000E945C
:1010BE00521711F4EFE11DC00E945C17C9F00E9497
:1010CE00641711F4EFE215C00E946C1711F4E3E2FD
:1010DE0010C00E94741711F4E1E10BC00E947C173E
:1010EE0011F4EBE006C00E94841711F4E5E001C094
:1010FE00E7E4E9B934C0E130A0E0FA0781F5E0E0B9
:10110E00E0939B00E8E9E0939A00E6E0E0939D000F
:10111E00E0E0E09398000E94521711F4EFE11DC039
:10112E000E945C17C9F00E94641711F4EFE215C01B
:10113E000E946C1711F4E3E210C00E94741711F4B0
:10114E00E1E10BC00E947C1711F4EBE006C00E9497
:10115E00841711F4E5E001C0E7E4E09399002596C9
:10116E0008950E945E1659F4E0E4F3E00E94AC1676
:10117E00ECEEF8E00E948C17ECEEF8E01DC0E130CA
:10118E00A0E0FA0759F4E1E6F3E00E94AC16ECEFAA
:10119E00F8E00E948C17ECEFF8E00EC0E230A0E011
:1011AE00FA0779F4E2E8F3E00E94AC16E4EFF8E017
:1011BE000E948C17E4EFF8E0FA93EA930E949217DC
:1011CE0009D10C94750BBA93AA930E945B1D30E063
:1011DE0000E010E0EC81FD810E171F0754F4F801BA
:1011EE00AE81BF81AE0FBF1FEC913E0F0F5F1F4F41
:1011FE00F1CFE32FF0E0F070AFEFB0E00E942B1DC7
:10120E00EA1BFB0B0E94621D0C94FD0ABA93AA9373
:10121E00EA81FB81FA93EA93AA81BB81DBD0249603
:10122E0008950E94951703E010E0AA81BB811697DE
:10123E0008F4E1C0E3EAF3E00E94AC16EC81FD8114
:10124E00FA93EA93AC81BD810E9453060E949A17CD
:10125E0001D0D1C0BA93AA931A93A981BA811C91D5
:10126E00E12FF0E0E838A0E0FA0791F50E94A01710
:10127E00A13421F40E94A517A93409F003C0E1E0BE
:10128E00F0E021C00E94A017A33521F40E94A517FB
:10129E00A83409F007C00E94AA170E94AF17E2E017
:1012AE00F0E011C00E94A017A33521F40E94A517EB
:1012BE00AC3409F00CC0E6E8F8E0FA93EA930E9429
:1012CE00AF17E3E0F0E0E0932A06F0932B0660C040
:1012DE00E039A0E0FA0711F00C94CF090E94B8177C
:1012EE00A23A39F40E94BD170E9475140E94C717C6
:1012FE004FC00E94B817A33A39F40E94BD170E943E
:10130E00CE17E3E0F0E03EC00E94B817A53AD9F43C
:10131E000E94BD170E947514A981BA819296AC9154
:10132E00A13029F40E94DB17EFEFF1E009C0E9814B
:10133E00FA81E2A1E03031F40E94DB17EEEFF1E02A
:10134E00ED93FC9321C00E94B817A63A89F4E98167
:10135E00FA81E1A1E0939308E981FA81E2A1E09399
:10136E0094080E94BD170E94CE17E6E0F0E00AC076
:10137E000E94B817A83A61F40E94BD170E94CE17BA
:10138E00E8E0F0E0ED93FC93ABEDB8E00E9443177C
:10139E00E091DB08F091DC0831970E94E617AE0F62
:1013AE00BF1F0E94F31C309739F00E94DB170E947A
:1013BE00F31CDF010E94B00FA091DB08B091DC0896
:1013CE005E9729F4E0E0E093DB08E093DC081881F7
:1013DE000C94D30D0E94951700E010E0EA81FB817A
:1013EE000E171F0738F40E949A17AC9121DE0F5F7B
:1013FE001F4FF4CFF8011981088126960895D15018
:10140E000E94591D20E030E040E050E00E94DA16C4
:10141E00A0912E06B0912F060E944A1D48F5ACE20F
:10142E00B6E00E9443173197E05DF94F1081FA0143
:10143E004F5F5F4FDE011696EA0FFB1F10832F5F83
:10144E003F4FA0912C06B0912D06A030E2E0BE07D2
:10145E0029F4E0E0E0932C06E0932D06F894AEE23A
:10146E00B6E0ED91FD913197FE93EE937894D0CF47
:10147E00FE013696FA93EA93D901D3DE0E94601DDF
:10148E002696DF5F08951AD0E0E00E94EB17E1E0A8
:10149E000E94EB170E945B070E94D1160E949A07CA
:1014AE000E94DE160E949A07A3E0B0E00E949A07FF
:1014BE00A0E40E94A20DE0E0F0E00895A098A89AA2
:1014CE00D798D698D598D498A79AE0916400E460FE
:1014DE00E0936400129AE0916400E860E093640087
:1014EE00AF9A0E9464161A9AE0916500E77FE09326
:1014FE00650008951A930A930E94F2171E2F0E94F8
:10150E00DA160E94F2170E2F011711F4E12F01C007
:10151E00EFEF099119910895BA93AA930E94591D5C
:10152E0000E010E0EE81FF8131979F010217130753
:10153E00DCF4F801A885B985AE0FBF1F4C91552775
:10154E000E941C170F01F901A885B985AE0FBF1FA8
:10155E00EC91D001EC93F9010E941C1740830F5FB0
:10156E001F4F21503040E2CF0E94601D2A960895F1
:10157E000E94951700E010E0EE81FF813097D1F0C8
:10158E00F8010F5F1F4FAC81BD81EA0FFB1FBF013A
:10159E00AE81BF81EAE0F0E00E94C71CE05DDB0196
:1015AE00EC93AE81BF81EAE0F0E00E94911CEE83E5
:1015BE00FF83E2CFEA81FB810E171F0754F4F80177
:1015CE000F5F1F4FAC81BD81AE0FBF1FE0E3EC93E9
:1015DE00F1CFEC81FD81FA93EA93D8019DDF0E9451
:1015EE009A17E0E0EC93F801198108812896089586
:1015FE00BA93AA9324970E945B1D0E940C180E9416
:10160E00A51A8F01F8010E9411180E9416180E9447
:10161E001B180E9420181A930A93EC85FD85FA93E5
:10162E00EA930E94D116A4DF9F01002E012A49F4ED
:10163E00F901AA85BB85AE0FBF1FE0E3EC932F5FC8
:10164E003F4FE885F985309741F1F901AA85BB85B1
:10165E00AE0FBF1FEEE2EC930E9425180E941B1DD9
:10166E00EC85FD850E941118DF01CB010E94051645
:10167E000E942A180E942F180E9432180E94A51A42
:10168E00FA93EA93F901AC85BD85EA0FFB1F3196FB
:10169E00FA93EA93AC85BD856BDF0E94621D60965E
:1016AE0008950E9437180E9441180E9492170E94B6
:1016BE0048180E9453180E94DE160E947514E5EA1F
:1016CE000E945A18E2E8F4E00E94AC160E946B18D1
:1016DE000E9453060E946B180E940D0922960895CF
:1016EE00E6E1F9E00E9472180E9492170E947514AA
:1016FE00E7E0F9E0FA93EA93A09106090E947518C3
:10170E00E0932A09E4EAF4E00E94AC16E4E0F9E082
:10171E000E947818E4E0F9E028C0E0E3F9E00E94C6
:10172E007E180E947514EDE3F9E00E9472180E9473
:10173E0092170E947514E5E4F9E00E947E180E944B
:10174E007514EEE2F9E0FA93EA93A0912D090E9446
:10175E007518E0935109E7ECF4E00E94AC16EBE249
:10176E00F9E00E947818EBE2F9E0FA93EA93A7E227
:10177E00B0E00E940D0908950E9437180E9441188A
:10178E000E9492170E9448180E9453180E94DE165B
:10179E000E947514E6EA0E945A18EAEEF4E00E94DE
:1017AE00AC160E946B180E9453060E946B180E9482
:1017BE000D090C945C100E94201DE0E8F9E00E94D7
:1017CE007E180E947514EDE8F9E00E9472180E94CE
:1017DE0092170E947514E5E9F9E00E947E180E94A6
:1017EE0075140E940C180E941B1DE7ECF9E00E9474
:1017FE008518FEDE0E9488180E941B1DEFECF9E092
:10180E000E948518F5DE0E9432180E941B1DE7ED1E
:10181E00F9E00E948518ECDE0E948D180E941B1DB7
:10182E00EFEDF9E00E948518E3DEE7EAE093A00908
:10183E00E889E093A109E3EAF9E0FA93EA93E7EC89
:10184E00F9E00E9490180E947514ECEAF9E0FA9300
:10185E00EA93EFECF9E00E9490180E947514E5EB04
:10186E00F9E0FA93EA93E7EDF9E00E9490180E94EE
:10187E007514EEEBF9E0FA93EA93EFEDF9E00E94BE
:10188E0090180E947514EEE7F9E0FA93EA93A0918E
:10189E007D090E947518E093C609E5E1F5E00E9406
:1018AE00AC160E9493180E9453060E9493180E9431
:1018BE000D09619608950E949A180E949F180E9421
:1018CE00A818E0937408F0937508609376087093E7
:1018DE0077080E949A180E94AF180E94A8180E94BA
:1018EE00B8180E949A180E94C1180E94A818E09376
:1018FE007C08F0937D0860937E0870937F080E94A9
:10190E00CA18E0930106F0930206609303067093E3
:10191E0004060E94D318E0930506F0930606609322
:10192E00070670930806EAE3F5E00E94AC16E5E7B9
:10193E00F5E0FA93EA93E0916408F09165086091FE
:10194E006608709167080E94B816E4E8F5E0FA930D
:10195E00EA93E0916808F091690860916A087091C5
:10196E006B080E94B816E3E9F5E0FA93EA93E0916A
:10197E006C08F0916D0860916E0870916F080E946E
:10198E00B816E2EAF5E0FA93EA930E94CA180E94AA
:10199E00B816E2EBF5E0FA93EA930E94D3180E9490
:1019AE00B816E2ECF5E0FA93EA930E94DC180E9476
:1019BE00B816E1EDF5E0FA93EA93E0917008F09134
:1019CE00710860917208709173080E94B816E9EE62
:1019DE00F5E0FA93EA930E949A180E944917E0E004
:1019EE00F6E00E94AC160E94E5180E94661B0E944B
:1019FE00B818E1E0EA930E94CA180E941B1D0E94CB
:101A0E00D3180E941B1D0E94DC180E941B1D0E94F1
:101A1E00F218D1DE0E94E5180E94B41B0E94B8187D
:101A2E000E94FB18A030E0E0BE07E9E38E07E3E476
:101A3E009E0769F40E940419EDECFCEC6CE970E46D
:101A4E000E94F91B09F010F40C942E0D01C001C078
:101A5E0031C00E94FB18A030E0E0BE07E8EC8E0714
:101A6E00E2E49E0769F40E940419E3E3F3E36FE9ED
:101A7E0071E40E94F91B09F010F40C94470D01C09B
:101A8E0001C018C00E94FB18A030E0E0BE07E4E8D9
:101A9E008E07E2E49E0769F40E940419E3E3F3E380
:101AAE006FEE71E40E94F91B09F010F40C94600DB6
:101ABE0001C01BC0E0E0E09300060E946416AF9ADE
:101ACE00E0E0E0930106E0930206E0930306E09364
:101ADE000406E0930506E0930606E0930706E093FE
:101AEE000806EBE3F6E00E94AC16E0E0E093300867
:101AFE00E0933108E0936408E0936508E09366088C
:101B0E00E0936708E0936808E0936908E0936A0839
:101B1E00E0936B08E0936C08E0936D08E0936E0819
:101B2E00E0936F08E0937008E0937108E0937208F9
:101B3E00E09373080895AA93E881E093E709E7B963
:101B4E00E4EAE6B921960895AA931A930A9300E05F
:101B5E0010E0EA81A091E709EA2BE7B988EB8A95B4
:101B6E00F1F7379A369A349BFECF04B11127E5B1BF
:101B7E00FE2FE0E00E2B1F2B349AF80119810881FD
:101B8E000BC0AA93E199FECFE981FA81FFBBEEBBB0
:101B9E00E881EDBBE29AE19A23960895BA93AA934F
:101BAE00E199FECFE881F981FFBBEEBBE09AEDB380
:101BBE000C945C10A1E00E940D19E2E6F6E0FA9397
:101BCE00EA930E9414190E9449170E941919AAE15A
:101BDE00B7E68CE990E40E94661BE0934408F0930C
:101BEE00450860934608709347080E941F19A0E0AD
:101BFE00B0E889EF93E40E94661B0E9428190E94A8
:101C0E003119E0E0F0E06AEF73E40E94B41BE09358
:101C1E004008F093410860934208709343080E9475
:101C2E00361909F010F40C942D0EA0914008B091C5
:101C3E0041088091420890914308E0914408F09148
:101C4E004508609146087091470807C00E943619F2
:101C5E0020F50E9428190E941F190E940F1BE09365
:101C6E004C08F0934D0860934E0870934F08A09166
:101C7E004C08B0914D0880914E0890914F080E94EB
:101C8E00661B0E943B190E94161BE0933C08F093C2
:101C9E003D0860933E0870933F08A0E8B8E00AC183
:101CAE00A0E00E940D190E941919A0E0B0E080EA90
:101CBE0090E40E944419E0E0F0EC6FE774E40E94B7
:101CCE00B41BDF01CB01EAE0F7ED63E27CE30E9497
:101CDE00B41BE0935408F093550860935608709324
:101CEE0057080E944919E0E0F0E06FE573E40E94A6
:101CFE00F91B48F40E945219A0E0B0E080E191E493
:101D0E000E94161B14C00E944919E0E0F0E069E63B
:101D1E0073E40E94F91B09F010F40C94A60E0E94B5
:101D2E005219A0E0B0E080E890E40E940F1BE0930F
:101D3E005408F09355086093560870935708EDE6D3
:101D4E00F6E0FA93EA930E9452190E94B8160E9486
:101D5E0052190E949F180E94161BE0936408F0937C
:101D6E0065086093660870936708E0918008F091AB
:101D7E0081080E943B190E94A818E0935008F09326
:101D8E0051086093520870935308A0915008B09177
:101D9E00510880915208909153080E94191CE093AB
:101DAE004808F093490860934A0870934B080E94C4
:101DBE00BF16A0914808B091490880914A089091A9
:101DCE004B080E94B41BE0935808F0935908609397
:101DDE005A0870935B080E94C816A0915808B091DB
:101DEE00590880915A0890915B080E94F91B48F49B
:101DFE00E0E0E0935808E0935908E0935A08E09326
:101E0E005B08E0E0E0933C08E0933D08E0933E0879
:101E1E00E0933F08E0938008E09381080E945B19ED
:101E2E000E94AF180E94161BE0936808F093690891
:101E3E0060936A0870936B080E945B190E9449199F
:101E4E000E94661BE0935C08F0935D0860935E0849
:101E5E0070935F080E94C1180E94161BE0936C08D5
:101E6E00F0936D0860936E0870936F08A0915C08F4
:101E7E00B0915D0880915E0890915F08E4EBF2EA04
:101E8E0061E179E30E94661BE0936008F0936108BC
:101E9E0060936208709363080E94F2180E94161BEA
:101EAE00E0937008F0937108609372087093730852
:101EBE00A0E3B8E0ED91FD913196FE93EE93089577
:101ECE00BA93AA93E091DB08F091DC080E94E61722
:101EDE00EA0FFB1FA881B981A083B183ABEDB8E0F7
:101EEE000E944317E2C01A930A9300E010E0E091BB
:101EFE00DD08F091DE080E94E617AE0FBF1F0D91B0
:101F0E001C91EAE7F6E0FA93EA93F8010E94211792
:101F1E00002E012A21F0ADEDB8E00E944317E7E84C
:101F2E00F6E0FA93EA93E091DD08F091DE080E9464
:101F3E002117A091DD08B091DE085E9729F4E0E04C
:101F4E00E093DD08E093DE08D80103D009911991E2
:101F5E000895BA93AA93A881B981129729F40E9481
:101F6E00C717EAE9F6E09BC0A881B981139739F447
:101F7E00EEEBF6E00E94AC160E94940B96C0A88180
:101F8E00B981AE3FE1E0BE0721F0AF3FE1E0BE0711
:101F9E00C1F5E0EEF6E00E94AC16A881B981AF3F24
:101FAE00E1E0BE0779F4E1E0E09394080E94F916AF
:101FBE00E1E00E9464190E94E416AF98E09165007A
:101FCE00E46014C0A881B981AE3FE1E0BE0781F4A0
:101FDE00E0E0E09394080E94C717E0E00E946419C5
:101FEE000E94E416AF9AE0916500EB7FE0936500E6
:101FFE00E1E0EA93A09194080E94C30BE8E1F7E0B8
:10200E004EC0A881B981AC3EE3E1BE0721F0A63FE8
:10201E00E3E1BE07B9F5EBE3F7E00E94AC16A88149
:10202E00B981A63FE3E1BE07A1F4E1E0E093940895
:10203E000E94F916E1E00E9464190E94E416AF981E
:10204E00E0916500E460E0936500E1E0EA93A1E0D1
:10205E0016C0A881B981AC3EE3E1BE0791F4E0E081
:10206E00E09394080E94C717E0E00E9464190E9452
:10207E00E416AF9A0E946416E1E0EA93A0E00E9493
:10208E00580B13C0A881B981169719F4E5E7F7E04C
:10209E0006C0A881B981189741F4EEE9F7E0FA93EA
:1020AE00EA9380E00E942E062296229608950E94C0
:1020BE000E17E883E0E0E983EA83EFE3EB831A93FC
:1020CE000A93EB85FC85EF3FAFEFFA0739F40E94D8
:1020DE001317AAECB7E00E948714A5C0EF3FAFE735
:1020EE00FA0739F40E941317ABECB7E00E9487147D
:1020FE009AC0AC85AA2362F4E985FA856B857C8546
:10210E000E94701A0E9467190E946C19EDE2EC93FE
:10211E00A885A73010F0E6E0E8871885E12F11506A
:10212E00E03039F00E9473190E9478190E947F19CD
:10213E00F5CF0E9484190E94161B0E94671910E0A9
:10214E000E94B3160E947F190E9484190E94F91BE7
:10215E0088F00E9473190E948D190E947F191F5FCB
:10216E00173238F00E941317AFECB7E00E948714B5
:10217E005AC0EACF103029F40E946C19E0E3EC93B8
:10218E0028C0E12F1150E03021F10E9473190E94F6
:10219E0078190E9491190E9431190E94DE140E9432
:1021AE007F190E9484190E94B41B0E94A31A0E2F3D
:1021BE000E946C190E9496190E9473190E941118A0
:1021CE000E94661B0E949C190E941B180E94671990
:1021DE00D8CFE885E03019F10E946C19EEE2EC934D
:1021EE00E885E150E887EF5FD1F00E949C190E94CC
:1021FE008D190E946719E985FA856B857C850E9489
:10220E00A31A0E2F0E946C190E9496190E949C19F7
:10221E000E9411180E941B180E946719E1CFAE810F
:10222E00BF81E0E0EC93198108812D9608950E94FC
:10223E009517AA81BB8112960E94F31C309729F143
:10224E00AA81BB8114960E94F31C8F01309761F016
:10225E000230E0E01E07C0F0F80131978F01AA812D
:10226E00BB811496ED93FC93AA81BB8112960E94BA
:10227E0043173197AC81A083AA81BB810E94F31CC6
:10228E00FF2312F00E94431706C0AA81BB81EFEF15
:10229E00FFEFED93FC9319810881259608950E9416
:1022AE000E17E883E0E0E983E0E8EA83EFE3EB83EF
:1022BE000E945B1DEE85FF85EF3FAFEFFA0749F4F5
:1022CE00E885F985FA93EA93A4EDB7E00E948714A6
:1022DE00BAC0EF3FAFE7FA0749F4E885F985FA93FC
:1022EE00EA93A5EDB7E00E948714ADC0AB85A73089
:1022FE0010F0E6E0EB871B85E12F1150E03019F06E
:10230E000E94A119F9CF0E940C180E94461D21F4BB
:10231E0030E00E94A11934C03B850E94A41909F037
:10232E0010F40C94A8110E94A1190E94A41940F057
:10233E000E9416180E9478190E94A9193F5FF5CFC6
:10234E000DC00E94A41940F40E9416180E948D1907
:10235E000E94A9193150F5CF0E94A1190E940C18A4
:10236E000E9491190E94161B0E94A9190E94A4197D
:10237E0038F00E9416180E9478190E94A9193F5F22
:10238E0010E0EB85E11798F10E942A180E94781947
:10239E000E9491190E9431190E94DE140E94201889
:1023AE000E9432180E9416180E94B41B0E94A31A93
:1023BE000E2F0E94AE19E02FE05DEC93E02FFF2769
:1023CE00662777270E94DC1A0E942A180E94661B35
:1023DE000E9416180E941B180E94A919E12F1F5F58
:1023EE00E03079F60E94AE19EEE2EC93CACF0E946D
:1023FE00B5193197AA85A08330302CF43195A88574
:10240E00B985EDE203C0A885B985EBE2EC930E9495
:10241E00B5190E94B5193197BF01A32FEAE00E94AA
:10242E00791CE05DDB01EC930E94B5193197BF0179
:10243E00A32FEAE00E94BB1CE05DDB01EC93A885B4
:10244E00B985E0E0EC930E94621D60960895BA9300
:10245E00AA93EF9761970E94591D10E0FE01E85A6A
:10246E00FF4F0190F081E02DE887F987FE01EA5ACF
:10247E00FF4F0190F081E02DEE83FF83AE81BF818F
:10248E00E0E0F0E0ED93FC93DE01A45ABF4F0E9412
:10249E0043173197E4912E2FE03011F40C94411430
:1024AE00E12FE03039F4253211F411E002C00E9420
:1024BE00BB19DFC1E130C1F4253219F40E94BB19FA
:1024CE00D7C112E0E0E0ED8B00E02D3211F401E017
:1024DE00D0C12B3219F4EBE2ED8BCBC1203219F4C3
:1024EE00E0E2ED8BC6C102C0E23039F450E013E0F9
:1024FE00203311F40068BDC102C0E33091F42033E3
:10250E0010F02A3308F007C0AAE05A9F502DE22F90
:10251E00E0535E0FAEC140E02E3211F414E0A9C1BB
:10252E000FC0E43099F4203310F02A3308F008C0BD
:10253E000062AAE04A9F402DE22FE0534E0F99C150
:10254E002C3619F4026015E094C104C0E53011F088
:10255E000C944014E22FE33659F40E94C2190E94E3
:10256E00C9190E94C219A481AA930E94D01980C1D0
:10257E00E53411F0E53609F404C0E63611F00C949A
:10258E000E13FE017696EE87FF870E94D6190E94E3
:10259E00F71C0E94DD190E94E219AD85AA2322F0D4
:1025AE00AD89AB3249F017C00E94E4190E94701A2F
:1025BE000E94DD19EDE2ED8B07FF05C0ED89EA9370
:1025CE000E94D01908C0EE85FF853196EE87FF87F1
:1025DE003197AD89A08305FF46E0263651F40E945F
:1025EE00E4190E941B1D4A93AB89BC890E945E10A0
:1025FE0009C00E94E4190E941B1D4A932A93AC89BC
:10260E00BD894DDEFE0176960E94E9191EC0E337A4
:10261E0039F40E94E2190E94F1190E94E9190EC0C4
:10262E00E037C1F40E94E2190E94F119EE87FF878C
:10263E00AE85BF850E94A0141E2F08600F77403014
:10264E0011F0411708F001C0142F40E0E0E0EC8BD0
:10265E0030E06EC0E43611F0E93611F4046002C0C9
:10266E00E537A1F4EAE0EC8B01FF08C0E0E0FAECFC
:10267E006AE97BE30E94F6191AE023C0E0E1F7E273
:10268E0060E070E00E94F61915E01BC0E83511F409
:10269E00086004C0E83711F00C943F14E0E1EC8BB5
:1026AE0001FF08C0E0E0F0E060E070E10E94F61982
:1026BE0018E007C0E0E0F0E160E070E00E94F6197B
:1026CE0014E0403011F00F7701C041E001FF08C067
:1026DE000E94E2190E94D61914960E94F71C0FC090
:1026EE0002FF07C00E94E2190E94F1190E94661CA7
:1026FE0006C00E94E2190E94F11966277727EA8721
:10270E00FB876C877D8702FF12C0AD85AA2342F43A
:10271E000E94E4190E94581C0E94DD19EDE2ED8B17
:10272E00ED89E03019F01F5F4F5F01C00B7F342F32
:10273E0000FD14C0151710F4351708F00FC007FF71
:10274E0008C002FF04C00B7F2D89115001C020E389
:10275E0001C020E20E94BB195150ECCF141790F427
:10276E00006102FF06C00E94FB1909F05150115082
:10277E004150E0E3EA930E94D019503009F05150D5
:10278E004150ECCF312FEC89E030B9F43030A1F06C
:10279E0003FF06C0EE85FF852591EE87FF8705C0F6
:1027AE00AE85BF852D91AE87BF870E94BB19503075
:1027BE0009F051503150EACF51C00E940D1A0E94BB
:1027CE00961C2E2F2A3030F003FF02C0295C01C068
:1027DE00295A01C0205D04FD21C0213360F4A8896F
:1027EE00B9898A899B89A130E0E0BE07E0E08E07B7
:1027FE00E0E09E0709F40BC0431740F4531710F0A6
:10280E0000FF01C010C020E207FF08C020E30061F6
:10281E0002FF04C00E94FB1909F051500E94BB191F
:10282E00503009F0515031500E940D1A0E94D51CA3
:10283E000E94DD19EC89A889B9898A899B89FF27AD
:10284E00662777270E94961C0E94F619E889F98957
:10285E006A897B890E94461D09F0AFCF00FF08C030
:10286E00503031F05150E0E2EA930E94D019F8CF87
:10287E0010E00ACEAE81BF810E94F31C0E94601D43
:10288E00EF966F960895BA93AA9326971A930A9382
:10289E00EC85FD85309721F4EFEFFFEF0C940116D8
:1028AE00EC85FD85EC83FD83E0E0EE83EF83EA8526
:1028BE00FB85FA93EA93EA85FB85FA93EA93EEE1B8
:1028CE00F1E1FA93EA93DE011896C1DD8F01AC8136
:1028DE00BD81E0E0EC93F8010C940116BA93AA9333
:1028EE0099818881009641F0BD81AC81FB81EA819E
:1028FE0061916D930197E1F7FD81EC812696089524
:10290E00BA93AA93E991F991A991B991CD01059044
:10291E000D920020E1F7FC010895BA93AA93A991B4
:10292E00B991EE27FF276D91662311F03196FBCFFB
:10293E000895BA93AA93AA27BB27E991F991059016
:10294E00002011F01196FBCFFD0108950E94201D6D
:10295E007B816A81F981E88177FB770F67FD716072
:10296E00972F9E5781F078F0983190F4AA27BB27C5
:10297E00882708948795B795A7959A95D1F7EA2356
:10298E00FB23682305C0E8947727EE27FF276627E9
:10299E006F77769508F4606877F9A991B991899166
:1029AE009991EA17FB076807790797FB08950E942C
:1029BE00201D0E94111D0E94AD140E94161D19F4B7
:1029CE000E948D1805C0E6F70E948D180E94161AF7
:1029DE00249608950E94201D24971A930A930E940C
:1029EE001D1A0E944E1D2CF0EFEFFFEF6FE77FEFE9
:1029FE0071C00E94221A0E941B1DADB7BEB711975F
:102A0E001F930F930E94531A0F911F910E94271A22
:102A1E000E941D1AE3EFF4E065E37FE30E94F91BC9
:102A2E0040F40E942C1A0E94161B0E94271A015075
:102A3E0010400E94221A0E94161A7F936F93FF93E2
:102A4E00EF930E94221AA0E0B0E080E89FE30E947C
:102A5E00161BAF91BF918F919F910E94B41B0E9444
:102A6E00271A0E942C1A0E942E1AA6E2B2E485E6BC
:102A7E009FE30E944419EEE4F1E164E570E40E94E4
:102A8E001B180E941D1A0E94661B7F936F93FF9363
:102A9E00EF930E94361AADE4B1E184ED9FE30E94FC
:102AAE000F1BAF91BF918F919F910E94B41B7F938B
:102ABE006F93FF93EF93F8010E941118A8E1B2E70C
:102ACE0081E39FE30E94661BAF91BF918F919F910F
:102ADE000E94161B198108812A9608950E94201DB6
:102AEE0028971A930A930E943B1AE0E5FCEA6EEAD5
:102AFE0072EC0E94F91B18F40E94401A7BC00E94CF
:102B0E00E4190E94461D19F40E94B31673C00E9468
:102B1E003B1AE8E1F2E761EB72E40E94F91B09F05F
:102B2E0010F40C949F15EFEFFFEF6FE77FE762C095
:102B3E000E943B1AEBE3FAEA68EB7FE30E94661B06
:102B4E000E94DD190E943B1A32DF0E94A51A8F01E6
:102B5E00F8010E943B1A0E9411180E941B18DF01F7
:102B6E00CB01E0E0F0E060E07FE30E941B180E94E2
:102B7E00271A0E942C1A0E942E1AADE6BCE48CE68F
:102B8E009DE30E94661BA6EAB3EE86EE90E40E94D9
:102B9E00161B0E941D1A0E94661B0E94271A0E9475
:102BAE00361AA8E2BDE886EA91E40E94161B0E943E
:102BBE007F190E94221A0E9473190E94161BA3EFFE
:102BCE00B4E085EB9FE30E94661B7F936F93FF93A8
:102BDE00EF930E941D1A0E94361A0E940F1BAF918E
:102BEE00BF918F919F910E94B41B0E941B1DD80113
:102BFE000E94641A198108812E9608950E94201D44
:102C0E0024970E9488180E94461D19F40E94401AAB
:102C1E0043C0A885B9858A859B850E944E1D84F484
:102C2E000E9432180E94461D19F40E94B31634C039
:102C3E00A885B9858A859B850E94451A4FDF2CC0D1
:102C4E000E943218DE010E94A51A0E94021D0E94E7
:102C5E008D180E94DC1ADF01CB010E9432180E94EF
:102C6E00541D19F00E94401A17C00E9488180E9425
:102C7E00701ADF01CB010E94451A30DFE887F98711
:102C8E006A877B87E881E17019F40E94881804C076
:102C9E000E9488180E94701A2C960895AA93E1E05B
:102CAE00F991F03210F0F03808F0EE270895BA934B
:102CBE00AA93E881F98130970895E0916500EB7F42
:102CCE00E09365000895A0919E08BB270E94D50D44
:102CDE00E09392080895E0919E08F0E0FA93EA934B
:102CEE000895E0E0F0E069E373E4E0933608F093D2
:102CFE0037086093380870933908A0E0B0E00E945E
:102D0E00321D0895DF01CB010E944E1D0895E09300
:102D1E003608F09337086093380870933908089591
:102D2E00FA93EA9380E00E942E062296E9ECF0E0F8
:102D3E00FA93EA93E0E0F0E060E87FE30E941B1D67
:102D4E0084E00E942E0626960895FA93EA9380E078
:102D5E000E942E0622960895E0E0F0E060E87FE300
:102D6E0008950E941B1D84E00E942E06269608954B
:102D7E00E0913608F0913708609138087091390863
:102D8E000895E0913208F091330860913408709103
:102D9E0035080895A0E0B0E008950E94B808A4E6B2
:102DAE00B0E00C94491AA4E6B0E00C94491AA1E0E4
:102DBE00B0E008950E944E048ECFA09192080C941C
:102DCE00C80DA2E0B0E00895F40131964F01D40190
:102DDE00EAE0F0E00E94C71C30970895A8ECB0E03E
:102DEE000C94491AE5E0F0E0E0932A06F0932B06E6
:102DFE000895E4E0F0E0E0932A06F0932B06ACEEA3
:102E0E00B3E10895FE013296FA93EA930895BA93C8
:102E1E00AA932497E0E00895EE81FF81FA93EA9356
:102E2E000895AC85BD850C949B06A885B985EA0FDF
:102E3E00FB1F08950E94661C94CFFA93EA93DA0161
:102E4E00EC91FF27662777278CCFEBEAE09389007A
:102E5E00E0EAE093880008950A921A92FA926A9331
:102E6E007A938A939A93AA93BA93EA93FA93EFB7C3
:102E7E00EA931A930A930895ED91FD913196FE937C
:102E8E00EE930895662777276CCFA981BA81EE2736
:102E9E00A10FBE1F08950E940C1DE036A9E0FA078F
:102EAE00A0E06A07A0E07A070895E038A5E2FA07E5
:102EBE00A0E06A07A0E07A070895E034A8E3FA07D5
:102ECE00A0E06A07A0E07A070895E030ABE4FA07C5
:102EDE00A0E06A07A0E07A070895E030A6E9FA07B5
:102EEE00A0E06A07A0E07A070895E030A1EEFA07A5
:102EFE00A0E06A07A0E07A070895E030A2ECFA0796
:102F0E00A1E06A07A0E07A070895FA93EA93A8E091
:102F1E00B0E00C945306A8E0B0E00895BA93AA93DB
:102F2E001A930A930895F801AC81BD81AE0FBF1FAD
:102F3E000895A981BA811296AC910895A981BA819A
:102F4E001396AC910895E2E8F8E0FA93EA930895A7
:102F5E00EB81FC813596FA93EA93A4E0B0E00C94F1
:102F6E007514A981BA819096AC910895EAE8F8E0BB
:102F7E00FA93EA93EB81FC813196FA93EA93CBCFE5
:102F8E00E4E0F0E0E0932A06F0932B0608950E9409
:102F9E007514E091DB08F091DC08AFE9B8E0EE0FB4
:102FAE00FF1FAE0FBF1F0895E091DB08F091DC0804
:102FBE00AFE9B8E0EE0FFF1FAE0FBF1F0895AFE9E8
:102FCE00B8E0EE0FFF1F0895EA93A0E0B6E980E0A7
:102FDE0090E00C944E08E0E0CF99E1E00E2EA0E0D8
:102FEE00CE99A1E0EA2FEE0F0E2AA0E0CD99A1E036
:102FFE00EA2FEE0FEE0F0E2AA0E0CC99A1E0EA2FF9
:10300E00EE0FEE0FEE0FE0290895EC85FD856E852F
:10301E007F8508950E94661C0E94DC1A0895AC8577
:10302E00BD858E859F8508950E94251D0E940F1BCC
:10303E000895EC83FD836E837F830895E0E0F0E0D6
:10304E0060E271E40895AC81BD818E819F81089507
:10305E000E94661BEECFEC81FD816E817F8108950B
:10306E00AA93E7E5F9E0FA93EA93EAE8F8E0FA932F
:10307E00EA9351CF0E947514E4E6F9E0FA93EA93CD
:10308E0062CF0E947514ECE6F9E0FA93EA93EAE84F
:10309E00F8E0FA93EA933FCF0E947514E9E7F9E05E
:1030AE00FA93EA93AFCEE0937709E981E09378093A
:1030BE00E5E5F9E0FA93EA93A0915409B0E00E9495
:1030CE00EA08E0937A090895E2E5F9E0FA93EA93C3
:1030DE00A9E2B0E00895FA93EA9335CFB0E00C94EC
:1030EE00EA08FA93EA93A7E2B0E00C945306FA9337
:1030FE00EA93EAE8F8E0FA93EA930DCFFA93EA93AB
:10310E0060CEE885F9856A857B8508950E940C1D41
:10311E000895FA93EA93FFCEEBE7F9E0FA93EA9378
:10312E00ACE4B0E00895E0913008F09131080895D4
:10313E00A0916408B0916508809166089091670827
:10314E000895662777270E94DC1A0E94B41B089503
:10315E00A0916808B091690880916A0890916B08F7
:10316E000895E0937808F093790860937A08709345
:10317E007B080895A0916C08B0916D0880916E083F
:10318E0090916F080895E0917408F0917508609120
:10319E007608709177080895E0917808F091790893
:1031AE0060917A0870917B080895E0917C08F09107
:1031BE007D0860917E0870917F080895A09178082F
:1031CE00B091790880917A0890917B08E0E0F0E068
:1031DE006AE774E40895A0917008B0917108809127
:1031EE007208909173080895A0913608B09137082F
:1031FE0080913808909139080895A0917808B0917F
:10320E00790880917A0890917B0808950E94AB0D01
:10321E00E0933A08F0933B080895E0913A08F09154
:10322E003B080895FADF662777270E94DC1A089577
:10323E00E0914008F0914108609142087091430876
:10324E000895A0914408B091450880914608909148
:10325E00470808950E94161BDF01CB010895E8DF91
:10326E00F0DF0E94F91B0895A0913C08B0913D0833
:10327E0080913E0890913F0808950E94661BDF01E1
:10328E00CB010895A0915408B0915508809156082D
:10329E00909157080895E0915408F0915508609167
:1032AE005608709157080895E0915808F091590802
:1032BE0060915A0870915B080895E09392080BCDC7
:1032CE00E987FA876B877C870895AE81BF81119657
:1032DE00AE83BF8311970895AA81BB818C819D8196
:1032EE000895EDECFCEC6CEC7DE30E94661B0895FA
:1032FE00EA83FB836C837D830895EA81FB816C8175
:10330E007D81A985BA858B859C85089597DE0E945F
:10331E00661B0895A0E0B0E080E09FE30895E02FE3
:10332E00E05DEC93E02FF0E00895A985BA858B85DA
:10333E009C85089588DE82DE8BCE8DDE70DE0E9447
:10334E00F91B0895EC87FD876E877F870895A88502
:10335E00B9851196A887B98711970895E885F985DB
:10336E003196E887F98708952A93AF81B885E98564
:10337E00FA8509950895FE01E65AFF4F0190F081F6
:10338E00E02D08953497DE01A65ABF4FED93FC93BE
:10339E000895AF81B885E985FA8509950895DE010E
:1033AE00A65ABF4F0D90BC91A02D0895EA87FB87BA
:1033BE006C877D870895DFDFE5CFEA85FB856C8519
:1033CE007D850895EE87FF87AE85BF850E94941494
:1033DE001E2F0895E4DF14960E94F31C0895E88BC7
:1033EE00F98B6A8B7B8B08950B7FED89EA93DE0157
:1033FE00A95ABF4F0D90BC91A02DFE01E75AFF4F69
:10340E000190F081E02D099550300895E889F989F1
:10341E006A897B89AA85BB858C859D850895A0E0E8
:10342E00B0E080E89FE30E940F1B0895AE81BF813C
:10343E00888599850895EE81FF816885798508953F
:10344E00EE83FF83688779870895F5DFEFCF0E94BB
:10345E00661B4EDFEA81FB816C817D810895EA81D6
:10346E00FB816C817D810895AA85BB858C859D85A8
:10347E000895E0E0F0E060E070E008950E94F1143D
:10348E00E2DDFBCE109639F08DEC9AE00197F1F764
:10349E00A8951197C9F70895E991F99169917991D4
:1034AE0077FB660F771F88277E57880B7D938C934B
:1034BE007EE7769567956EF00895E991F991699199
:1034CE00799177FB660F771F7A0F769567950EF0D9
:1034DE00089530976040704009F070580895552354
:1034EE0042F4503811F4E0FF04C03196691F791F81
:1034FE006BF050E8572711F45F93CFC05F3F31F068
:10350E00660F000C57956795752F08955F930020F1
:10351E000AF0CFC0C8C050E8192E1522880F991F87
:10352E009527550F879550E8072E0522660F771FB2
:10353E007527550F67950895689401C0E8945F93B9
:10354E00F2DF703818F07F3F08F4A7C056E1571B22
:10355E00AAF4519558300EF4593030F0EFEFFFEFDA
:10356E006FEF7FE777F91AC077275523B9F0EE0F83
:10357E00FF1F661F771F5A95D1F710C07727583057
:10358E0028F0EF2FF62F672F5850F9CF552331F033
:10359E0076956795F795E7955A95D1F700200AF439
:1035AE0080D15F910895689401C0E894309760408F
:1035BE007040B1F0002426F0772312F4009471D1FC
:1035CE00172E7EE1112032F07A95EE0FFF1F661F47
:1035DE00111CF9CFEF2FF62F612D5F938ADF5F91CC
:1035EE0008954F93AF01FD01DA01AB01BC01CA0191
:1035FE00402D012C142E4F910895EA0FFB1F681FCA
:10360E000895E095F0956095EF5FFF4F6F4F089529
:10361E005F9381DF903871F150E8152604C05F93F7
:10362E007ADF903839F1703821F1572F591B2BF171
:10363E0012F4D7DFFACF583118F0AA27BB27882704
:10364E00583028F0AB2FB82F88275850F9CF552374
:10365E0029F08695B795A7955A95D9F7502D5125EE
:10366E0072F0CBDF38F46795F795E795739513F401
:10367E0020C0B7DF3EDF5F910895D8F7FBCFEA1B7E
:10368E00FB0B680B51F010F40094BBDF662392F332
:10369E00EE0FFF1F661F7A95CBF7EE27FF276627E3
:1036AE0077275F910895EFEFFFEF6FE77FEF5F9161
:1036BE000895EFEFFFEF6FE77FE75F9108955F9358
:1036CE002ADF703851F3903841F301240894791FA2
:1036DE0023F41CF300203AF3ECCF0F921F932F9399
:1036EE003F934F93112722279927689FA0018F9F01
:1036FE00302D410D591F6B9F300D411D591F8E9F4F
:10370E0027D0BF9F25D06A9F23D0BE9F1DD0AF9FCD
:10371E001BD0AE9F110D291F391F491F591FE32FB3
:10372E00F42F652F522F4F913F912F911F910F9094
:10373E0066232AF0550FEE1FFF1F661F02C07395FA
:10374E004BF2CDDE5F910895100D211D391F02C081
:10375E00200D311D491F591F08955F93DCDE70380F
:10376E0021F411200AF49FCFA4CF903809F495CFFD
:10377E0001240894970B1BF4D4F30020F3CF792F78
:10378E001F932F933F934F931124112722273327F3
:10379E004427552790E2AE17BF078607410730F042
:1037AE00AE1BBF0B860B410B089401C08894551FAE
:1037BE00221F331F111CAA1FBB1F881F441F9A955F
:1037CE0051F7F901612D4F913F912F911F91662372
:1037DE0032F0550FEE1FFF1F661F7A9543F27FDE04
:1037EE005F91089599239AF0772342F0971748F046
:1037FE0029F4AE17BF07860720F031F0989488940D
:10380E0008959894089408951894889408957723A9
:10381E00C2F7971798F3A9F7EA17FB07680788F31B
:10382E0099F3ECCF06D124975F939F81992311F4DE
:10383E00289633CF12F428963CCF4F9342E48E81D4
:10384E00BD81AC8188839983AA83BB83FD01BC01B2
:10385E00AC81BD818E819F8180DF88819981AA8113
:10386E00BB81DDDE60DE7A9544DE88819981AA8196
:10387E00BB81AE27A87F21F4BF178607970729F0D3
:10388E004A9519F0DF01CB01DDCF4F915F9128965C
:10389E0008950024AF0DB01D0895F195E195F04007
:1038AE000895F09560957095E195FF4F6F4F7F4F9E
:1038BE000895FE2FFF0FFF0B6F2F7F2F08956F2F91
:1038CE00660F660B762F0895002498E0AA0F001C51
:1038DE000E1A10F40E0E01C0A1609A95B9F7EA2FD8
:1038EE00A02D08955FD0F0DF0EF4E1950895002429
:1038FE00112490E1AA0FBB1F001C111C0E1A1F0AE7
:10390E0018F40E0E1F1E01C0A1609A9599F7FD01C5
:10391E00D001089553D0EBDF0EF4BFDF08953F932F
:10392E004F935F93002411244427552730E2AA0FAA
:10393E00BB1F881F991F001C111C441F551F0E1AF8
:10394E001F0A460B570B28F40E0E1F1E461F571F3D
:10395E0001C0A1603A9559F7FD01BC01D001CA0121
:10396E005F914F913F910895E894A7FF02C0A195F2
:10397E006894E7FDE195A8DFEA2F0EF4E19508952E
:10398E00E894B7FF04C0A095B09511966894F7FD22
:10399E0084DFADDFFD010EF480DF0895C0DFFD0191
:1039AE00BC010895E894E7FF02C0E1956894A7FF73
:1039BE0004C0A19500F8039400FA0895E894F7FF67
:1039CE0002C06BDF6894B7FF06C0A095B095119644
:1039DE0000F8039400FA0895ED91FC911197089563
:1039EE00ED91FD916D917C9113970895ED91FD915F
:1039FE006D917D910895ED93FD936D937C93089554
:103A0E007E936E93FE93EE930895E881F9816A8119
:103A1E007B810895A881B9818A819B810895E8836D
:103A2E00F9836A837B8308957A936A93FA93EA9370
:103A3E0008959A938A93BA93AA930895182E862F6F
:103A4E00612D192E972F712D1B2EBF2FF12D1A2E92
:103A5E00AE2FE12D0895129602D0BF011297119646
:103A6E0002D0FE2F1197E199FECFFF93FFB7F89486
:103A7E00AEBBBFBBE09AEDB3FFBFFF910895309789
:103A8E0060407040089500240A160B060895002425
:103A9E000A160B06080609060895EA17FB076807BB
:103AAE00790708955A934A933A932A931A930A934D
:103ABE0008955D814C813B812A8119810881089589
:00000001FF
