:0C0000000C940D040C9400000C94000003
:10000C000C9400000C9400000C9400000C94000064
:10001C000C9400000C9400000C9400000C94000054
:10002C000C9400000C9400000C9400000C94340709
:10003C000C9400000C9426070C9400000C94D80728
:10004C000C9400000C9400000C9400000C94000024
:10005C000C9400000C9400000C9400000C94000014
:10006C000C9400000C9400000C9453070C940B0897
:10007C000C9400000C9400000C9400000C940000F4
:10008C00000000000000000000000000000000FF65
:10009C00FFFFFF00000000004556454E54203D2058
:1000AC0025640D0A00636F756E745F6576656E74FA
:1000BC00203D2025640D0A000D0A2B2B2B2B2B2BFE
:1000CC002B2B2B2B20536D61727420537769746327
:1000DC0068202B2B2B2B2B2B2B2B2B2B0D0A000DBA
:1000EC000A4669726D776172652056657273696F25
:1000FC006E203A2025302E31660D0A00437572723F
:10010C00656E742053656E736F722020203A204107
:10011C004353373132454C4354522D3035422D54D4
:10012C00202825302E3166206D562F416D702E29DA
:10013C000D0A000D0A2B2B2B2B2B2B2B2B2B2B20B7
:10014C00536D61727420506C7567202B2B2B2B2BED
:10015C002B2B2B2B2B0D0A0043757272656E7420A2
:10016C0053656E736F722020203A20414353373110
:10017C0032454C4354522D3230412D5420282530D9
:10018C002E3166206D562F416D702E290D0A000DF3
:10019C000A2B2B2B2B2B2B2B2B2B2B20536D6172E8
:1001AC007420427265616B6572202B2B2B2B2B2BD1
:1001BC002B2B2B2B0D0A0043757272656E7420531A
:1001CC00656E736F722020203A20414353373132D1
:1001DC00454C4354522D3330412D54202825302E7C
:1001EC003166206D562F416D702E290D0A00526517
:1001FC006164204469702D5377697463682045529B
:10020C00524F52210D0A000D0A2B2B2B2B2B2B2B73
:10021C002B2B2B2044656661756C742054797065AA
:10022C00203A20536D61727420537769746368208F
:10023C002B2B2B2B2B2B2B2B2B2B0D0A00437572C3
:10024C0072656E74204D65617375726520203A205D
:10025C003E2025302E326620416D702E0D0A000D89
:10026C000A2D2D2D2D2D2D2D2D20496E6974696192
:10027C006C20436F6D706C657465202D2D2D2D2DAC
:10028C002D2D2D0D0A000D0A2D2D2D2D2D2D2D2D45
:10029C002053746172742050726F6772616D202DDF
:1002AC002D2D2D2D2D2D2D0D0A000D0A2D2D2D2D25
:1002BC002D2D2D2D2049646C65202D2D2D2D2D2DB2
:1002CC002D2D0D0A000D0A2D2D2D2D2D2D2D2D2012
:1002DC00474554204556454E54202D2D2D2D2D2D62
:1002EC002D2D0D0A00636F756E745F696E707574D9
:1002FC00203D2025640D0A000D0A2D2D2D2D2D2DB0
:10030C002D2D20416374697665202D2D2D2D2D2DDD
:10031C002D2D0D0A000025303564202020002530BD
:10032C00325820002563002E000D0A005741524E12
:10033C00494E47203A2055415254302042554646AA
:10034C004552204F564552464C4F572025640D0AB6
:10035C0000007E0004080141496C7E000408015332
:10036C004C577E0004080153485B03000D0A202BF8
:10037C002B2B2B2B2B2B2B2B2B2053656E642041E3
:10038C0049202B2B2B2B2B2B2B2B0D0A000D0A2052
:10039C002B2B2B2B2B2B2B2B2B2B2053656E6420D9
:1003AC005348202B2B2B2B2B2B2B2B0D0A000D0A00
:1003BC00202B2B2B2B2B2B2B2B2B2B2053656E64B9
:1003CC0020534C202B2B2B2B2B2B2B2B0D0A000DC6
:1003DC000A202B2B2B2B2B2B2B2B2B2B20526563FF
:1003EC0072656976652044617461202B2B2B2B2B55
:1003FC002B2B2B0D0A000D0A2D2D2D2D2D2D2D2DDA
:10040C00204A4F494E542053554343455353202DB6
:10041C002D2D2D2D2D2D2D0D0A000D0A2D2D2D2DB3
:10042C002D2D2D2D205245434956452050494E47E0
:10043C00202D2D2D2D2D2D2D2D0D0A000D0A202BAF
:10044C002B2B2B2B2B2B2B2B2B205F6576656E747C
:10045C00203D3D20353130207C7C205F6576656EFB
:10046C0074203D3D20353131202B2B2B2B2B2B2B6E
:10047C002B0D0A000D0A2D2D2D2D2D2D2D2D20523D
:10048C004543495645204556454E54202D2D2D2D7E
:10049C002D2D2D2D0D0A000D0A2D2D2D2D2D2D2D33
:1004AC002D2053454E44204556454E54205355431C
:1004BC0043455353202D2D2D2D2D2D2D2D0D0A0063
:1004CC000D0A2D2D2D2D2D2D2D2D2053454E442037
:1004DC005245504F52542053554343455353202DAE
:1004EC002D2D2D2D2D2D2D0D0A007E0023100100FC
:1004FC0000000000000000FFFE00003000000000C3
:10050C000000000000000000000000007E0001A1BF
:10051C007E002310010000000000000000FFFE0020
:10052C00003000000000000000000000000000008F
:10053C0000007E0001A47E002510010000000000D8
:10054C00000000FFFE000030000000000000000072
:10055C0000000000000000007E0001A501007E00EC
:10056C004810010000000000000000FFFE000030F9
:10057C00000000000000000000000000000000006F
:10058C007E0026A701010000000000000000020010
:10059C00000000000000000300000000000000004C
:1005AC0004000D0A202B2B2B2B2B2B2B2B2B2B2036
:1005BC0053656E64204C4544202B2B2B2B2B2B2B63
:1005CC002B0D0A000D0A202B2B2B2B2B2B2B2B2B23
:1005DC002B2053656E64204A6F696E202B2B2B2BBE
:1005EC002B2B2B2B0D0A000D0A202B2B2B2B2B2B03
:1005FC002B2B2B2B2053656E642050696E67202BA0
:10060C002B2B2B2B2B2B2B0D0A000D0A202B2B2BE2
:10061C002B2B2B2B2B2B2B2053656E6420455645F7
:10062C004E5420524543495645202B2B2B2B2B2B1C
:10063C002B2B0D0A000D0A202B2B2B2B2B2B2B2BB2
:10064C002B2B2053656E64205245504F5254202B57
:10065C002B2B2B2B2B2B2B0D0A000D0A3D3D3D3D3F
:10066C003D3D3D3D3D3D3D3D3D3D3D3D3D3D3D3DAE
:10067C003D3D3D3D3D3D3D3D3D3D3D3D3D3D3D3D9E
:10068C003D3D3D3D3D3D3D3D3D3D3D3D3D3D3D3D8E
:10069C003D3D0D0A005673756D203D2025302E34DE
:1006AC00662020004973756D203D2025302E346660
:1006BC002020005073756D203D2025302E34660DA2
:1006CC000A0056617667203D2025302E34662020A6
:1006DC00200049617667203D2025302E346620208D
:1006EC00200050617667203D2025302E34660D0A9F
:1006FC0000576174742D486F75722053756D203DD1
:10070C002025302E34660D0A004E756D6265722000
:10071C0053616D706C696E67203D2025640D0A0075
:10072C003D3D3D3D3D3D3D3D3D3D3D3D3D3D3D3DED
:10073C003D3D3D3D3D3D3D3D3D3D3D3D3D3D3D3DDD
:10074C003D3D3D3D3D3D3D3D3D3D3D3D3D3D3D3DCD
:10075C003D3D3D3D3D3D0D0A0D0A004375727265F0
:10076C006E7420457863656564202D2D535749546C
:10077C004348204F4646210D0A004000050000402A
:10078C001C45414443203D2025640D0A00566F6CE6
:10079C0074203D2025660D0A000001002D4E414EAF
:1007AC0000494E4600002D4E414E00000100020053
:1007BC008C000400000D8E000D00DF089200040078
:1007CC000800A000080014095E0308001C09660359
:1007DC00080024096E0301009308760326002E09F5
:1007EC00F604260055091C0527007C094205430028
:1007FC00A5096A050100110A86070100DE088807B1
:10080C00040040088A070100120AA6070000F894A9
:10081C00EE27ECBBF1E0F5BFE5BFE0936C00F8E12F
:10082C00F1BDE1BD8DE0A2E0BB27ED938A95E9F720
:10083C0080E090E1A0E0B1E0ED930197E9F7E8EBFF
:10084C00F7E085919591009761F0A591B591059090
:10085C001590BF01F00105900D920197E1F7FB0196
:10086C00F0CF8BBFEFEFEDBFECE0EEBFC0E0D6E01A
:10087C000C9487040E940916E091D308F091D408D7
:10088C000E940E16AE0FBF1F0D911C91E4EAF0E012
:10089C00FA93EA93F8010E941316002E012A21F014
:1008AC00A3EDB8E00E941C16E1EBF0E0FA93EA939A
:1008BC00E091D308F091D4080E941316A091D308AC
:1008CC00B091D4085E9729F4E0E0E093D308E0936C
:1008DC00D408D8010E94880A099119910895BA93F5
:1008EC00AA930E9422160E940E16EA0FFB1FA881E3
:1008FC00B981A083B183A1EDB8E00E941C160C94C1
:10090C001709662477240E942716A0919208AF3FFE
:10091C0039F40E942F16A0E00E94680E0E94271640
:10092C000E94050B5E2E5520D9F70E943B0B4E2ED4
:10093C00EFE0E41531F50E9435160E9446164CF492
:10094C00DF01CB01EFE8F2EC65EF7DE30E94A81B21
:10095C0008F005C0A0E0B0E00E94E11C04C0ECEE81
:10096C00F1E568EB7DE3E0933208F0933308609394
:10097C00340870933508E2E1E093E708E4ECF0E02A
:10098C0081C0EEE0E41591F5E0E0F0E068EC72E493
:10099C000E944B16A4E0B0E00E94E11C0E94461697
:1009AC004CF4DF01CB01E9E2FCE56FE07EE30E9451
:1009BC00A81B08F005C0A4E0B0E00E94E11C04C034
:1009CC00EEEAF7E461EE7DE3E0933208F09333084E
:1009DC006093340870933508E1E1E093E708EFE3A6
:1009EC00F1E00E945416E4E6F1E05BC0EDE0E415A2
:1009FC0091F5E0E0F0E064E872E40E944B16A8E0A8
:100A0C00B0E00E94E11C0E9446164CF4DF01CB01C1
:100A1C00EAE9F9E969E17EE30E94A81B08F005C048
:100A2C00A8E0B0E00E94E11C04C0EFE8F2EC65EF36
:100A3C007DE3E0933208F0933308609334087093AD
:100A4C003508E3E1E093E708EBE9F1E00E94541686
:100A5C00E3ECF1E026C0E0E04E162CF4EAEFF1E016
:100A6C000E94691624C00E943516E0933208F09358
:100A7C0033086093340870933508E2E1E093E7089B
:100A8C00E3E1F2E0FA93EA9380E0FED02296EBEEFB
:100A9C00F0E0FA93EA930E9470160E947516E8E053
:100AAC00F1E0FA93EA930E947C160E947516E0E03E
:100ABC004E160CF43ACFE9E4F2E0FA93EA930E9472
:100ACC0085160E9475167894EBE6F2E00E94691682
:100ADC00A8E8B3E10E94F819E2E9F2E00E94691675
:100AEC000E94440AD401EFE6F0E00E94761C309795
:100AFC0029F4EFE6F0E08E169F060CF41BC0D5012E
:100B0C00E2E0F0E00E94761C309721F40E948E16F1
:100B1C00E1E003C00E948E16E0E0E0931109ECEED8
:100B2C00F8E0FA93EA93A6E2B0E00E944709F501D7
:100B3C0031965F01E0912A06F0912B063097B9F4BB
:100B4C000E949A160E949D16A0919208A13071F4F1
:100B5C000E94A3160E94A7160E942F160E94AE1682
:100B6C00E1E0F0E03F01AFEFB1E0B9DE8BC0E13086
:100B7C00A0E0FA0729F40E94B2160E949D1682C0CA
:100B8C00E230A0E0FA0729F40E94B5160E949D16E7
:100B9C0079C0E330A0E0FA0711F00C941D06E6EBE7
:100BAC00F2E00E9469160E94B81629F463DEE1EDAA
:100BBC00F2E00E946916E1E0F0E0E615F70599F421
:100BCC00A0919208A13019F4E4E0F0E006C0E091A5
:100BDC009208E03031F4E3E0F0E0E0932A06F09381
:100BEC002B0666247724989921C00E94C216E091A6
:100BFC009208E03071F40E94A716E1E00E94C6163C
:100C0C000E94AE160E94C9160E94D016AFEFB1E03A
:100C1C000CC0A0919208A13049F40E94D6160E94F3
:100C2C00AE160E94DE16AEEFB1E059DE2BC0E430FA
:100C3C00A0E0FA0739F5E4E0F3E00E9469160E949F
:100C4C00810E0E94F70E0E94B81629F4E1EDF2E035
:100C5C000E9469160FDEA0913008B0913108A83EB1
:100C6C00E3E0BE0711F40E94010D98990BC00E949D
:100C7C00C2160E94D6160E94AE160E94DE16AEEF69
:100C8C00B1E02DDE2DCFFFCFFF92F82ED1501A936D
:100C9C000A93DE01A250BF4F0E94FF1B8D010E94E0
:100CAC00E516DE01AC5FBE4F0E94FF1B0E94A21C2A
:100CBC00FA93EA93D8010E94F513E0E0EA93DE017F
:100CCC0013960E945508198108812296DF5FFF90C8
:100CDC0008950E94EA16EA83E0E0EB830E94081D67
:100CEC000A851B8520E130E0EC85FD85EE83FF83D2
:100CFC00AA85BB850E94F91C84F52A173B074CF08A
:100D0C000E94EF16EC85FD85FA93EA930E94F41687
:100D1C0024C0F801D9010E94761CAF010E94EF1685
:100D2C005A934A930E94F416041B150BFA01AE81D8
:100D3C00BF81EA0FFB1FEE83FF83F9010E94F816B7
:100D4C00E887F987201731073CF00E94EF161A93B9
:100D5C000A930E94F41601C0DCCF0E940F1D2E9640
:100D6C000895BA93AA930E94081DE2E2F3E0FA9365
:100D7C00EA93E885F9850E9413164A855B8500E0A5
:100D8C0010E0E885F9850E171F0794F4EAE2F3E00A
:100D9C000E94FD164F5F5F4FE7E0F0E0E017F107B0
:100DAC0021F4E8E2F3E00E9469160F5F1F4FE9CFD0
:100DBC00A885B985189724F4E8E2F3E00E94691637
:100DCC00A885B98550979CF4A885B985E0E1F0E039
:100DDC00EA1BFB0B9F0100E010E0021713073CF429
:100DEC00E6E2F3E00E9469160F5F1F4FF6CFE6E2D2
:100DFC00F3E00E9469164A855B8500E010E0E88507
:100E0C00F9850E171F07A4F4DA01AC910E940016A5
:100E1C00E03029F0E0E3F3E00E94FD1604C0E3E3C8
:100E2C00F3E00E9469164F5F5F4F0F5F1F4FE7CFD4
:100E3C00E5E3F3E00E9469160E940F1D2C960895BD
:100E4C00AA93EA93EFB7EA93E7EDE2BFA09100060D
:100E5C00A13019F4E1E0E093DC083EC06A937A9388
:100E6C00AA93BA93EA93FA93EFB7EA93E7E5EDBD49
:100E7C00E0E4ECBDA5EDB8E00E94AC1CEF5FFF4FC9
:100E8C006F4F7F4F0E94B61CE991EFBFF991E9912A
:100E9C00B991A991799169911895AA93EA93EFB7B1
:100EAC00EA930E940517E091DA08E03029F0E0910E
:100EBC00D908EF5FE093D908A0910006A13019F48E
:100ECC00E1E0E093DB08E091DD08E03029F09F9B46
:100EDC0002C0AF9801C0AF9AE991EFBFE991A99117
:100EEC001895E0E0E0BFE6E0E3BFE7EDE2BFE0E04D
:100EFC00E1BFEFBDE4E0EEBDE7E5EDBDE0E4ECBD48
:100F0C00E0E0E7BDE6BDEBBDEABDE9BDE8BDE093C1
:100F1C007900E0937800E5BDE4BDE3BDE0938B0080
:100F2C00E4E0E0938A000E940517E0E0E093810082
:100F3C00E0938000E0938700E0938600E0938500C7
:100F4C00E0938400E0938300E0938200EFE1E1BD45
:100F5C00EFE0E1BDE0E0E7BFE7BFE0937D0008957F
:100F6C00BA93AA93E881F981309721F4E7B7E1604D
:100F7C00E7BF15C0E130A0E0FA0721F4E7B7E46061
:100F8C00E7BF0DC0E230A0E0FA0749F0E330A0E083
:100F9C00FA0729F4E0917D00E460E0937D007894F9
:100FAC000C9417090E940C171BB10CB1E12FEC71BA
:100FBC0029F5A02F24D0043219F4E0E0E0931209B3
:100FCC00E0911209EF5FE0931209E150F0E0E65F67
:100FDC00F94F0083A0911209A03218F0E0E0E093E1
:100FEC001209033259F4E0911209E150E09313090C
:100FFC00E0E0E0931209E1E0E093090636C0AA9321
:10100C005D9BFECFE881ECB948C00E940C17109193
:10101C009B0000919C00E12FEC7139F5F6013196A3
:10102C006F013197E05DF94F0083E0E0F2E0EC15E1
:10103C00FD0511F4CC24DD24AEE2B6E00E941C16B2
:10104C00E030A2E0FA0789F4E8E3F3E0FA93EA93DC
:10105C00E0912E06F0912F060E941C17E0E0E09321
:10106C002E06E0932F06689420F809911991E991C6
:10107C00EFBFF991E991B991A991999189917991E0
:10108C006991F990199009901895AA93E0919B0099
:10109C00E072E1F3E881E0939C0021960895BA9305
:1010AC00AA931A9310E0EB81F0E0309761F40E9460
:1010BC001F17EC91E03031F00E941F17AC919FDFAD
:1010CC001F5FF5CF0FC0E130A0E0FA0759F40E9482
:1010DC001F17EC91E03031F00E941F17AC91D5DF57
:1010EC001F5FF5CF1881CBC00E94CF1CEC81F0E0C4
:1010FC00309771F5E0E0EBB9E8E9EAB9E6E0E093A6
:10110C009500E0E0E09390000E94251711F4EFE1C8
:10111C001DC00E942F17C9F00E94371711F4EFE27F
:10112C0015C00E943F1711F4E3E210C00E9447174C
:10113C0011F4E1E10BC00E944F1711F4EBE006C073
:10114C000E94571711F4E5E001C0E7E4E9B934C097
:10115C00E130A0E0FA0781F5E0E0E0939B00E8E9DC
:10116C00E0939A00E6E0E0939D00E0E0E0939800C5
:10117C000E94251711F4EFE11DC00E942F17C9F032
:10118C000E94371711F4EFE215C00E943F1711F4BB
:10119C00E3E210C00E94471711F4E1E10BC00E947A
:1011AC004F1711F4EBE006C00E94571711F4E5E05D
:1011BC0001C0E7E4E093990025960895BA93AA93A9
:1011CC00E881F981309759F4E8E7F3E00E94691659
:1011DC00E4E1F9E00E945F17E4E1F9E01DC0E130C1
:1011EC00A0E0FA0759F4E9E9F3E00E946916E4E299
:1011FC00F9E00E945F17E4E2F9E00EC0E230A0E0F3
:10120C00FA0779F4EAEBF3E00E946916ECE1F9E0F5
:10121C000E945F17ECE1F9E0FA93EA930E946517DC
:10122C0018D122960895BA93AA930E940A1D30E011
:10123C0000E010E0EC81FD810E171F0754F4F8015B
:10124C00AE81BF81AE0FBF1FEC913E0F0F5F1F4FE2
:10125C00F1CFE32FF0E0F070AFEFB0E00E94DA1CBA
:10126C00EA1BFB0B0E94111D0C94B70BBA93AA93AB
:10127C00EA81FB81FA93EA93AA81BB81EAD0249696
:10128C000895BA93AA931A930A9303E010E0AA81E3
:10129C00BB81169708F4EEC0EBEDF3E00E946916E3
:1012AC00EC81FD81FA93EA93AC81BD810E946F06BB
:1012BC000E94681701D0DEC0BA93AA931A93A98131
:1012CC00BA811C91E12FF0E0E838A0E0FA0791F523
:1012DC000E946E17A13421F40E947317A93409F0EF
:1012EC0003C0E1E0F0E021C00E946E17A33521F4A9
:1012FC000E947317A83409F007C00E9478170E9447
:10130C007D17E2E0F0E011C00E946E17A33521F4C6
:10131C000E947317AC3409F00CC0E6E8F8E0FA93BD
:10132C00EA930E947D17E3E0F0E0E0932A06F09345
:10133C002B066EC0E039A0E0FA0711F00C940E0AEF
:10134C000E948617A23A59F40E948B170E94951797
:10135C00AE0FBF1FE2E0F0E0ED93FC9359C00E948A
:10136C008617A33A49F40E948B170E949517AE0F6B
:10137C00BF1FE3E0F0E046C00E948617A53AF9F4DF
:10138C000E948B170E942014A981BA819296AC916D
:10139C00A13039F40E949917AE0FBF1FEFEFF1E0A7
:1013AC000BC0E981FA81E2A1E03041F40E94991767
:1013BC00AE0FBF1FEEEFF1E0ED93FC9325C00E9442
:1013CC008617A63A99F4E981FA81E1A1E0932C09F8
:1013DC00E981FA81E2A1E0932D090E948B170E940A
:1013EC009517AE0FBF1FE6E0F0E00CC00E94861709
:1013FC00A83A71F40E948B170E949517AE0FBF1F6D
:10140C00E8E0F0E0ED93FC93A1EDB8E00E941C162F
:10141C000E94221631970E940E16AE0FBF1F0E941B
:10142C00A21C309741F00E949917AE0FBF1F0E946B
:10143C00A21CDF0167D0A091D108B091D2085E97B1
:10144C0029F4E0E0E093D108E093D20818810C94E1
:10145C00730EBA93AA930E940916EA81FB810E17A8
:10146C001F0738F40E946817AC910FDE0F5F1F4FF7
:10147C00F4CFF8011981088126960895D1500E9465
:10148C00081D20E030E040E050E00E94A316A0913F
:10149C002E06B0912F060E94F91C48F5ACE2B6E07E
:1014AC000E941C163197E05DF94F1081FA014F5FD5
:1014BC005F4FDE011696EA0FFB1F10832F5F3F4F25
:1014CC00A0912C06B0912D06A030E2E0BE0729F4C5
:1014DC00E0E0E0932C06E0932D06F894AEE2B6E043
:1014EC00ED91FD913197FE93EE937894D0CFFE0160
:1014FC003696FA93EA93D901C4DE0E940F1D269604
:10150C00DF5F0895BA93AA93A881B981129729F441
:10151C000E94C916E2E0F4E06AC0A881B981139771
:10152C0039F4E6E2F4E00E9469160E94310C65C0C1
:10153C00A881B981AE3FE1E0BE0729F0AF3FE1E001
:10154C00BE0709F042C0E8E4F4E00E946916A881E5
:10155C00B981AF3FE1E0BE07A1F4E1E0E0932D09D2
:10156C000E94C916E1E00E94C6160E94AE16AF9802
:10157C00E0916500E460E0936500E1E0EA93A1E0AE
:10158C0019C0A881B981AE3FE1E0BE07A9F4E0E043
:10159C00E0932D09E3E0F0E0E0932A06F0932B06AC
:1015AC00E0E00E94C6160E94AE160E949B17E1E076
:1015BC00EA93A0E00E94120CE1E0EA93A0912D09BD
:1015CC000E945F0CE0E8F4E012C0A881B981169784
:1015DC0041F4E0E0E0939308E0939408E3EAF4E04C
:1015EC0006C0A881B981189741F4ECECF4E0FA93A9
:1015FC00EA9380E00E944A0622960C947F0E1AD041
:10160C00E0E00E94A217E1E00E94A2170E94770777
:10161C000E949A160E94B6070E94B2160E94B60744
:10162C00A3E0B0E00E94B607A0E40E94440EE0E004
:10163C00F0E00895A098A89AD798D698D598D49801
:10164C00A79AE0916400E460E0936400129AE09140
:10165C006400E860E09364000E949B171A9AE09182
:10166C006500E77FE093650008951A930A930E9442
:10167C00A9171E2F0E94A3160E94A9170E2F01173F
:10168C0011F4E12F01C0EFEF099119910895BA936C
:10169C00AA930E94081D00E010E0EE81FF813197B3
:1016AC009F0102171307DCF4F801A885B985AE0F6A
:1016BC00BF1F4C9155270E94F8160F01F901A88500
:1016CC00B985AE0FBF1FEC91D001EC93F9010E94CC
:1016DC00F81640830F5F1F4F21503040E2CF0E941D
:1016EC000F1D2A960895BA93AA930E940916EE81AB
:1016FC00FF813097D1F0F8010F5F1F4FAC81BD8196
:10170C00EA0FFB1FBF01AE81BF81EAE0F0E00E944F
:10171C00761CE05DDB01EC93AE81BF81EAE0F0E08A
:10172C000E94401CEE83FF83E2CFEA81FB810E17FF
:10173C001F0754F4F8010F5F1F4FAC81BD81AE0F32
:10174C00BF1FE0E3EC93F1CFEC81FD81FA93EA93B8
:10175C00D8019DDF0E946817E0E0EC93F801198135
:10176C00088128960895BA93AA9324970E940A1D7B
:10177C000E94C3170E94541A8F01F8010E94C817C7
:10178C000E94CD170E94D2170E94D7171A930A9362
:10179C00EC85FD85FA93EA930E949A16A4DF9F01CB
:1017AC00002E012A49F4F901AA85BB85AE0FBF1F93
:1017BC00E0E3EC932F5F3F4FE885F985309741F1DB
:1017CC00F901AA85BB85AE0FBF1FEEE2EC930E9418
:1017DC00DC170E94CA1CEC85FD850E94C817DF012E
:1017EC00CB010E94B0150E94E1170E94E6170E94DF
:1017FC00E9170E94541AFA93EA93F901AC85BD8556
:10180C00EA0FFB1F3196FA93EA93AC85BD856BDF2B
:10181C000E94111D609608950E94EE170E94F81701
:10182C000E9465170E94FF170E940A180E94B216A8
:10183C000E942014E5EA0E941118EEEAF5E00E94DD
:10184C0069160E9422180E946F060E9422180E949C
:10185C003C090C947F0EEAE5F9E00E9429180E94DD
:10186C002014E7E6F9E0FA93EA930E9478170E94B5
:10187C0065170E942014EFE6F9E00E9429180E94D7
:10188C002014E8E5F9E0FA93EA93A0915709B0E047
:10189C000E941909E0937B09E3EFF5E00E946916B9
:1018AC000E9430180E946F060E9430180E943C095A
:1018BC0008950E94EE170E94F8170E9465170E9467
:1018CC00FF170E940A180E94B2160E942014E6EA22
:1018DC000E941118E6E1F6E00E9469160E94221897
:1018EC000E946F060E9422180E943C090C947F0EE5
:1018FC000E94CF1CEAEAF9E00E9429180E942014E9
:10190C00E7EBF9E0FA93EA930E9478170E946517C7
:10191C000E942014EFEBF9E00E9429180E94201479
:10192C000E94C3170E94CA1CE1EFF9E00E9437180D
:10193C001ADF0E943A180E94CA1CE9EFF9E00E94D3
:10194C00371811DF0E94E9170E94CA1CE1E0FAE087
:10195C000E94371808DF0E943F180E94CA1CE9E059
:10196C00FAE00E943718FFDEE7EAE093CA09E8893B
:10197C00E093CB09EDECF9E0FA93EA93E1EFF9E0AF
:10198C000E9442180E942014E6EDF9E0FA93EA93C3
:10199C00E9EFF9E00E9442180E942014EFEDF9E003
:1019AC00FA93EA93E1E0FAE00E9442180E942014B4
:1019BC00E8EEF9E0FA93EA93E9E0FAE00E944218C3
:1019CC000E942014E8EAF9E0FA93EA93A091A7099F
:1019DC00B0E00E941909E093F009E1E4F6E00E94FE
:1019EC0069160E9445180E946F060E9445180E94B5
:1019FC003C09619608950E944C180E9451180E944F
:101A0C005A18E0937408F0937508609376087093F5
:101A1C0077080E944C180E9461180E945A180E9464
:101A2C006A180E944C180E9473180E945A18E0936E
:101A3C007C08F0937D0860937E0870937F080E9469
:101A4C007C18E0930106F0930206609303067093F2
:101A5C0004060E948518E0930506F0930606609331
:101A6C00070670930806E6E6F6E00E946916E1EABE
:101A7C00F6E0FA93EA93E0916408F09165086091BE
:101A8C006608709167080E947516E0EBF6E0FA9311
:101A9C00EA93E0916808F091690860916A08709186
:101AAC006B080E947516EFEBF6E0FA93EA93E0915F
:101ABC006C08F0916D0860916E0870916F080E942F
:101ACC007516EEECF6E0FA93EA930E947C180E94ED
:101ADC007516EEEDF6E0FA93EA930E9485180E94D3
:101AEC007516EEEEF6E0FA93EA930E948E180E94B9
:101AFC007516EDEFF6E0FA93EA93E0917008F09129
:101B0C00710860917208709173080E947516E5E176
:101B1C00F7E0FA93EA930E944C180E941C17ECE22F
:101B2C00F7E00E9469160E9497180E94151B0E94EC
:101B3C006A18E1E0EA930E947C180E94CA1C0E9479
:101B4C0085180E94CA1C0E948E180E94CA1C0E94F2
:101B5C00A418CEDE0E9497180E94631B0E946A187C
:101B6C000E94AD18A030E0E0BE07E9E38E07E3E485
:101B7C009E0769F40E94B618EDECFCEC6CE970E47D
:101B8C000E94A81B09F010F40C94CD0D01C001C0EB
:101B9C0031C00E94AD18A030E0E0BE07E8EC8E0723
:101BAC00E2E49E0769F40E94B618E3E3F3E36FE9FD
:101BBC0071E40E94A81B09F010F40C94E60D01C00E
:101BCC0001C018C00E94AD18A030E0E0BE07E4E8E8
:101BDC008E07E2E49E0769F40E94B618E3E3F3E390
:101BEC006FEE71E40E94A81B09F010F40C94FF0D29
:101BFC0001C01EC0E0E0E0930006E0916500EB7FC1
:101C0C00E0936500AF9AE0E0E0930106E0930206F2
:101C1C00E0930306E0930406E0930506E0930606C2
:101C2C00E0930706E0930806E7E6F7E00E946916E2
:101C3C00E0E0E0933008E0933108E0936408E0932F
:101C4C006508E0936608E0936708E0936808E09302
:101C5C006908E0936A08E0936B08E0936C08E093E2
:101C6C006D08E0936E08E0936F08E0937008E093C2
:101C7C007108E0937208E09373080895AA93E881C1
:101C8C00E093110AE7B9E4EAE6B921960895AA931C
:101C9C000E940916EA81A091110AEA2BE7B988EB98
:101CAC008A95F1F7379A369A349BFECF04B11127F7
:101CBC00E5B1FE2FE0E00E2B1F2B349AF8011981B1
:101CCC0008810BC0AA93E199FECFE981FA81FFBB91
:101CDC00EEBBE881EDBBE29AE19A23960895BA93A4
:101CEC00AA93E199FECFE881F981FFBBEEBBE09AA4
:101CFC00EDB322960895A1E00E94BF18EEE8F7E03C
:101D0C00FA93EA930E94C6180E941C170E94CB18E3
:101D1C00AAE1B7E68CE990E40E94151BE093440815
:101D2C00F093450860934608709347080E94D118B9
:101D3C00A0E0B0E889EF93E40E94151B0E94DA182A
:101D4C000E94E318E0E0F0E06AEF73E40E94631B8A
:101D5C00E0934008F0934108609342087093430865
:101D6C000E94E81809F010F40C94CD0EA0914008D4
:101D7C00B09141088091420890914308E091440849
:101D8C00F0914508609146087091470807C00E9481
:101D9C00E81820F50E94DA180E94D1180E94BE1A89
:101DAC00E0934C08F0934D0860934E0870934F08E5
:101DBC00A0914C08B0914D0880914E0890914F081D
:101DCC000E94151B0E94ED180E94C51AE0933C0856
:101DDC00F0933D0860933E0870933F08A0E8B8E08C
:101DEC000AC1A0E00E94BF180E94CB18A0E0B0E08E
:101DFC0080EA90E40E94F618E0E0F0EC6FE774E4FF
:101E0C000E94631BDF01CB01EAE0F7ED63E27CE3A8
:101E1C000E94631BE0935408F09355086093560896
:101E2C00709357080E94FB18E0E0F0E06FE573E454
:101E3C000E94A81B48F40E940419A0E0B0E080E1C5
:101E4C0091E40E94C51A14C00E94FB18E0E0F0E077
:101E5C0069E673E40E94A81B09F010F40C94460F79
:101E6C000E940419A0E0B0E080E890E40E94BE1A41
:101E7C00E0935408F09355086093560870935708F4
:101E8C00E9E9F7E0FA93EA930E9404190E947516A7
:101E9C000E9404190E9451180E94C51AE09364080C
:101EAC00F09365086093660870936708E09180086A
:101EBC00F09181080E94ED180E945A18E093500886
:101ECC00F09351086093520870935308A0915008F6
:101EDC00B091510880915208909153080E94C81BF0
:101EEC00E0934808F093490860934A0870934B08B4
:101EFC000E947C16A0914808B091490880914A082C
:101F0C0090914B080E94631BE0935808F09359087A
:101F1C0060935A0870935B080E948516A09158082C
:101F2C00B091590880915A0890915B080E94A81BA7
:101F3C0048F4E0E0E0935808E0935908E0935A081D
:101F4C00E0935B08E0E0E0933C08E0933D08E0930D
:101F5C003E08E0933F08E0938008E09381080E94DC
:101F6C000D190E9461180E94C51AE0936808F0933D
:101F7C00690860936A0870936B080E940D190E949F
:101F8C00FB180E94151BE0935C08F0935D086093AE
:101F9C005E0870935F080E9473180E94C51AE09344
:101FAC006C08F0936D0860936E0870936F08A091A5
:101FBC005C08B0915D0880915E0890915F08E4EB3D
:101FCC00F2EA61E179E30E94151BE0936008F0935B
:101FDC00610860936208709363080E94A4180E94C1
:101FEC00C51AE0937008F0937108609372087093AF
:101FFC007308A0E3B8E0ED91FD913196FE93EE935A
:10200C0008950E94EA16E883E0E0E983EA83EFE3AF
:10201C00EB831A930A93EB85FC85EF3FAFEFFA073E
:10202C0039F40E94EF16A8EAB7E00E943214A5C05A
:10203C00EF3FAFE7FA0739F40E94EF16A9EAB7E0D1
:10204C000E9432149AC0AC85AA2362F4E985FA8501
:10205C006B857C850E941F1A0E9416190E941B1901
:10206C00EDE2EC93A885A73010F0E6E0E887188540
:10207C00E12F1150E03039F00E9422190E942719EB
:10208C000E942E19F5CF0E9433190E94C51A0E9486
:10209C00161910E00E9470160E942E190E94331916
:1020AC000E94A81B88F00E9422190E943C190E94D1
:1020BC002E191F5F173238F00E94EF16ADEAB7E009
:1020CC000E9432145AC0EACF103029F40E941B1916
:1020DC00E0E3EC9328C0E12F1150E03021F10E9495
:1020EC0022190E9427190E9440190E94E3180E948D
:1020FC0089140E942E190E9433190E94631B0E949E
:10210C00521A0E2F0E941B190E9445190E94221967
:10211C000E94C8170E94151B0E944B190E94D217CF
:10212C000E941619D8CFE885E03019F10E941B19CE
:10213C00EEE2EC93E885E150E887EF5FD1F00E9486
:10214C004B190E943C190E941619E985FA856B857A
:10215C007C850E94521A0E2F0E941B190E94451951
:10216C000E944B190E94C8170E94D2170E94161980
:10217C00E1CFAE81BF81E0E0EC93198108812D960F
:10218C000895BA93AA931A930A93AA81BB811296C3
:10219C000E94A21C309729F1AA81BB8114960E943F
:1021AC00A21C8F01309761F00230E0E01E07C0F0F6
:1021BC00F80131978F01AA81BB811496ED93FC93A2
:1021CC00AA81BB8112960E941C163197AC81A08308
:1021DC00AA81BB810E94A21CFF2312F00E941C1634
:1021EC0006C0AA81BB81EFEFFFEFED93FC93198141
:1021FC000881259608950E94EA16E883E0E0E983B9
:10220C00E0E8EA83EFE3EB830E940A1DEE85FF858D
:10221C00EF3FAFEFFA0749F4E885F985FA93EA93B3
:10222C00A2EBB7E00E943214BAC0EF3FAFE7FA0757
:10223C0049F4E885F985FA93EA93A3EBB7E00E9499
:10224C003214ADC0AB85A73010F0E6E0EB871B85F0
:10225C00E12F1150E03019F00E945019F9CF0E9473
:10226C00C3170E94F51C21F430E00E94501934C0B1
:10227C003B850E94531909F010F40C9453110E94E1
:10228C0050190E94531940F00E94CD170E94271933
:10229C000E9458193F5FF5CF0DC00E94531940F4AE
:1022AC000E94CD170E943C190E9458193150F5CF4D
:1022BC000E9450190E94C3170E9440190E94C51A0F
:1022CC000E9458190E94531938F00E94CD170E9491
:1022DC0027190E9458193F5F10E0EB85E11798F120
:1022EC000E94E1170E9427190E9440190E94E318CE
:1022FC000E9489140E94D7170E94E9170E94CD17DB
:10230C000E94631B0E94521A0E2F0E945D19E02F2F
:10231C00E05DEC93E02FFF27662777270E948B1A4E
:10232C000E94E1170E94151B0E94CD170E94D21724
:10233C000E945819E12F1F5FE03079F60E945D1959
:10234C00EEE2EC93CACF0E9464193197AA85A08360
:10235C0030302CF43195A885B985EDE203C0A88501
:10236C00B985EBE2EC930E9464190E9464193197D1
:10237C00BF01A32FEAE00E94281CE05DDB01EC9377
:10238C000E9464193197BF01A32FEAE00E946A1CD6
:10239C00E05DDB01EC93A885B985E0E0EC930E944D
:1023AC00111D60960895BA93AA93EF9761970E94B6
:1023BC00081D10E0FE01E85AFF4F0190F081E02D5E
:1023CC00E887F987FE01EA5AFF4F0190F081E02D72
:1023DC00EE83FF83AE81BF81E0E0F0E0ED93FC93F0
:1023EC00DE01A45ABF4F0E941C163197E4912E2F88
:1023FC00E03011F40C94EC13E12FE03039F4253279
:10240C0011F411E002C00E946A19DFC1E130C1F47D
:10241C00253219F40E946A19D7C112E0E0E0ED8B65
:10242C0000E02D3211F401E0D0C12B3219F4EBE2B3
:10243C00ED8BCBC1203219F4E0E2ED8BC6C102C0AA
:10244C00E23039F450E013E0203311F40068BDC1E0
:10245C0002C0E33091F4203310F02A3308F007C0A7
:10246C00AAE05A9F502DE22FE0535E0FAEC140E020
:10247C002E3211F414E0A9C10FC0E43099F42033CA
:10248C0010F02A3308F008C00062AAE04A9F402DE1
:10249C00E22FE0534E0F99C12C3619F4026015E06F
:1024AC0094C104C0E53011F00C94EB13E22FE33629
:1024BC0059F40E9471190E9478190E947119A48113
:1024CC00AA930E947F1980C1E53411F0E53609F416
:1024DC0004C0E63611F00C94B912FE017696EE8724
:1024EC00FF870E9485190E94A61C0E948C190E94CD
:1024FC009119AD85AA2322F0AD89AB3249F017C0F2
:10250C000E9493190E941F1A0E948C19EDE2ED8B08
:10251C0007FF05C0ED89EA930E947F1908C0EE857C
:10252C00FF853196EE87FF873197AD89A08305FF34
:10253C0046E0263651F40E9493190E94CA1C4A9315
:10254C00AB89BC890E94071009C00E9493190E9494
:10255C00CA1C4A932A93AC89BD894DDEFE0176963E
:10256C000E9498191EC0E33739F40E9491190E94F9
:10257C00A0190E9498190EC0E037C1F40E9491195D
:10258C000E94A019EE87FF87AE85BF850E944B1471
:10259C001E2F08600F77403011F0411708F001C072
:1025AC00142F40E0E0E0EC8B30E06EC0E43611F02C
:1025BC00E93611F4046002C0E537A1F4EAE0EC8BD3
:1025CC0001FF08C0E0E0FAEC6AE97BE30E94A51980
:1025DC001AE023C0E0E1F7E260E070E00E94A51988
:1025EC0015E01BC0E83511F4086004C0E83711F0A1
:1025FC000C94EA13E0E1EC8B01FF08C0E0E0F0E0A2
:10260C0060E070E10E94A51918E007C0E0E0F0E17D
:10261C0060E070E00E94A51914E0403011F00F77D3
:10262C0001C041E001FF08C00E9491190E94851968
:10263C0014960E94A61C0FC002FF07C00E9491199D
:10264C000E94A0190E94151C06C00E9491190E949C
:10265C00A01966277727EA87FB876C877D8702FF9F
:10266C0012C0AD85AA2342F40E9493190E94071C44
:10267C000E948C19EDE2ED8BED89E03019F01F5FB3
:10268C004F5F01C00B7F342F00FD14C0151710F4E1
:10269C00351708F00FC007FF08C002FF04C00B7FFE
:1026AC002D89115001C020E301C020E20E946A195B
:1026BC005150ECCF141790F4006102FF06C00E9439
:1026CC00AA1909F0515011504150E0E3EA930E94CD
:1026DC007F19503009F051504150ECCF312FEC891B
:1026EC00E030B9F43030A1F003FF06C0EE85FF8571
:1026FC002591EE87FF8705C0AE85BF852D91AE87EE
:10270C00BF870E946A19503009F051503150EACFFE
:10271C0051C00E94BC190E94451C2E2F2A3030F04B
:10272C0003FF02C0295C01C0295A01C0205D04FDD1
:10273C0021C0213360F4A889B9898A899B89A13089
:10274C00E0E0BE07E0E08E07E0E09E0709F40BC076
:10275C00431740F4531710F000FF01C010C020E2E3
:10276C0007FF08C020E3006102FF04C00E94AA1901
:10277C0009F051500E946A19503009F051503150F3
:10278C000E94BC190E94841C0E948C19EC89A88997
:10279C00B9898A899B89FF27662777270E94451C60
:1027AC000E94A519E889F9896A897B890E94F51C20
:1027BC0009F0AFCF00FF08C0503031F05150E0E2CB
:1027CC00EA930E947F19F8CF10E00ACEAE81BF8148
:1027DC000E94A21C0E940F1DEF966F960895BA934B
:1027EC00AA9326971A930A93EC85FD85309721F4CA
:1027FC00EFEFFFEF0C94AC15EC85FD85EC83FD83BE
:10280C00E0E0EE83EF83EA85FB85FA93EA93EA85B1
:10281C00FB85FA93EA93E7ECF0E1FA93EA93DE0195
:10282C001896C1DD8F01AC81BD81E0E0EC93F8011D
:10283C000C94AC15BA93AA9399818881009641F0B7
:10284C00BD81AC81FB81EA8161916D930197E1F7C8
:10285C00FD81EC8126960895BA93AA93E991F9919A
:10286C00A991B991CD0105900D920020E1F7FC01E1
:10287C000895BA93AA93A991B991EE27FF276D9168
:10288C00662311F03196FBCF0895BA93AA93AA2729
:10289C00BB27E991F9910590002011F01196FBCF1F
:1028AC00FD0108950E94CF1C7B816A81F981E8812A
:1028BC0077FB770F67FD7160972F9E5781F078F04B
:1028CC00983190F4AA27BB27882708948795B79549
:1028DC00A7959A95D1F7EA23FB23682305C0E894C2
:1028EC007727EE27FF2766276F77769508F46068C1
:1028FC0077F9A991B99189919991EA17FB07680722
:10290C00790797FB08950E94CF1C0E94C01C0E945F
:10291C0058140E94C51C19F40E943F1805C0E6F714
:10292C000E943F180E94C519249608950E94CF1C3E
:10293C0024971A930A930E94CC190E94FD1C2CF028
:10294C00EFEFFFEF6FE77FEF71C00E94D1190E948C
:10295C00CA1CADB7BEB711971F930F930E94021AF2
:10296C000F911F910E94D6190E94CC19E3EFF4E04D
:10297C0065E37FE30E94A81B40F40E94DB190E94D0
:10298C00C51A0E94D619015010400E94D1190E94FC
:10299C00C5197F936F93FF93EF930E94D119A0E019
:1029AC00B0E080E89FE30E94C51AAF91BF918F9170
:1029BC009F910E94631B0E94D6190E94DB190E94F2
:1029CC00DD19A6E2B2E485E69FE30E94F618EEE478
:1029DC00F1E164E570E40E94D2170E94CC190E94C8
:1029EC00151B7F936F93FF93EF930E94E519ADE452
:1029FC00B1E184ED9FE30E94BE1AAF91BF918F911C
:102A0C009F910E94631B7F936F93FF93EF93F80149
:102A1C000E94C817A8E1B2E781E39FE30E94151B4F
:102A2C00AF91BF918F919F910E94C51A1981088116
:102A3C002A9608950E94CF1C28971A930A930E94F5
:102A4C00EA19E0E5FCEA6EEA72EC0E94A81B18F4A5
:102A5C000E94EF197BC00E9493190E94F51C19F477
:102A6C000E94701673C00E94EA19E8E1F2E761EB6C
:102A7C0072E40E94A81B09F010F40C944A15EFEFB5
:102A8C00FFEF6FE77FE762C00E94EA19EBE3FAEA17
:102A9C0068EB7FE30E94151B0E948C190E94EA19B7
:102AAC0032DF0E94541A8F01F8010E94EA190E9429
:102ABC00C8170E94D217DF01CB01E0E0F0E060E024
:102ACC007FE30E94D2170E94D6190E94DB190E9444
:102ADC00DD19ADE6BCE48CE69DE30E94151BA6EA6D
:102AEC00B3EE86EE90E40E94C51A0E94CC190E94A7
:102AFC00151B0E94D6190E94E519A8E2BDE886EACA
:102B0C0091E40E94C51A0E942E190E94D1190E94AC
:102B1C0022190E94C51AA3EFB4E085EB9FE30E9433
:102B2C00151B7F936F93FF93EF930E94CC190E9418
:102B3C00E5190E94BE1AAF91BF918F919F910E948F
:102B4C00631B0E94CA1CD8010E94131A19810881A8
:102B5C002E9608950E94CF1C24970E943A180E942A
:102B6C00F51C19F40E94EF1943C0A885B9858A8514
:102B7C009B850E94FD1C84F40E94E9170E94F51CA1
:102B8C0019F40E94701634C0A885B9858A859B8576
:102B9C000E94F4194FDF2CC00E94E917DE010E943D
:102BAC00541A0E94B11C0E943F180E948B1ADF011C
:102BBC00CB010E94E9170E94031D19F00E94EF1926
:102BCC0017C00E943A180E941F1ADF01CB010E9405
:102BDC00F41930DFE887F9876A877B87E881E17031
:102BEC0019F40E943A1804C00E943A180E941F1A45
:102BFC002C960895AA93E1E0F991F03210F0F03898
:102C0C0008F0EE2708951A930A9300E010E0089557
:102C1C00A5E9B8E0EE0FFF1F08950E94151C0E9455
:102C2C00CA1C84E00E944A0626960895ED91FD91F7
:102C3C003196FE93EE930895E091D108F091D2086D
:102C4C000895A091DE08BB270E94750EE0939208B0
:102C5C000895E091DE08F0E0FA93EA930895E0E03D
:102C6C00F0E069E373E4E0933608F093370860937F
:102C7C00380870933908A0E0B0E00E94E11C089578
:102C8C00DF01CB010E94FD1C0895E0933608F09300
:102C9C00370860933808709339080895FA93EA93CB
:102CAC0080E00E944A062296EBEEF0E0FA93EA935B
:102CBC00E0E0F0E060E87FE30E94CA1C84E00E9440
:102CCC004A0626960895FA93EA9380E00E944A06F3
:102CDC0022960895E0E0F0E060E87FE308950E941A
:102CEC00CA1C84E00E944A0626960895E091360894
:102CFC00F091370860913808709139080895E09187
:102D0C003208F091330860913408709135080895B9
:102D1C00E0E9E093EE08E093EF08E5EAE0930F09B1
:102D2C00E1E0E09310090895A0E0B0E008950E945E
:102D3C00E408A4E6B0E00C94F819A4E6B0E00C9416
:102D4C00F819E0916500E460E0936500AF98089590
:102D5C00A09192080C94680EA1E0B0E00895A2E056
:102D6C00B0E00895F40131964F01D401EAE0F0E0AF
:102D7C000E94761C30970895A8ECB0E00C94F819DA
:102D8C00E093920866CFE4E0F0E0E0932A06F0933B
:102D9C002B060895E1EFF2E0FA93EA934DDF3DCF75
:102DAC00E0916500EB7FE0936500AF9AE0E0E8CF3F
:102DBC00E3E0F0E0E0932A06F0932B06EBCFFE0164
:102DCC003296FA93EA930895BA93AA932497E0E083
:102DDC000895EE81FF81FA93EA930895AC85BD8541
:102DEC000C94B706A885B985EA0FFB1F0895FA93D2
:102DFC00EA93DA01EC91FF276627772770CFEBEA8D
:102E0C00E0938900E0EAE093880008950A921A9210
:102E1C00FA926A937A938A939A93AA93BA93EA93BF
:102E2C00FA93EFB7EA931A930A93089566277727D4
:102E3C0056CFA981BA81EE27A10FBE1F08950E941B
:102E4C00BB1CE036A9E0FA07A0E06A07A0E07A070D
:102E5C000895E038A5E2FA07A0E06A07A0E07A0737
:102E6C000895E034A8E3FA07A0E06A07A0E07A0727
:102E7C000895E030ABE4FA07A0E06A07A0E07A0717
:102E8C000895E030A6E9FA07A0E06A07A0E07A0707
:102E9C000895E030A1EEFA07A0E06A07A0E07A07F7
:102EAC000895E030A2ECFA07A1E06A07A0E07A07E7
:102EBC000895FA93EA93A8E0B0E00C946F06A8E0AA
:102ECC00B0E00895F801AC81BD81AE0FBF1F08952D
:102EDC00A981BA811296AC910895A981BA811396F1
:102EEC00AC910895E2E8F8E0FA93EA930895EB8147
:102EFC00FC813596FA93EA93A4E0B0E00C9420148C
:102F0C00A981BA819096AC910895EAE8F8E0FA9319
:102F1C00EA93EB81FC813196FA93EA93D0CF0E942D
:102F2C0020148ADE75CE88DE73CEAF9AE0916500F0
:102F3C00EB7FE09365000895EA93A0E0B6E980E0AA
:102F4C0090E00C947A08E0E0CF99E1E00E2EA0E03E
:102F5C00CE99A1E0EA2FEE0F0E2AA0E0CD99A1E0C8
:102F6C00EA2FEE0FEE0F0E2AA0E0CC99A1E0EA2F8B
:102F7C00EE0FEE0FEE0FE0290895EC85FD856E85C2
:102F8C007F8508950E94151C0E948B1A0895AC85AC
:102F9C00BD858E859F8508950E94D41C0E94BE1A03
:102FAC000895EC83FD836E837F830895E0E0F0E069
:102FBC0060E271E40895AC81BD818E819F8108959A
:102FCC000E94151BEECFEC81FD816E817F810895EF
:102FDC00AA93E1E8F9E0FA93EA93EAE8F8E0FA93C5
:102FEC00EA936DCF0E942014EEE8F9E0FA93EA938D
:102FFC0079CF0E942014E6E9F9E0FA93EA93EAE823
:10300C00F8E0FA93EA935BCF0E942014E3EAF9E02C
:10301C00FA93EA93D4CEE093A109E981E093A20953
:10302C00EFE7F9E0FA93EA93A0917E09B0E00E94F1
:10303C001909E093A4090895ECE7F9E0FA93EA93EF
:10304C00A9E2B0E00895FA93EA93EAE8F8E0FA937B
:10305C00EA9335CFE5E5F9E0FA93EA93A7E2B0E01D
:10306C000895FA93EA937BCEE885F9856A857B858A
:10307C0008950E94BB1C0895FA93EA9320CFE5EAC9
:10308C00F9E0FA93EA93ACE4B0E00895E0913008EB
:10309C00F09131080895A0916408B0916508809171
:1030AC006608909167080895662777270E948B1A07
:1030BC000E94631B0895A0916808B09169088091E3
:1030CC006A0890916B080895E0937808F09379085A
:1030DC0060937A0870937B080895A0916C08B09166
:1030EC006D0880916E0890916F080895E0917408B6
:1030FC00F091750860917608709177080895E091C9
:10310C007808F091790860917A0870917B0808959D
:10311C00E0917C08F0917D0860917E0870917F08A9
:10312C000895A0917808B091790880917A089091CF
:10313C007B08E0E0F0E06AE774E40895A091700881
:10314C00B091710880917208909173080895A091C4
:10315C003608B09137088091380890913908089555
:10316C00A0917808B091790880917A0890917B08A9
:10317C0008950E944D0EE0933A08F0933B08089591
:10318C00E0913A08F0913B080895FADF662777271B
:10319C000E948B1A0895E0914008F09141086091CB
:1031AC004208709143080895A0914408B0914508D5
:1031BC00809146089091470808950E94C51ADF0136
:1031CC00CB010895E8DFF0DF0E94A81B0895A091C1
:1031DC003C08B0913D0880913E0890913F080895BD
:1031EC000E94151BDF01CB010895A0915408B091EA
:1031FC00550880915608909157080895E09154080D
:10320C00F091550860915608709157080895E09117
:10321C005808F091590860915A0870915B0808950C
:10322C00E987FA876B877C870895AE81BF811196F9
:10323C00AE83BF8311970895AA81BB818C819D8138
:10324C000895EDECFCEC6CEC7DE30E94151B0895ED
:10325C00EA83FB836C837D830895EA81FB816C8117
:10326C007D81A985BA858B859C8508959FDE0E94FA
:10327C00151B0895A0E0B0E080E09FE30895E02FD7
:10328C00E05DEC93E02FF0E00895A985BA858B857D
:10329C009C85089590DE8ADE93CE95DE78DE0E94C2
:1032AC00A81B0895EC87FD876E877F870895A885F6
:1032BC00B9851196A887B98711970895E885F9857E
:1032CC003196E887F98708952A93AF81B885E98507
:1032DC00FA8509950895FE01E65AFF4F0190F08199
:1032EC00E02D08953497DE01A65ABF4FED93FC9361
:1032FC000895AF81B885E985FA8509950895DE01B1
:10330C00A65ABF4F0D90BC91A02D0895EA87FB875C
:10331C006C877D870895DFDFE5CFEA85FB856C85BB
:10332C007D850895EE87FF87AE85BF850E943F148B
:10333C001E2F0895E4DF14960E94A21C0895E88BBA
:10334C00F98B6A8B7B8B08950B7FED89EA93DE01F9
:10335C00A95ABF4F0D90BC91A02DFE01E75AFF4F0B
:10336C000190F081E02D099550300895E889F98994
:10337C006A897B89AA85BB858C859D850895A0E08B
:10338C00B0E080E89FE30E94BE1A0895AE81BF8131
:10339C00888599850895EE81FF81688579850895E2
:1033AC00EE83FF83688779870895F5DFEFCF0E945E
:1033BC00151B4EDFEA81FB816C817D810895EA81CA
:1033CC00FB816C817D810895AA85BB858C859D854B
:1033DC000895E0E0F0E060E070E008950E949C1435
:1033EC00EADDFECE109639F08DEC9AE00197F1F7FC
:1033FC00A8951197C9F70895E991F9916991799177
:10340C0077FB660F771F88277E57880B7D938C93ED
:10341C007EE7769567956EF00895E991F99169913B
:10342C00799177FB660F771F7A0F769567950EF07B
:10343C00089530976040704009F0705808955523F6
:10344C0042F4503811F4E0FF04C03196691F791F23
:10345C006BF050E8572711F45F93CFC05F3F31F00A
:10346C00660F000C57956795752F08955F93002094
:10347C000AF0CFC0C8C050E8192E1522880F991F2A
:10348C009527550F879550E8072E0522660F771F55
:10349C007527550F67950895689401C0E8945F935C
:1034AC00F2DF703818F07F3F08F4A7C056E1571BC5
:1034BC00AAF4519558300EF4593030F0EFEFFFEF7D
:1034CC006FEF7FE777F91AC077275523B9F0EE0F26
:1034DC00FF1F661F771F5A95D1F710C077275830FA
:1034EC0028F0EF2FF62F672F5850F9CF552331F0D6
:1034FC0076956795F795E7955A95D1F700200AF4DC
:10350C0080D15F910895689401C0E8943097604031
:10351C007040B1F0002426F0772312F4009471D19E
:10352C00172E7EE1112032F07A95EE0FFF1F661FE9
:10353C00111CF9CFEF2FF62F612D5F938ADF5F916E
:10354C0008954F93AF01FD01DA01AB01BC01CA0133
:10355C00402D012C142E4F910895EA0FFB1F681F6C
:10356C000895E095F0956095EF5FFF4F6F4F0895CC
:10357C005F9381DF903871F150E8152604C05F939A
:10358C007ADF903839F1703821F1572F591B2BF114
:10359C0012F4D7DFFACF583118F0AA27BB278827A7
:1035AC00583028F0AB2FB82F88275850F9CF552317
:1035BC0029F08695B795A7955A95D9F7502D512591
:1035CC0072F0CBDF38F46795F795E795739513F4A4
:1035DC0020C0B7DF3EDF5F910895D8F7FBCFEA1B21
:1035EC00FB0B680B51F010F40094BBDF662392F3D5
:1035FC00EE0FFF1F661F7A95CBF7EE27FF27662786
:10360C0077275F910895EFEFFFEF6FE77FEF5F9103
:10361C000895EFEFFFEF6FE77FE75F9108955F93FA
:10362C002ADF703851F3903841F301240894791F44
:10363C0023F41CF300203AF3ECCF0F921F932F933B
:10364C003F934F93112722279927689FA0018F9FA3
:10365C00302D410D591F6B9F300D411D591F8E9FF1
:10366C0027D0BF9F25D06A9F23D0BE9F1DD0AF9F70
:10367C001BD0AE9F110D291F391F491F591FE32F56
:10368C00F42F652F522F4F913F912F911F910F9037
:10369C0066232AF0550FEE1FFF1F661F02C073959D
:1036AC004BF2CDDE5F910895100D211D391F02C024
:1036BC00200D311D491F591F08955F93DCDE7038B2
:1036CC0021F411200AF49FCFA4CF903809F495CFA0
:1036DC0001240894970B1BF4D4F30020F3CF792F1B
:1036EC001F932F933F934F93112411272227332796
:1036FC004427552790E2AE17BF078607410730F0E5
:10370C00AE1BBF0B860B410B089401C08894551F50
:10371C00221F331F111CAA1FBB1F881F441F9A9501
:10372C0051F7F901612D4F913F912F911F91662314
:10373C0032F0550FEE1FFF1F661F7A9543F27FDEA6
:10374C005F91089599239AF0772342F0971748F0E8
:10375C0029F4AE17BF07860720F031F098948894AF
:10376C00089598940894089518948894089577234C
:10377C00C2F7971798F3A9F7EA17FB07680788F3BE
:10378C0099F3ECCF06D124975F939F81992311F481
:10379C00289633CF12F428963CCF4F9342E48E8177
:1037AC00BD81AC8188839983AA83BB83FD01BC0155
:1037BC00AC81BD818E819F8180DF88819981AA81B6
:1037CC00BB81DDDE60DE7A9544DE88819981AA8139
:1037DC00BB81AE27A87F21F4BF178607970729F076
:1037EC004A9519F0DF01CB01DDCF4F915F912896FF
:1037FC0008950024AF0DB01D0895F195E195F040AA
:10380C000895F09560957095E195FF4F6F4F7F4F40
:10381C000895FE2FFF0FFF0B6F2F7F2F08956F2F33
:10382C00660F660B762F0895002498E0AA0F001CF3
:10383C000E1A10F40E0E01C0A1609A95B9F7EA2F7A
:10384C00A02D08955FD0F0DF0EF4E19508950024CB
:10385C00112490E1AA0FBB1F001C111C0E1A1F0A89
:10386C0018F40E0E1F1E01C0A1609A9599F7FD0168
:10387C00D001089553D0EBDF0EF4BFDF08953F93D2
:10388C004F935F93002411244427552730E2AA0F4D
:10389C00BB1F881F991F001C111C441F551F0E1A9B
:1038AC001F0A460B570B28F40E0E1F1E461F571FE0
:1038BC0001C0A1603A9559F7FD01BC01D001CA01C4
:1038CC005F914F913F910895E894A7FF02C0A19595
:1038DC006894E7FDE195A8DFEA2F0EF4E1950895D1
:1038EC00E894B7FF04C0A095B09511966894F7FDC5
:1038FC0084DFADDFFD010EF480DF0895C0DFFD0134
:10390C00BC010895E894E7FF02C0E1956894A7FF15
:10391C0004C0A19500F8039400FA0895E894F7FF09
:10392C0002C06BDF6894B7FF06C0A095B0951196E6
:10393C0000F8039400FA0895ED91FC911197089505
:10394C00ED91FD916D917C9113970895ED91FD9101
:10395C006D917D910895ED93FD936D937C930895F6
:10396C007E936E93FE93EE930895E881F9816A81BC
:10397C007B810895A881B9818A819B810895E88310
:10398C00F9836A837B8308957A936A93FA93EA9313
:10399C0008959A938A93BA93AA930895182E862F12
:1039AC00612D192E972F712D1B2EBF2FF12D1A2E35
:1039BC00AE2FE12D0895129602D0BF0112971196E9
:1039CC0002D0FE2F1197E199FECFFF93FFB7F89429
:1039DC00AEBBBFBBE09AEDB3FFBFFF91089530972C
:1039EC0060407040089500240A160B0608950024C8
:1039FC000A160B06080609060895EA17FB0768075E
:103A0C00790708955A934A933A932A931A930A93EF
:103A1C0008955D814C813B812A811981088108952B
:00000001FF
