:020000000C945E
:100002000D040C9400000C9400000C9400000C945D
:1000120000000C9400000C9400000C9400000C945E
:1000220000000C9400000C9400000C9400000C944E
:1000320000000C9400000C943A070C9400000C94FD
:100042002C070C9400000C94DE070C9400000C9416
:1000520000000C9400000C9400000C9400000C941E
:1000620000000C9400000C9400000C9400000C940E
:1000720000000C9459070C9411080C9400000C9485
:1000820000000C9400000C9400000000000000002E
:10009200000000000000000000FFFFFFFF00000062
:1000A20000004556454E54203D2025640D0A00634C
:1000B2006F756E745F6576656E74203D2025640DE4
:1000C2000A000D0A2B2B2B2B2B2B2B2B2B2B2053EC
:1000D2006D61727420537769746368202B2B2B2B0C
:1000E2002B2B2B2B2B2B0D0A000D0A4669726D77D9
:1000F2006172652056657273696F6E203A202530F1
:100102002E31660D0A0043757272656E7420536556
:100112006E736F722020203A2041435337313245AB
:100122004C4354522D3035422D54202825302E3147
:1001320066206D562F416D702E290D0A000D0A2B77
:100142002B2B2B2B2B2B2B2B2B20536D61727420E3
:10015200506C7567202B2B2B2B2B2B2B2B2B2B0D2A
:100162000A0043757272656E742053656E736F7206
:100172002020203A20414353373132454C435452D8
:100182002D3230412D54202825302E3166206D56D7
:100192002F416D702E290D0A000D0A2B2B2B2B2BB4
:1001A2002B2B2B2B2B20536D6172742042726561B5
:1001B2006B6572202B2B2B2B2B2B2B2B2B2B0D0A16
:1001C2000043757272656E742053656E736F722090
:1001D20020203A20414353373132454C4354522D6B
:1001E2003330412D54202825302E3166206D562F74
:1001F200416D702E290D0A005265616420446970B8
:100202002D537769746368204552524F52210D0A6B
:10021200000D0A2B2B2B2B2B2B2B2B2B2B2044654E
:100222006661756C742054797065203A20536D6153
:10023200727420537769746368202B2B2B2B2B2B22
:100242002B2B2B2B0D0A0043757272656E74204D99
:1002520065617375726520203A203E2025302E326A
:100262006620416D702E0D0A000D0A2D2D2D2D2DAB
:100272002D2D2D20496E697469616C20436F6D705C
:100282006C657465202D2D2D2D2D2D2D2D0D0A0023
:100292000D0A2D2D2D2D2D2D2D2D205374617274AF
:1002A2002050726F6772616D202D2D2D2D2D2D2DF9
:1002B2002D0D0A000D0A2D2D2D2D2D2D2D2D204910
:1002C200646C65202D2D2D2D2D2D2D2D0D0A000D4B
:1002D2000A2D2D2D2D2D2D2D2D20474554204556EF
:1002E200454E54202D2D2D2D2D2D2D2D0D0A000D79
:1002F2000A2D2D2D2D2D2D2D2D204163746976650E
:10030200202D2D2D2D2D2D2D2D0D0A00636F756E97
:10031200745F696E707574203D2025640D0A0000BB
:1003220025303564202020002530325820002563F6
:10033200002E000D0A005741524E494E47203A20E6
:10034200554152543020425546464552204F56455B
:1003520052464C4F572025640D0A00007E000408C7
:100362000141496C7E00040801534C577E00040889
:100372000153485B03000D0A202B2B2B2B2B2B2B1D
:100382002B2B2B2053656E64204149202B2B2B2BCA
:100392002B2B2B2B0D0A000D0A202B2B2B2B2B2B5F
:1003A2002B2B2B2B2053656E64205348202B2B2B99
:1003B2002B2B2B2B2B0D0A000D0A202B2B2B2B2B3F
:1003C2002B2B2B2B2B2053656E6420534C202B2B75
:1003D2002B2B2B2B2B2B0D0A000D0A202B2B2B2B1F
:1003E2002B2B2B2B2B2B2052656372656976652094
:1003F20044617461202B2B2B2B2B2B2B2B0D0A00F2
:100402000D0A2D2D2D2D2D2D2D2D204A4F494E54C7
:100412002053554343455353202D2D2D2D2D2D2D46
:100422002D0D0A000D0A2D2D2D2D2D2D2D2D205295
:1004320045434956452050494E47202D2D2D2D2DFF
:100442002D2D2D0D0A000D0A202B2B2B2B2B2B2BA8
:100452002B2B2B205F6576656E74203D3D20353158
:1004620030207C7C205F6576656E74203D3D2035B2
:100472003131202B2B2B2B2B2B2B2B0D0A000D0A72
:100482002D2D2D2D2D2D2D2D205245434956452004
:100492004556454E54202D2D2D2D2D2D2D2D0D0A39
:1004A200000D0A2D2D2D2D2D2D2D2D2053454E4481
:1004B200204556454E542053554343455353202D12
:1004C2002D2D2D2D2D2D2D0D0A000D0A2D2D2D2D0D
:1004D2002D2D2D2D2053454E44205245504F525420
:1004E2002053554343455353202D2D2D2D2D2D2D76
:1004F2002D0D0A007E002310010000000000000004
:1005020000FFFE00003000000000000000000000BC
:100512000000000000007E0001A17E002310010007
:1005220000000000000000FFFE000030000000009C
:100532000000000000000000000000007E0001A496
:100542007E002510010000000000000000FFFE00F8
:100552000030000000000000000000000000000069
:1005620000007E0001A501007E004810010000008D
:100572000000000000FFFE0000300000000000004C
:10058200000000000000000000007E0026A701011C
:100592000000000000000000020000000000000057
:1005A2000003000000000000000004000D0A202BE0
:1005B2002B2B2B2B2B2B2B2B2B2053656E64204CA0
:1005C2004544202B2B2B2B2B2B2B2B0D0A000D0AFA
:1005D200202B2B2B2B2B2B2B2B2B2B2053656E64A1
:1005E200204A6F696E202B2B2B2B2B2B2B2B0D0ACA
:1005F200000D0A202B2B2B2B2B2B2B2B2B2B2053A1
:10060200656E642050696E67202B2B2B2B2B2B2BB6
:100612002B0D0A000D0A202B2B2B2B2B2B2B2B2BDC
:100622002B2053656E64204556454E542052454357
:10063200495645202B2B2B2B2B2B2B2B0D0A000D38
:100642000A202B2B2B2B2B2B2B2B2B2B2053656E8A
:1006520064205245504F5254202B2B2B2B2B2B2BEB
:100662002B0D0A000D0A3D3D3D3D3D3D3D3D3D3DCD
:100672003D3D3D3D3D3D3D3D3D3D3D3D3D3D3D3DA8
:100682003D3D3D3D3D3D3D3D3D3D3D3D3D3D3D3D98
:100692003D3D3D3D3D3D3D3D3D3D3D3D0D0A00560F
:1006A20073756D203D2025302E346620200049735D
:1006B200756D203D2025302E346620200050737544
:1006C2006D203D2025302E34660D0A005661766776
:1006D200203D2025302E3466202020004961766797
:1006E200203D2025302E3466202020005061766780
:1006F200203D2025302E34660D0A00576174742D7A
:10070200486F75722053756D203D2025302E34665A
:100712000D0A004E756D6265722053616D706C69D1
:100722006E67203D2025640D0A003D3D3D3D3D3D67
:100732003D3D3D3D3D3D3D3D3D3D3D3D3D3D3D3DE7
:100742003D3D3D3D3D3D3D3D3D3D3D3D3D3D3D3DD7
:100752003D3D3D3D3D3D3D3D3D3D3D3D3D3D3D3DC7
:100762000D0A0D0A0043757272656E742045786336
:10077200656564202D2D535749544348204F464602
:10078200210D0A004000050000401C454144432061
:100792003D2025640D0A00566F6C74203D202566AD
:1007A2000D0A000001002D4E414E00494E46000048
:1007B2002D4E414E0000010002008C000400000D8D
:1007C2008E000D00DF08920004000800A00008005F
:1007D20014095E0308001C096603080024096E035D
:1007E20001009308760326002E09F6042600550917
:1007F2001C0527007C0942054300A5096A05010082
:10080200110A86070100DE088807040040088A07EB
:100812000100120AA6070000F894EE27ECBBF1E0F3
:10082200F5BFE5BFE0936C00F8E1F1BDE1BD8DE0FD
:10083200A2E0BB27ED938A95E9F780E090E1A0E082
:10084200B1E0ED930197E9F7E8EBF7E08591959137
:10085200009761F0A591B59105901590BF01F00147
:1008620005900D920197E1F7FB01F0CF8BBFEFEFFF
:10087200EDBFECE0EEBFC0E0D6E00C9487040E942E
:100882000A16E091D308F091D4080E940F16AE0F19
:10089200BF1F0D911C91E4EAF0E0FA93EA93F8018C
:1008A2000E941416002E012A21F0A3EDB8E00E9446
:1008B2001D16E1EBF0E0FA93EA93E091D308F09190
:1008C200D4080E941416A091D308B091D4085E9760
:1008D20029F4E0E0E093D308E093D408D8010E9421
:1008E2008E0A099119910895BA93AA930E94231628
:1008F2000E940F16EA0FFB1FA881B981A083B18362
:10090200A1EDB8E00E941D160C941D0966247724FF
:100912000E942816A0919208AF3F39F40E94301627
:10092200A0E00E94690E0E9428160E94060B5E2E0D
:100932005520D9F70E943C0B4E2EEFE0E41531F51D
:100942000E9436160E9447164CF4DF01CB01EFE8F5
:10095200F2EC65EF7DE30E94A31B08F005C0A0E066
:10096200B0E00E94DC1C04C0ECEEF1E568EB7DE334
:10097200E0933208F093330860933408709335089B
:10098200E2E1E093E708E4ECF0E081C0EEE0E41598
:1009920091F5E0E0F0E068EC72E40E944C16A4E00D
:1009A200B0E00E94DC1C0E9447164CF4DF01CB0130
:1009B200E9E2FCE56FE07EE30E94A31B08F005C0BC
:1009C200A4E0B0E00E94DC1C04C0EEEAF7E461EEB1
:1009D2007DE3E0933208F093330860933408709318
:1009E2003508E1E1E093E708EFE3F1E00E945516F4
:1009F200E4E6F1E05BC0EDE0E41591F5E0E0F0E063
:100A020064E872E40E944C16A8E0B0E00E94DC1C8C
:100A12000E9447164CF4DF01CB01EAE9F9E969E1EA
:100A22007EE30E94A31B08F005C0A8E0B0E00E948C
:100A3200DC1C04C0EFE8F2EC65EF7DE3E0933208E2
:100A4200F09333086093340870933508E3E1E09340
:100A5200E708EBE9F1E00E945516E3ECF1E026C06D
:100A6200E0E04E162CF4EAEFF1E00E946A1624C090
:100A72000E943616E0933208F093330860933408EC
:100A820070933508E2E1E093E708E3E1F2E0FA93DC
:100A9200EA9380E004D12296EBEEF0E0FA93EA9337
:100AA2000E9471160E947616E8E0F1E0FA93EA934A
:100AB2000E947D160E947616E0E04E160CF43ACFA4
:100AC200E9E4F2E0FA93EA930E9486160E9476160F
:100AD2007894EBE6F2E00E946A16A8E8B3E10E947D
:100AE200F319E2E9F2E00E946A160E944A0AD4016E
:100AF200EFE6F0E00E94711C309729F4EFE6F0E097
:100B02008E169F060CF41BC0D501E2E0F0E00E94B5
:100B1200711C309721F40E948F16E1E003C00E94FD
:100B22008F16E0E0E0931109ECEEF8E0FA93EA9315
:100B3200A6E2B0E00E944D09F50131965F01E09115
:100B42002A06F0912B063097B9F40E949B160E9458
:100B52009E16A0919208A13071F40E94A4160E94E0
:100B6200A8160E9430160E94AF16E1E0F0E03F01A5
:100B7200AFEFB1E0B9DE91C0E130A0E0FA0729F4AD
:100B82000E94B3160E949E1688C0E230A0E0FA07C7
:100B920029F40E94B6160E949E167FC0E330A0E0A0
:100BA200FA0711F00C941B06E6EBF2E00E946A16BB
:100BB2000E94B91629F463DEE1EDF2E00E946A16A2
:100BC200E1E0F0E0E615F70599F4A0919208A13072
:100BD20019F4E4E0F0E006C0E0919208E03031F46C
:100BE200E3E0F0E0E0932A06F0932B0666247724F4
:100BF20098991FC00E94C316E0919208E03061F4F8
:100C02000E94A816E1E00E94C7160E94AF160E9439
:100C1200CA16AFEFB1E00CC0A0919208A13049F41E
:100C22000E94D1160E94AF160E94D916AEEFB1E013
:100C32005BDE33C0E430A0E0FA0779F5E1EFF2E0E1
:100C42000E946A160E94820E0E94F80E0E94B91635
:100C520029F4E1EDF2E00E946A1611DEA09130085B
:100C6200B0913108A83EE3E0BE0711F40E94020DE4
:100C7200989913C00E94C3160E94D1160E94AF1603
:100C82000E94D916EEE0F3E0FA93EA930E9423164B
:100C92000E941416AEEFB1E027DE27CFFFCFFF92FE
:100CA200F82ED1501A930A93DE01A250BF4F0E9430
:100CB200FA1B8D010E94E016DE01AC5FBE4F0E945E
:100CC200FA1B0E949D1CFA93EA93D8010E94F61324
:100CD200E0E0EA93DE0113960E945B081981088125
:100CE2002296DF5FFF9008950E94E516EA83E0E016
:100CF200EB830E94031D0A851B8520E130E0EC8511
:100D0200FD85EE83FF83AA85BB850E94F41C84F5D2
:100D12002A173B074CF00E94EA16EC85FD85FA93F0
:100D2200EA930E94EF1624C0F801D9010E94711CB7
:100D3200AF010E94EA165A934A930E94EF16041BCF
:100D4200150BFA01AE81BF81EA0FFB1FEE83FF8311
:100D5200F9010E94F316E887F987201731073CF062
:100D62000E94EA161A930A930E94EF1601C0DCCF82
:100D72000E940A1D2E960895BA93AA930E94031DFB
:100D8200E2E2F3E0FA93EA93E885F9850E94141609
:100D92004A855B8500E010E0E885F9850E171F079C
:100DA20094F4EAE2F3E00E94F8164F5F5F4FE7E047
:100DB200F0E0E017F10721F4E8E2F3E00E946A169E
:100DC2000F5F1F4FE9CFA885B985189724F4E8E291
:100DD200F3E00E946A16A885B98550979CF4A8850D
:100DE200B985E0E1F0E0EA1BFB0B9F0100E010E0B7
:100DF200021713073CF4E6E2F3E00E946A160F5F63
:100E02001F4FF6CFE6E2F3E00E946A164A855B8541
:100E120000E010E0E885F9850E171F07A4F4DA0157
:100E2200AC910E940116E03029F0E0E3F3E00E9469
:100E3200F81604C0E3E3F3E00E946A164F5F5F4FC7
:100E42000F5F1F4FE7CFE5E3F3E00E946A160E94AF
:100E52000A1D2C960895AA93EA93EFB7EA93E7ED59
:100E6200E2BFA0910006A13019F4E1E0E093DC08B2
:100E72003EC06A937A93AA93BA93EA93FA93EFB72E
:100E8200EA93E7E5EDBDE0E4ECBDA5EDB8E00E9434
:100E9200A71CEF5FFF4F6F4F7F4F0E94B11CE9917C
:100EA200EFBFF991E991B991A99179916991189559
:100EB200AA93EA93EFB7EA930E940017E091DA0847
:100EC200E03029F0E091D908EF5FE093D908A091D2
:100ED2000006A13019F4E1E0E093DB08E091DD08BF
:100EE200E03029F09F9B02C0AF9801C0AF9AE99110
:100EF200EFBFE991A9911895E0E0E0BFE6E0E3BF1A
:100F0200E7EDE2BFE0E0E1BFEFBDE4E0EEBDE7E523
:100F1200EDBDE0E4ECBDE0E0E7BDE6BDEBBDEABD62
:100F2200E9BDE8BDE0937900E0937800E5BDE4BD5A
:100F3200E3BDE0938B00E4E0E0938A000E94001797
:100F4200E0E0E0938100E0938000E0938700E0938B
:100F52008600E0938500E0938400E0938300E093B1
:100F62008200EFE1E1BDEFE0E1BDE0E0E7BFE7BF16
:100F7200E0937D000895BA93AA93E881F9813097AE
:100F820021F4E7B7E160E7BF15C0E130A0E0FA075E
:100F920021F4E7B7E460E7BF0DC0E230A0E0FA0752
:100FA20049F0E330A0E0FA0729F4E0917D00E46023
:100FB200E0937D0078940C941D090E9407171BB1E1
:100FC2000CB1E12FEC7129F5A02F24D0043219F4D1
:100FD200E0E0E0931209E0911209EF5FE093120959
:100FE200E150F0E0E65FF94F0083A0911209A032D0
:100FF20018F0E0E0E0931209033259F4E09112098B
:10100200E150E0931309E0E0E0931209E1E0E0939C
:10101200090636C0AA935D9BFECFE881ECB948C0B1
:101022000E94071710919B0000919C00E12FEC7128
:1010320039F5F60131966F013197E05DF94F008382
:10104200E0E0F2E0EC15FD0511F4CC24DD24AEE283
:10105200B6E00E941D16E030A2E0FA0789F4E8E348
:10106200F3E0FA93EA93E0912E06F0912F060E94A4
:101072001717E0E0E0932E06E0932F06689420F81D
:1010820009911991E991EFBFF991E991B991A9916A
:101092009991899179916991F9901990099018958E
:1010A200AA93E0919B00E072E1F3E881E0939C0057
:1010B20021960895BA93AA931A9310E0EB81F0E077
:1010C200309761F40E941A17EC91E03031F00E94DF
:1010D2001A17AC919FDF1F5FF5CF0FC0E130A0E080
:1010E200FA0759F40E941A17EC91E03031F00E948D
:1010F2001A17AC91D5DF1F5FF5CF1881CBC00E94C4
:10110200CA1CEC81F0E0309771F5E0E0EBB9E8E958
:10111200EAB9E6E0E0939500E0E0E09390000E94F7
:10112200201711F4EFE11DC00E942A17C9F00E9496
:10113200321711F4EFE215C00E943A1711F4E3E2FC
:1011420010C00E94421711F4E1E10BC00E944A173D
:1011520011F4EBE006C00E94521711F4E5E001C061
:10116200E7E4E9B934C0E130A0E0FA0781F5E0E054
:10117200E0939B00E8E9E0939A00E6E0E0939D00AB
:10118200E0E0E09398000E94201711F4EFE11DC007
:101192000E942A17C9F00E94321711F4EFE215C01B
:1011A2000E943A1711F4E3E210C00E94421711F4B0
:1011B200E1E10BC00E944A1711F4EBE006C00E9465
:1011C200521711F4E5E001C0E7E4E0939900259697
:1011D2000895BA93AA93E881F981309759F4E8E720
:1011E200F3E00E946A16E4E1F9E00E945A17E4E192
:1011F200F9E01DC0E130A0E0FA0759F4E9E9F3E0B3
:101202000E946A16E4E2F9E00E945A17E4E2F9E069
:101212000EC0E230A0E0FA0779F4EAEBF3E00E94B4
:101222006A16ECE1F9E00E945A17ECE1F9E0FA9350
:10123200EA930E94601718D122960895BA93AA934E
:101242000E94051D30E000E010E0EC81FD810E17E8
:101252001F0754F4F801AE81BF81AE0FBF1FEC919E
:101262003E0F0F5F1F4FF1CFE32FF0E0F070AFEFB3
:10127200B0E00E94D51CEA1BFB0B0E940C1D0C94D3
:10128200B80BBA93AA93EA81FB81FA93EA93AA81F3
:10129200BB81EAD024960895BA93AA931A930A932B
:1012A20003E010E0AA81BB81169708F4EEC0EBEDD3
:1012B200F3E00E946A16EC81FD81FA93EA93AC8115
:1012C200BD810E9475060E94631701D0DEC0BA93E9
:1012D200AA931A93A981BA811C91E12FF0E0E83810
:1012E200A0E0FA0791F50E946917A13421F40E9447
:1012F2006E17A93409F003C0E1E0F0E021C00E94BA
:101302006917A33521F40E946E17A83409F007C0AB
:101312000E9473170E947817E2E0F0E011C00E9469
:101322006917A33521F40E946E17AC3409F00CC082
:10133200E6E8F8E0FA93EA930E947817E3E0F0E037
:10134200E0932A06F0932B066EC0E039A0E0FA077C
:1013520011F00C94140A0E948117A23A59F40E94C7
:1013620086170E949017AE0FBF1FE2E0F0E0ED93E8
:10137200FC9359C00E948117A33A49F40E94861730
:101382000E949017AE0FBF1FE3E0F0E046C00E943C
:101392008117A53AF9F40E9486170E942114A981A7
:1013A200BA819296AC91A13039F40E949417AE0F93
:1013B200BF1FEFEFF1E00BC0E981FA81E2A1E0305B
:1013C20041F40E949417AE0FBF1FEEEFF1E0ED93D0
:1013D200FC9325C00E948117A63A99F4E981FA810B
:1013E200E1A1E0932C09E981FA81E2A1E0932D09C0
:1013F2000E9486170E949017AE0FBF1FE6E0F0E032
:101402000CC00E948117A83A71F40E9486170E94AC
:101412009017AE0FBF1FE8E0F0E0ED93FC93A1ED53
:10142200B8E00E941D160E94231631970E940F16E3
:10143200AE0FBF1F0E949D1C309741F00E9494176F
:10144200AE0FBF1F0E949D1CDF0167D0A091D10883
:10145200B091D2085E9729F4E0E0E093D108E093DE
:10146200D20818810C94740EBA93AA930E940A1699
:10147200EA81FB810E171F0738F40E946317AC91B3
:101482000FDE0F5F1F4FF4CFF801198108812696F6
:101492000895D1500E94031D20E030E040E050E06A
:1014A2000E94A416A0912E06B0912F060E94F41C51
:1014B20048F5ACE2B6E00E941D163197E05DF94FA7
:1014C2001081FA014F5F5F4FDE011696EA0FFB1F94
:1014D20010832F5F3F4FA0912C06B0912D06A030B4
:1014E200E2E0BE0729F4E0E0E0932C06E0932D064B
:1014F200F894AEE2B6E0ED91FD913197FE93EE9352
:101502007894D0CFFE013696FA93EA93D901C4DEDD
:101512000E940A1D2696DF5F0895BA93AA93A881B6
:10152200B981129729F40E94CA16E2E0F4E065C07C
:10153200A881B981139739F4E6E2F4E00E946A16B1
:101542000E94320C60C0A881B981AE3FE1E0BE07C3
:1015520021F0AF3FE1E0BE07F1F5E8E4F4E00E94DC
:101562006A16A881B981AF3FE1E0BE07A1F4E1E0CC
:10157200E0932D090E94CA16E1E00E94C7160E945C
:10158200AF16AF98E0916500E460E0936500E1E09A
:10159200EA93A1E015C0A881B981AE3FE1E0BE07A0
:1015A20089F4E0E0E0932D090E94D916E0E00E9460
:1015B200C7160E94AF160E949617E1E0EA93A0E0D8
:1015C2000E94130CE1E0EA93A0912D090E94600CA5
:1015D200E0E8F4E012C0A881B981169741F4E0E096
:1015E200E0939308E0939408E3EAF4E006C0A8814C
:1015F200B981189741F4ECECF4E0FA93EA9380E0B5
:101602000E94500622960C94800E1AD0E0E00E94AE
:101612009D17E1E00E949D170E947D070E949B1684
:101622000E94BC070E94B3160E94BC07A3E0B0E070
:101632000E94BC07A0E40E94450EE0E0F0E008959D
:10164200A098A89AD798D698D598D498A79AE091B6
:101652006400E460E0936400129AE0916400E86040
:10166200E09364000E9496171A9AE0916500E77F62
:10167200E093650008951A930A930E94A4171E2FFF
:101682000E94A4160E94A4170E2F011711F4E12F35
:1016920001C0EFEF099119910895BA93AA930E949C
:1016A200031D00E010E0EE81FF8131979F010217D8
:1016B2001307DCF4F801A885B985AE0FBF1F4C9162
:1016C20055270E94F3160F01F901A885B985AE0FBF
:1016D200BF1FEC91D001EC93F9010E94F3164083F5
:1016E2000F5F1F4F21503040E2CF0E940A1D2A9601
:1016F2000895BA93AA930E940A16EE81FF81309749
:10170200D1F0F8010F5F1F4FAC81BD81EA0FFB1FC3
:10171200BF01AE81BF81EAE0F0E00E94711CE05D92
:10172200DB01EC93AE81BF81EAE0F0E00E943B1C5A
:10173200EE83FF83E2CFEA81FB810E171F0754F489
:10174200F8010F5F1F4FAC81BD81AE0FBF1FE0E3F9
:10175200EC93F1CFEC81FD81FA93EA93D8019DDFFE
:101762000E946317E0E0EC93F80119810881289642
:101772000895BA93AA9324970E94051D0E94BE174A
:101782000E944F1A8F01F8010E94C3170E94C817C6
:101792000E94CD170E94D2171A930A93EC85FD85F9
:1017A200FA93EA930E949B16A4DF9F01002E012A5E
:1017B20049F4F901AA85BB85AE0FBF1FE0E3EC93A4
:1017C2002F5F3F4FE885F985309741F1F901AA85EE
:1017D200BB85AE0FBF1FEEE2EC930E94D7170E94AB
:1017E200C51CEC85FD850E94C317DF01CB010E9459
:1017F200B1150E94DC170E94E1170E94E4170E94B3
:101802004F1AFA93EA93F901AC85BD85EA0FFB1FE3
:101812003196FA93EA93AC85BD856BDF0E940C1D6D
:10182200609608950E94E9170E94F3170E946017BC
:101832000E94FA170E9405180E94B3160E942114F2
:10184200E5EA0E940C18EEEAF5E00E946A160E9490
:101852001D180E9475060E941D180E9442090C94D0
:10186200800EEAE5F9E00E9424180E942114E7E6BE
:10187200F9E0FA93EA930E9473170E9460170E949C
:101882002114EFE6F9E00E9424180E942114E8E5F1
:10189200F9E0FA93EA93A0915709B0E00E941F0978
:1018A200E0937B09E3EFF5E00E946A160E942B1891
:1018B2000E9475060E942B180E94420908950E94F8
:1018C200E9170E94F3170E9460170E94FA170E94FC
:1018D20005180E94B3160E942114E6EA0E940C1811
:1018E200E6E1F6E00E946A160E941D180E94750643
:1018F2000E941D180E9442090C94800E0E94CA1C6C
:10190200EAEAF9E00E9424180E942114E7EBF9E0C8
:10191200FA93EA930E9473170E9460170E9421149F
:10192200EFEBF9E00E9424180E9421140E94BE17D6
:101932000E94C51CE1EFF9E00E9432181ADF0E94F2
:1019420035180E94C51CE9EFF9E00E94321811DF38
:101952000E94E4170E94C51CE1E0FAE00E943218DE
:1019620008DF0E943A180E94C51CE9E0FAE00E94D2
:101972003218FFDEE7EAE093CA09E889E093CB096F
:10198200EDECF9E0FA93EA93E1EFF9E00E943D18F9
:101992000E942114E6EDF9E0FA93EA93E9EFF9E007
:1019A2000E943D180E942114EFEDF9E0FA93EA93A8
:1019B200E1E0FAE00E943D180E942114E8EEF9E00D
:1019C200FA93EA93E9E0FAE00E943D180E9421149A
:1019D200E8EAF9E0FA93EA93A091A709B0E00E943D
:1019E2001F09E093F009E1E4F6E00E946A160E9402
:1019F20040180E9475060E9440180E944209619692
:101A020008950E9447180E944C180E945518E093AE
:101A12007408F093750860937608709377080E94B3
:101A220047180E945C180E9455180E9465180E946F
:101A320047180E946E180E945518E0937C08F09394
:101A42007D0860937E0870937F080E947718E09368
:101A52000106F093020660930306709304060E9447
:101A62008018E0930506F0930606609307067093CC
:101A72000806E6E6F6E00E946A16E1EAF6E0FA9364
:101A8200EA93E0916408F0916508609166087091AC
:101A920067080E947616E0EBF6E0FA93EA93E0918B
:101AA2006808F091690860916A0870916B080E9459
:101AB2007616EFEBF6E0FA93EA93E0916C08F09178
:101AC2006D0860916E0870916F080E947616EEECB8
:101AD200F6E0FA93EA930E9477180E947616EEEDEA
:101AE200F6E0FA93EA930E9480180E947616EEEED0
:101AF200F6E0FA93EA930E9489180E947616EDEFB7
:101B0200F6E0FA93EA93E0917008F091710860911F
:101B12007208709173080E947616E5E1F7E0FA9375
:101B2200EA930E9447180E941717ECE2F7E00E941E
:101B32006A160E9492180E94101B0E946518E1E02A
:101B4200EA930E9477180E94C51C0E9480180E9486
:101B5200C51C0E9489180E94C51C0E949F18CEDED7
:101B62000E9492180E945E1B0E9465180E94A8188B
:101B7200A030E0E0BE07E9E38E07E3E49E0769F4E4
:101B82000E94B118EDECFCEC6CE970E40E94A31B1E
:101B920009F010F40C94CE0D01C001C031C00E94B6
:101BA200A818A030E0E0BE07E8EC8E07E2E49E074A
:101BB20069F40E94B118E3E3F3E36FE971E40E9470
:101BC200A31B09F010F40C94E70D01C001C018C06A
:101BD2000E94A818A030E0E0BE07E4E88E07E2E425
:101BE2009E0769F40E94B118E3E3F3E36FEE71E438
:101BF2000E94A31B09F010F40C94000E01C01EC039
:101C0200E0E0E0930006E0916500EB7FE093650081
:101C1200AF9AE0E0E0930106E0930206E093030648
:101C2200E0930406E0930506E0930606E0930706B8
:101C3200E0930806E7E6F7E00E946A16E0E0E09328
:101C42003008E0933108E0936408E0936508E0937C
:101C52006608E0936708E0936808E0936908E093F8
:101C62006A08E0936B08E0936C08E0936D08E093D8
:101C72006E08E0936F08E0937008E0937108E093B8
:101C82007208E09373080895AA93E881E093110A19
:101C9200E7B9E4EAE6B921960895AA930E940A16E2
:101CA200EA81A091110AEA2BE7B988EB8A95F1F74C
:101CB200379A369A349BFECF04B11127E5B1FE2F35
:101CC200E0E00E2B1F2B349AF801198108810BC01A
:101CD200AA93E199FECFE981FA81FFBBEEBBE881CD
:101CE200EDBBE29AE19A23960895BA93AA93E199F9
:101CF200FECFE881F981FFBBEEBBE09AEDB32296FD
:101D02000895A1E00E94BA18EEE8F7E0FA93EA9388
:101D12000E94C1180E9417170E94C618AAE1B7E6CE
:101D22008CE990E40E94101BE0934408F09345086C
:101D320060934608709347080E94CC18A0E0B0E870
:101D420089EF93E40E94101B0E94D5180E94DE18AE
:101D5200E0E0F0E06AEF73E40E945E1BE09340086B
:101D6200F093410860934208709343080E94E3187D
:101D720009F010F40C94CE0EA0914008B0914108E5
:101D82008091420890914308E0914408F0914508FF
:101D9200609146087091470807C00E94E31820F539
:101DA2000E94D5180E94CC180E94B91AE0934C08E0
:101DB200F0934D0860934E0870934F08A0914C0821
:101DC200B0914D0880914E0890914F080E94101BCF
:101DD2000E94E8180E94C01AE0933C08F0933D0864
:101DE20060933E0870933F08A0E8B8E00AC1A0E003
:101DF2000E94BA180E94C618A0E0B0E080EA90E4FF
:101E02000E94F118E0E0F0EC6FE774E40E945E1BC0
:101E1200DF01CB01EAE0F7ED63E27CE30E945E1BA7
:101E2200E0935408F093550860935608709357084E
:101E32000E94F618E0E0F0E06FE573E40E94A31B55
:101E420048F40E94FF18A0E0B0E080E191E40E9413
:101E5200C01A14C00E94F618E0E0F0E069E673E4EC
:101E62000E94A31B09F010F40C94470F0E94FF1864
:101E7200A0E0B0E080E890E40E94B91AE093540830
:101E8200F09355086093560870935708E9E9F7E014
:101E9200FA93EA930E94FF180E9476160E94FF1896
:101EA2000E944C180E94C01AE0936408F0936508DF
:101EB2006093660870936708E0918008F09181084A
:101EC2000E94E8180E945518E0935008F0935108B8
:101ED2006093520870935308A0915008B091510832
:101EE20080915208909153080E94C31BE0934808C6
:101EF200F093490860934A0870934B080E947D163C
:101F0200A0914808B091490880914A0890914B08E5
:101F12000E945E1BE0935808F093590860935A0898
:101F220070935B080E948616A0915808B0915908D8
:101F320080915A0890915B080E94A31B48F4E0E04C
:101F4200E0935808E0935908E0935A08E0935B083D
:101F5200E0E0E0933C08E0933D08E0933E08E09324
:101F62003F08E0938008E09381080E9408190E94CC
:101F72005C180E94C01AE0936808F09369086093A5
:101F82006A0870936B080E9408190E94F6180E9452
:101F9200101BE0935C08F0935D0860935E087093F9
:101FA2005F080E946E180E94C01AE0936C08F093BA
:101FB2006D0860936E0870936F08A0915C08B091F1
:101FC2005D0880915E0890915F08E4EBF2EA61E1BE
:101FD20079E30E94101BE0936008F093610860931C
:101FE2006208709363080E949F180E94C01AE093CF
:101FF2007008F09371086093720870937308A0E3FD
:10200200B8E0ED91FD913196FE93EE9308950E9412
:10201200E516E883E0E0E983EA83EFE3EB831A93D2
:102022000A93EB85FC85EF3FAFEFFA0739F40E9484
:10203200EA16A8EAB7E00E943314A5C0EF3FAFE763
:10204200FA0739F40E94EA16A9EAB7E00E943314AB
:102052009AC0AC85AA2362F4E985FA856B857C85F2
:102062000E941A1A0E9411190E941619EDE2EC93AD
:10207200A885A73010F0E6E0E8871885E12F115017
:10208200E03039F00E941D190E9422190E9429197C
:10209200F5CF0E942E190E94C01A0E94111910E059
:1020A2000E9471160E9429190E942E190E94A31BD8
:1020B20088F00E941D190E9437190E9429191F5F7A
:1020C200173238F00E94EA16ADEAB7E00E943314E4
:1020D2005AC0EACF103029F40E941619E0E3EC93BB
:1020E20028C0E12F1150E03021F10E941D190E94F9
:1020F20022190E943B190E94DE180E948A140E9433
:1021020029190E942E190E945E1B0E944D1A0E2F41
:102112000E9416190E9440190E941D190E94C3179D
:102122000E94101B0E9446190E94CD170E9411198D
:10213200D8CFE885E03019F10E941619EEE2EC934F
:10214200E885E150E887EF5FD1F00E9446190E94CE
:1021520037190E941119E985FA856B857C850E94E1
:102162004D1A0E2F0E9416190E9440190E944619FC
:102172000E94C3170E94CD170E941119E1CFAE81B0
:10218200BF81E0E0EC93198108812D960895BA93FE
:10219200AA931A930A93AA81BB8112960E949D1C4C
:1021A200309729F1AA81BB8114960E949D1C8F0150
:1021B200309761F00230E0E01E07C0F0F80131977D
:1021C2008F01AA81BB811496ED93FC93AA81BB81F6
:1021D20012960E941D163197AC81A083AA81BB8101
:1021E2000E949D1CFF2312F00E941D1606C0AA81A8
:1021F200BB81EFEFFFEFED93FC93198108812596E8
:1022020008950E94E516E883E0E0E983E0E8EA83C6
:10221200EFE3EB830E94051DEE85FF85EF3FAFEFF5
:10222200FA0749F4E885F985FA93EA93A2EBB7E055
:102232000E943314BAC0EF3FAFE7FA0749F4E885CA
:10224200F985FA93EA93A3EBB7E00E943314ADC089
:10225200AB85A73010F0E6E0EB871B85E12F11502C
:10226200E03019F00E944B19F9CF0E94BE170E946C
:10227200F01C21F430E00E944B1934C03B850E94CF
:102282004E1909F010F40C9454110E944B190E943B
:102292004E1940F00E94C8170E9422190E94531939
:1022A2003F5FF5CF0DC00E944E1940F40E94C8173F
:1022B2000E9437190E9453193150F5CF0E944B19D1
:1022C2000E94BE170E943B190E94C01A0E94531915
:1022D2000E944E1938F00E94C8170E9422190E94CB
:1022E20053193F5F10E0EB85E11798F10E94DC176C
:1022F2000E9422190E943B190E94DE180E948A1431
:102302000E94D2170E94E4170E94C8170E945E1B07
:102312000E944D1A0E2F0E945819E02FE05DEC9397
:10232200E02FFF27662777270E94861A0E94DC1774
:102332000E94101B0E94C8170E94CD170E945319B9
:10234200E12F1F5FE03079F60E945819EEE2EC931C
:10235200CACF0E945F193197AA85A08330302CF42E
:102362003195A885B985EDE203C0A885B985EBE270
:10237200EC930E945F190E945F193197BF01A32F4E
:10238200EAE00E94231CE05DDB01EC930E945F19EE
:102392003197BF01A32FEAE00E94651CE05DDB01DB
:1023A200EC93A885B985E0E0EC930E940C1D609641
:1023B2000895BA93AA93EF9761970E94031D10E0C4
:1023C200FE01E85AFF4F0190F081E02DE887F9877E
:1023D200FE01EA5AFF4F0190F081E02DEE83FF8368
:1023E200AE81BF81E0E0F0E0ED93FC93DE01A45A00
:1023F200BF4F0E941D163197E4912E2FE03011F449
:102402000C94ED13E12FE03039F4253211F411E090
:1024120002C00E946519DFC1E130C1F4253219F40E
:102422000E946519D7C112E0E0E0ED8B00E02D3289
:1024320011F401E0D0C12B3219F4EBE2ED8BCBC1E8
:10244200203219F4E0E2ED8BC6C102C0E23039F469
:1024520050E013E0203311F40068BDC102C0E33044
:1024620091F4203310F02A3308F007C0AAE05A9FF3
:10247200502DE22FE0535E0FAEC140E02E3211F438
:1024820014E0A9C10FC0E43099F4203310F02A33CC
:1024920008F008C00062AAE04A9F402DE22FE053F4
:1024A2004E0F99C12C3619F4026015E094C104C094
:1024B200E53011F00C94EC13E22FE33659F40E944C
:1024C2006C190E9473190E946C19A481AA930E942C
:1024D2007A1980C1E53411F0E53609F404C0E63614
:1024E20011F00C94BA12FE017696EE87FF870E94D5
:1024F20080190E94A11C0E9487190E948C19AD8527
:10250200AA2322F0AD89AB3249F017C00E948E197E
:102512000E941A1A0E948719EDE2ED8B07FF05C08F
:10252200ED89EA930E947A1908C0EE85FF853196FB
:10253200EE87FF873197AD89A08305FF46E02636F7
:1025420051F40E948E190E94C51C4A93AB89BC8922
:102552000E94081009C00E948E190E94C51C4A934D
:102562002A93AC89BD894DDEFE0176960E949319AD
:102572001EC0E33739F40E948C190E949B190E94F5
:1025820093190EC0E037C1F40E948C190E949B1966
:10259200EE87FF87AE85BF850E944C141E2F086010
:1025A2000F77403011F0411708F001C0142F40E0BE
:1025B200E0E0EC8B30E06EC0E43611F0E93611F465
:1025C200046002C0E537A1F4EAE0EC8B01FF08C029
:1025D200E0E0FAEC6AE97BE30E94A0191AE023C06A
:1025E200E0E1F7E260E070E00E94A01915E01BC094
:1025F200E83511F4086004C0E83711F00C94EB13CD
:10260200E0E1EC8B01FF08C0E0E0F0E060E070E1A7
:102612000E94A01918E007C0E0E0F0E160E070E07D
:102622000E94A01914E0403011F00F7701C041E080
:1026320001FF08C00E948C190E94801914960E9402
:10264200A11C0FC002FF07C00E948C190E949B1997
:102652000E94101C06C00E948C190E949B196627BA
:102662007727EA87FB876C877D8702FF12C0AD85DB
:10267200AA2342F40E948E190E94021C0E9487190A
:10268200EDE2ED8BED89E03019F01F5F4F5F01C085
:102692000B7F342F00FD14C0151710F4351708F006
:1026A2000FC007FF08C002FF04C00B7F2D89115025
:1026B20001C020E301C020E20E9465195150ECCF15
:1026C200141790F4006102FF06C00E94A51909F0D8
:1026D200515011504150E0E3EA930E947A19503070
:1026E20009F051504150ECCF312FEC89E030B9F470
:1026F2003030A1F003FF06C0EE85FF852591EE87FD
:10270200FF8705C0AE85BF852D91AE87BF870E942A
:102712006519503009F051503150EACF51C00E9432
:10272200B7190E94401C2E2F2A3030F003FF02C03E
:10273200295C01C0295A01C0205D04FD21C021335A
:1027420060F4A889B9898A899B89A130E0E0BE0733
:10275200E0E08E07E0E09E0709F40BC0431740F467
:10276200531710F000FF01C010C020E207FF08C09D
:1027720020E3006102FF04C00E94A51909F0515034
:102782000E946519503009F0515031500E94B7191A
:102792000E947F1C0E948719EC89A889B9898A89BD
:1027A2009B89FF27662777270E94401C0E94A01959
:1027B200E889F9896A897B890E94F01C09F0AFCF08
:1027C20000FF08C0503031F05150E0E2EA930E941D
:1027D2007A19F8CF10E00ACEAE81BF810E949D1C0B
:1027E2000E940A1DEF966F960895BA93AA932697B0
:1027F2001A930A93EC85FD85309721F4EFEFFFEFF2
:102802000C94AD15EC85FD85EC83FD83E0E0EE8351
:10281200EF83EA85FB85FA93EA93EA85FB85FA93CF
:10282200EA93E8ECF0E1FA93EA93DE011896C1DD4F
:102832008F01AC81BD81E0E0EC93F8010C94AD1501
:10284200BA93AA9399818881009641F0BD81AC81A7
:10285200FB81EA8161916D930197E1F7FD81EC8142
:1028620026960895BA93AA93E991F991A991B991FB
:10287200CD0105900D920020E1F7FC010895BA9375
:10288200AA93A991B991EE27FF276D91662311F0C2
:102892003196FBCF0895BA93AA93AA27BB27E99151
:1028A200F9910590002011F01196FBCFFD010895DA
:1028B2000E94CA1C7B816A81F981E88177FB770FCC
:1028C20067FD7160972F9E5781F078F0983190F4F0
:1028D200AA27BB27882708948795B795A7959A9525
:1028E200D1F7EA23FB23682305C0E8947727EE2774
:1028F200FF2766276F77769508F4606877F9A991C4
:10290200B99189919991EA17FB076807790797FBB3
:1029120008950E94CA1C0E94BB1C0E9459140E9466
:10292200C01C19F40E943A1805C0E6F70E943A1832
:102932000E94C019249608950E94CA1C24971A93D3
:102942000A930E94C7190E94F81C2CF0EFEFFFEFC8
:102952006FE77FEF71C00E94CC190E94C51CADB712
:10296200BEB711971F930F930E94FD190F911F91EC
:102972000E94D1190E94C719E3EFF4E065E37FE3F7
:102982000E94A31B40F40E94D6190E94C01A0E9402
:10299200D119015010400E94CC190E94C0197F9396
:1029A2006F93FF93EF930E94CC19A0E0B0E080E810
:1029B2009FE30E94C01AAF91BF918F919F910E9495
:1029C2005E1B0E94D1190E94D6190E94D819A6E254
:1029D200B2E485E69FE30E94F118EEE4F1E164E5DA
:1029E20070E40E94CD170E94C7190E94101B7F93AA
:1029F2006F93FF93EF930E94E019ADE4B1E184ED90
:102A02009FE30E94B91AAF91BF918F919F910E944B
:102A12005E1B7F936F93FF93EF93F8010E94C3179E
:102A2200A8E1B2E781E39FE30E94101BAF91BF913F
:102A32008F919F910E94C01A198108812A96089548
:102A42000E94CA1C28971A930A930E94E519E0E58E
:102A5200FCEA6EEA72EC0E94A31B18F40E94EA19C7
:102A62007BC00E948E190E94F01C19F40E947116FC
:102A720073C00E94E519E8E1F2E761EB72E40E949B
:102A8200A31B09F010F40C944B15EFEFFFEF6FE767
:102A92007FE762C00E94E519EBE3FAEA68EB7FE3A5
:102AA2000E94101B0E9487190E94E51932DF0E94C2
:102AB2004F1A8F01F8010E94E5190E94C3170E9464
:102AC200CD17DF01CB01E0E0F0E060E07FE30E94A0
:102AD200CD170E94D1190E94D6190E94D819ADE6CD
:102AE200BCE48CE69DE30E94101BA6EAB3EE86EEE0
:102AF20090E40E94C01A0E94C7190E94101B0E94F3
:102B0200D1190E94E019A8E2BDE886EA91E40E9488
:102B1200C01A0E9429190E94CC190E941D190E94F4
:102B2200C01AA3EFB4E085EB9FE30E94101B7F93D2
:102B32006F93FF93EF930E94C7190E94E0190E94BE
:102B4200B91AAF91BF918F919F910E945E1B0E9413
:102B5200C51CD8010E940E1A198108812E9608956B
:102B62000E94CA1C24970E9435180E94F01C19F476
:102B72000E94EA1943C0A885B9858A859B850E946F
:102B8200F81C84F40E94E4170E94F01C19F40E94BD
:102B9200711634C0A885B9858A859B850E94EF1974
:102BA2004FDF2CC00E94E417DE010E944F1A0E94E0
:102BB200AC1C0E943A180E94861ADF01CB010E94C7
:102BC200E4170E94FE1C19F00E94EA1917C00E9425
:102BD20035180E941A1ADF01CB010E94EF1930DF6B
:102BE200E887F9876A877B87E881E17019F40E9498
:102BF200351804C00E9435180E941A1A2C9608959E
:102C0200AA93E1E0F991F03210F0F03808F0EE27E3
:102C120008951A930A9300E010E00895A5E9B8E038
:102C2200EE0FFF1F08950E94101C0E94C51C84E035
:102C32000E94500626960895ED91FD913196FE93DD
:102C4200EE930895E091D108F091D2080895A091F1
:102C5200DE08BB270E94760EE09392080895E09169
:102C6200DE08F0E0FA93EA930895E0E0F0E069E329
:102C720073E4E0933608F093370860933808709352
:102C82003908A0E0B0E00E94DC1C0895DF01CB010E
:102C92000E94F81C0895E0933608F0933708609379
:102CA2003808709339080895FA93EA9380E00E94F5
:102CB20050062296EBEEF0E0FA93EA93E0E0F0E0C1
:102CC20060E87FE30E94C51C84E00E9450062696BD
:102CD2000895FA93EA9380E00E945006229608959E
:102CE200E0E0F0E060E87FE308950E94C51C84E024
:102CF2000E94500626960895E0913608F091370812
:102D020060913808709139080895E0913208F09185
:102D1200330860913408709135080895E0E9E09332
:102D2200EE08E093EF08E5EAE0930F09E1E0E093B3
:102D320010090895A0E0B0E008950E94EA08A4E610
:102D4200B0E00C94F319A4E6B0E00C94F319E0910E
:102D52006500E460E0936500AF980895A091920841
:102D62000C94690EA1E0B0E00895A2E0B0E00895ED
:102D7200F40131964F01D401EAE0F0E00E94711CA7
:102D820030970895A8ECB0E00C94F319E093920800
:102D920066CFE4E0F0E0E0932A06F0932B06089574
:102DA200E0916500EB7FE0936500AF9AE0E0EECF43
:102DB200E3E0F0E0E0932A06F0932B060895FE018B
:102DC2003296FA93EA930895BA93AA932497E0E08D
:102DD2000895EE81FF81FA93EA930895AC85BD854B
:102DE2000C94BD06A885B985EA0FFB1F0895FA93D6
:102DF200EA93DA01EC91FF276627772776CFEBEA91
:102E0200E0938900E0EAE093880008950A921A921A
:102E1200FA926A937A938A939A93AA93BA93EA93C9
:102E2200FA93EFB7EA931A930A93089566277727DE
:102E32005CCFA981BA81EE27A10FBE1F08950E941F
:102E4200B61CE036A9E0FA07A0E06A07A0E07A071C
:102E52000895E038A5E2FA07A0E06A07A0E07A0741
:102E62000895E034A8E3FA07A0E06A07A0E07A0731
:102E72000895E030ABE4FA07A0E06A07A0E07A0721
:102E82000895E030A6E9FA07A0E06A07A0E07A0711
:102E92000895E030A1EEFA07A0E06A07A0E07A0701
:102EA2000895E030A2ECFA07A1E06A07A0E07A07F1
:102EB2000895FA93EA93A8E0B0E00C947506A8E0AE
:102EC200B0E00895F801AC81BD81AE0FBF1F089537
:102ED200A981BA811296AC910895A981BA811396FB
:102EE200AC910895E2E8F8E0FA93EA930895EB8151
:102EF200FC813596FA93EA93A4E0B0E00C94211495
:102F0200A981BA819096AC910895EAE8F8E0FA9323
:102F1200EA93EB81FC813196FA93EA93D0CF0E9437
:102F2200211490DE7BCE8EDE79CEAF9AE0916500E1
:102F3200EB7FE09365000895EA93A0E0B6E980E0B4
:102F420090E00C948008E0E0CF99E1E00E2EA0E042
:102F5200CE99A1E0EA2FEE0F0E2AA0E0CD99A1E0D2
:102F6200EA2FEE0FEE0F0E2AA0E0CC99A1E0EA2F95
:102F7200EE0FEE0FEE0FE0290895EC85FD856E85CC
:102F82007F8508950E94101C0E94861A0895AC85C0
:102F9200BD858E859F8508950E94CF1C0E94B91A17
:102FA2000895EC83FD836E837F830895E0E0F0E073
:102FB20060E271E40895AC81BD818E819F810895A4
:102FC2000E94101BEECFEC81FD816E817F810895FE
:102FD200AA93E1E8F9E0FA93EA93EAE8F8E0FA93CF
:102FE200EA936DCF0E942114EEE8F9E0FA93EA9396
:102FF20079CF0E942114E6E9F9E0FA93EA93EAE82C
:10300200F8E0FA93EA935BCF0E942114E3EAF9E035
:10301200FA93EA93D4CEE093A109E981E093A2095D
:10302200EFE7F9E0FA93EA93A0917E09B0E00E94FB
:103032001F09E093A4090895ECE7F9E0FA93EA93F3
:10304200A9E2B0E00895FA93EA93EAE8F8E0FA9385
:10305200EA9335CFE5E5F9E0FA93EA93A7E2B0E027
:103062000895FA93EA9381CEE885F9856A857B858E
:1030720008950E94B61C0895FA93EA9320CFE5EAD8
:10308200F9E0FA93EA93ACE4B0E00895E0913008F5
:10309200F09131080895A0916408B091650880917B
:1030A2006608909167080895662777270E94861A16
:1030B2000E945E1B0895A0916808B09169088091F2
:1030C2006A0890916B080895E0937808F093790864
:1030D20060937A0870937B080895A0916C08B09170
:1030E2006D0880916E0890916F080895E0917408C0
:1030F200F091750860917608709177080895E091D3
:103102007808F091790860917A0870917B080895A7
:10311200E0917C08F0917D0860917E0870917F08B3
:103122000895A0917808B091790880917A089091D9
:103132007B08E0E0F0E06AE774E40895A09170088B
:10314200B091710880917208909173080895A091CE
:103152003608B0913708809138089091390808955F
:10316200A0917808B091790880917A0890917B08B3
:1031720008950E944E0EE0933A08F0933B0808959A
:10318200E0913A08F0913B080895FADF6627772725
:103192000E94861A0895E0914008F09141086091DA
:1031A2004208709143080895A0914408B0914508DF
:1031B200809146089091470808950E94C01ADF0145
:1031C200CB010895E8DFF0DF0E94A31B0895A091D0
:1031D2003C08B0913D0880913E0890913F080895C7
:1031E2000E94101BDF01CB010895A0915408B091F9
:1031F200550880915608909157080895E091540817
:10320200F091550860915608709157080895E09121
:103212005808F091590860915A0870915B08089516
:10322200E987FA876B877C870895AE81BF81119603
:10323200AE83BF8311970895AA81BB818C819D8142
:103242000895EDECFCEC6CEC7DE30E94101B0895FC
:10325200EA83FB836C837D830895EA81FB816C8121
:103262007D81A985BA858B859C8508959FDE0E9404
:10327200101B0895A0E0B0E080E09FE30895E02FE6
:10328200E05DEC93E02FF0E00895A985BA858B8587
:103292009C85089590DE8ADE93CE95DE78DE0E94CC
:1032A200A31B0895EC87FD876E877F870895A88505
:1032B200B9851196A887B98711970895E885F98588
:1032C2003196E887F98708952A93AF81B885E98511
:1032D200FA8509950895FE01E65AFF4F0190F081A3
:1032E200E02D08953497DE01A65ABF4FED93FC936B
:1032F2000895AF81B885E985FA8509950895DE01BB
:10330200A65ABF4F0D90BC91A02D0895EA87FB8766
:103312006C877D870895DFDFE5CFEA85FB856C85C5
:103322007D850895EE87FF87AE85BF850E94401494
:103332001E2F0895E4DF14960E949D1C0895E88BC9
:10334200F98B6A8B7B8B08950B7FED89EA93DE0103
:10335200A95ABF4F0D90BC91A02DFE01E75AFF4F15
:103362000190F081E02D099550300895E889F9899E
:103372006A897B89AA85BB858C859D850895A0E095
:10338200B0E080E89FE30E94B91A0895AE81BF8140
:10339200888599850895EE81FF81688579850895EC
:1033A200EE83FF83688779870895F5DFEFCF0E9468
:1033B200101B4EDFEA81FB816C817D810895EA81D9
:1033C200FB816C817D810895AA85BB858C859D8555
:1033D2000895E0E0F0E060E070E008950E949D143E
:1033E200EADDFECE109639F08DEC9AE00197F1F706
:1033F200A8951197C9F70895E991F9916991799181
:1034020077FB660F771F88277E57880B7D938C93F7
:103412007EE7769567956EF00895E991F991699145
:10342200799177FB660F771F7A0F769567950EF085
:10343200089530976040704009F070580895552300
:1034420042F4503811F4E0FF04C03196691F791F2D
:103452006BF050E8572711F45F93CFC05F3F31F014
:10346200660F000C57956795752F08955F9300209E
:103472000AF0CFC0C8C050E8192E1522880F991F34
:103482009527550F879550E8072E0522660F771F5F
:103492007527550F67950895689401C0E8945F9366
:1034A200F2DF703818F07F3F08F4A7C056E1571BCF
:1034B200AAF4519558300EF4593030F0EFEFFFEF87
:1034C2006FEF7FE777F91AC077275523B9F0EE0F30
:1034D200FF1F661F771F5A95D1F710C07727583004
:1034E20028F0EF2FF62F672F5850F9CF552331F0E0
:1034F20076956795F795E7955A95D1F700200AF4E6
:1035020080D15F910895689401C0E894309760403B
:103512007040B1F0002426F0772312F4009471D1A8
:10352200172E7EE1112032F07A95EE0FFF1F661FF3
:10353200111CF9CFEF2FF62F612D5F938ADF5F9178
:1035420008954F93AF01FD01DA01AB01BC01CA013D
:10355200402D012C142E4F910895EA0FFB1F681F76
:103562000895E095F0956095EF5FFF4F6F4F0895D6
:103572005F9381DF903871F150E8152604C05F93A4
:103582007ADF903839F1703821F1572F591B2BF11E
:1035920012F4D7DFFACF583118F0AA27BB278827B1
:1035A200583028F0AB2FB82F88275850F9CF552321
:1035B20029F08695B795A7955A95D9F7502D51259B
:1035C20072F0CBDF38F46795F795E795739513F4AE
:1035D20020C0B7DF3EDF5F910895D8F7FBCFEA1B2B
:1035E200FB0B680B51F010F40094BBDF662392F3DF
:1035F200EE0FFF1F661F7A95CBF7EE27FF27662790
:1036020077275F910895EFEFFFEF6FE77FEF5F910D
:103612000895EFEFFFEF6FE77FE75F9108955F9304
:103622002ADF703851F3903841F301240894791F4E
:1036320023F41CF300203AF3ECCF0F921F932F9345
:103642003F934F93112722279927689FA0018F9FAD
:10365200302D410D591F6B9F300D411D591F8E9FFB
:1036620027D0BF9F25D06A9F23D0BE9F1DD0AF9F7A
:103672001BD0AE9F110D291F391F491F591FE32F60
:10368200F42F652F522F4F913F912F911F910F9041
:1036920066232AF0550FEE1FFF1F661F02C07395A7
:1036A2004BF2CDDE5F910895100D211D391F02C02E
:1036B200200D311D491F591F08955F93DCDE7038BC
:1036C20021F411200AF49FCFA4CF903809F495CFAA
:1036D20001240894970B1BF4D4F30020F3CF792F25
:1036E2001F932F933F934F931124112722273327A0
:1036F2004427552790E2AE17BF078607410730F0EF
:10370200AE1BBF0B860B410B089401C08894551F5A
:10371200221F331F111CAA1FBB1F881F441F9A950B
:1037220051F7F901612D4F913F912F911F9166231E
:1037320032F0550FEE1FFF1F661F7A9543F27FDEB0
:103742005F91089599239AF0772342F0971748F0F2
:1037520029F4AE17BF07860720F031F098948894B9
:103762000895989408940895189488940895772356
:10377200C2F7971798F3A9F7EA17FB07680788F3C8
:1037820099F3ECCF06D124975F939F81992311F48B
:10379200289633CF12F428963CCF4F9342E48E8181
:1037A200BD81AC8188839983AA83BB83FD01BC015F
:1037B200AC81BD818E819F8180DF88819981AA81C0
:1037C200BB81DDDE60DE7A9544DE88819981AA8143
:1037D200BB81AE27A87F21F4BF178607970729F080
:1037E2004A9519F0DF01CB01DDCF4F915F91289609
:1037F20008950024AF0DB01D0895F195E195F040B4
:103802000895F09560957095E195FF4F6F4F7F4F4A
:103812000895FE2FFF0FFF0B6F2F7F2F08956F2F3D
:10382200660F660B762F0895002498E0AA0F001CFD
:103832000E1A10F40E0E01C0A1609A95B9F7EA2F84
:10384200A02D08955FD0F0DF0EF4E19508950024D5
:10385200112490E1AA0FBB1F001C111C0E1A1F0A93
:1038620018F40E0E1F1E01C0A1609A9599F7FD0172
:10387200D001089553D0EBDF0EF4BFDF08953F93DC
:103882004F935F93002411244427552730E2AA0F57
:10389200BB1F881F991F001C111C441F551F0E1AA5
:1038A2001F0A460B570B28F40E0E1F1E461F571FEA
:1038B20001C0A1603A9559F7FD01BC01D001CA01CE
:1038C2005F914F913F910895E894A7FF02C0A1959F
:1038D2006894E7FDE195A8DFEA2F0EF4E1950895DB
:1038E200E894B7FF04C0A095B09511966894F7FDCF
:1038F20084DFADDFFD010EF480DF0895C0DFFD013E
:10390200BC010895E894E7FF02C0E1956894A7FF1F
:1039120004C0A19500F8039400FA0895E894F7FF13
:1039220002C06BDF6894B7FF06C0A095B0951196F0
:1039320000F8039400FA0895ED91FC91119708950F
:10394200ED91FD916D917C9113970895ED91FD910B
:103952006D917D910895ED93FD936D937C93089500
:103962007E936E93FE93EE930895E881F9816A81C6
:103972007B810895A881B9818A819B810895E8831A
:10398200F9836A837B8308957A936A93FA93EA931D
:1039920008959A938A93BA93AA930895182E862F1C
:1039A200612D192E972F712D1B2EBF2FF12D1A2E3F
:1039B200AE2FE12D0895129602D0BF0112971196F3
:1039C20002D0FE2F1197E199FECFFF93FFB7F89433
:1039D200AEBBBFBBE09AEDB3FFBFFF910895309736
:1039E20060407040089500240A160B0608950024D2
:1039F2000A160B06080609060895EA17FB07680768
:103A0200790708955A934A933A932A931A930A93F9
:103A120008955D814C813B812A8119810881089535
:00000001FF
