:040000000C94FE035B
:100004000C9400000C9400000C9400000C9400006C
:100014000C9400000C9400000C9400000C9400005C
:100024000C9400000C9400000C9400000C9400004C
:100034000C9400000C9402070C9400000C94F40639
:100044000C9400000C94A3070C9400000C94000082
:100054000C9400000C9400000C9400000C9400001C
:100064000C9400000C9400000C9400000C9400000C
:100074000C9421070C94C9070C9400000C94000004
:100084000C9400000C94000000000000000000002C
:1000940000000000000000FFFFFFFF0000000D0A49
:1000A4002B2B2B2B2B2B2B2B2B2B20536D61727477
:1000B40020537769746368202B2B2B2B2B2B2B2B32
:1000C4002B2B0D0A000D0A4669726D77617265204B
:1000D40056657273696F6E203A2025302E31660D95
:1000E4000A0043757272656E742053656E736F7285
:1000F4002020203A20414353373132454C43545257
:100104002D3035422D54202825302E3166206D5651
:100114002F416D702E290D0A000D0A2B2B2B2B2B32
:100124002B2B2B2B2B20536D61727420506C756715
:10013400202B2B2B2B2B2B2B2B2B2B0D0A0043751E
:100144007272656E742053656E736F722020203A4C
:1001540020414353373132454C4354522D323041C0
:100164002D54202825302E3166206D562F416D7078
:100174002E290D0A000D0A2B2B2B2B2B2B2B2B2B73
:100184002B20536D61727420427265616B6572201D
:100194002B2B2B2B2B2B2B2B2B2B0D0A004375726C
:1001A40072656E742053656E736F722020203A203E
:1001B400414353373132454C4354522D3330412D52
:1001C40054202825302E3166206D562F416D702E17
:1001D400290D0A0052656164204469702D537769C2
:1001E400746368204552524F52210D0A000D0A2BA8
:1001F4002B2B2B2B2B2B2B2B2B2044656661756C07
:10020400742054797065203A20536D6172742053C0
:100214007769746368202B2B2B2B2B2B2B2B2B2BED
:100224000D0A0043757272656E74204D65617375B5
:10023400726520203A203E2025302E326620416D02
:10024400702E0D0A000D0A2D2D2D2D2D2D2D2D2056
:10025400496E697469616C20436F6D706C65746577
:10026400202D2D2D2D2D2D2D2D0D0A000D0A2D2D7A
:100274002D2D2D2D2D2D2053746172742050726FED
:100284006772616D202D2D2D2D2D2D2D2D0D0A0024
:100294000D0A2D2D2D2D2D2D2D2D2049646C65201D
:1002A4002D2D2D2D2D2D2D2D0D0A000D0A2D2D2D2D
:1002B4002D2D2D2D2D20504F50204556454E542088
:1002C4002D2D2D2D2D2D2D2D0D0A000D0A2D2D2D0D
:1002D4002D2D2D2D2D20416374697665202D2D2D16
:1002E4002D2D2D2D2D0D0A002530356420202000C4
:1002F4002530325820002563002E000D0A00574196
:10030400524E494E47203A205541525430204255CE
:1003140046464552204F564552464C4F5720256479
:100324000D0A00007E0004080141496C7E000408A7
:1003340001534C577E0004080153485B0D0A202BDF
:100344002B2B2B2B2B2B2B2B2B2053656E6420411B
:1003540049202B2B2B2B2B2B2B2B0D0A000D0A208A
:100364002B2B2B2B2B2B2B2B2B2B2053656E642011
:100374005348202B2B2B2B2B2B2B2B0D0A000D0A38
:10038400202B2B2B2B2B2B2B2B2B2B2053656E64F1
:1003940020534C202B2B2B2B2B2B2B2B0D0A000DFE
:1003A4000A202B2B2B2B2B2B2B2B2B2B2052656337
:1003B40072656976652044617461202B2B2B2B2B8D
:1003C4002B2B2B0D0A007E002310010000000000DF
:1003D400000000FFFE0000300000000000000000EC
:1003E40000000000000000007E0001A17E00231038
:1003F400010000000000000000FFFE0000300000CB
:1004040000000000000000000000000000007E006A
:1004140001A47E002510010000000000000000FF80
:10042400FE0000300000000000000000000000009A
:10043400000000007E0001A501007E0048100100BC
:1004440000000000000000FFFE000030000000007B
:100454000000000000000000000000007E0026A74D
:100464000101000000000000000002000000000084
:1004740000000003000000000000000004000D0A5A
:10048400202B2B2B2B2B2B2B2B2B2B2053656E64F0
:10049400204C4544202B2B2B2B2B2B2B2B0D0A00D4
:1004A4000D0A202B2B2B2B2B2B2B2B2B2B2053658B
:1004B4006E64204A6F696E202B2B2B2B2B2B2B2B3E
:1004C4000D0A000D0A202B2B2B2B2B2B2B2B2B2B2C
:1004D4002053656E642050696E67202B2B2B2B2BC9
:1004E4002B2B2B0D0A000D0A202B2B2B2B2B2B2B0C
:1004F4002B2B2B2053656E64204556454E542052B9
:100504004543495645202B2B2B2B2B2B2B2B0D0AEC
:10051400000D0A202B2B2B2B2B2B2B2B2B2B20537F
:10052400656E64205245504F5254202B2B2B2B2B9D
:100534002B2B2B0D0A000D0A3D3D3D3D3D3D3D3D20
:100544003D3D3D3D3D3D3D3D3D3D3D3D3D3D3D3DD7
:100554003D3D3D3D3D3D3D3D3D3D3D3D3D3D3D3DC7
:100564003D3D3D3D3D3D3D3D3D3D3D3D3D3D0D0A1A
:10057400005673756D203D2025302E3466202000F2
:100584004973756D203D2025302E3466202000509F
:1005940073756D203D2025302E34660D0A0056619A
:1005A4007667203D2025302E3466202020004961C6
:1005B4007667203D2025302E3466202020005061AF
:1005C4007667203D2025302E34660D0A005761746D
:1005D400742D486F75722053756D203D2025302E83
:1005E40034660D0A004E756D6265722053616D703C
:1005F4006C696E67203D2025640D0A003D3D3D3D3C
:100604003D3D3D3D3D3D3D3D3D3D3D3D3D3D3D3D16
:100614003D3D3D3D3D3D3D3D3D3D3D3D3D3D3D3D06
:100624003D3D3D3D3D3D3D3D3D3D3D3D3D3D3D3DF6
:100634003D3D0D0A0D0A0043757272656E742045C6
:100644007863656564202D2D535749544348204FE2
:100654004646210D0A004000050000401C45414467
:1006640043203D2025640D0A00566F6C74203D2004
:1006740025660D0A00004556454E54203D2025644C
:100684000D0A00636F756E745F6576656E74203D48
:100694002025640D0A000D0A2D2D2D2D2D2D2D2D17
:1006A400204A4F494E542053554343455353202D1C
:1006B4002D2D2D2D2D2D2D0D0A000D0A2D2D2D2D19
:1006C4002D2D2D2D205245434956452050494E4746
:1006D400202D2D2D2D2D2D2D2D0D0A000D0A202B15
:1006E4002B2B2B2B2B2B2B2B2B205F6576656E74E2
:1006F400203D3D20353130207C7C205F6576656E61
:1007040074203D3D20353131202B2B2B2B2B2B2BD3
:100714002B0D0A000D0A2D2D2D2D2D2D2D2D2052A2
:100724004543495645204556454E54202D2D2D2DE3
:100734002D2D2D2D0D0A000D0A2D2D2D2D2D2D2D98
:100744002D2053454E44204556454E542053554381
:1007540043455353202D2D2D2D2D2D2D2D0D0A00C8
:100764000D0A2D2D2D2D2D2D2D2D2053454E44209C
:100774005245504F52542053554343455353202D13
:100784002D2D2D2D2D2D2D0D0A0001002D4E414E08
:1007940000494E4600002D4E414E0000010002006B
:1007A4008C000400000D8E000D00DF089200020092
:1007B4000800A0000800EC0828030800F40830032F
:1007C4000800FC08380326000409CA0326002B0984
:1007D400F00327005209160443007B093E0401007C
:1007E400E7095A0601009E085C06040040085E06FC
:1007F4000100E8098E070000F894EE27ECBBF1E055
:10080400F5BFE5BFE0936C00F8E1F1BDE1BD8DE01B
:10081400A2E0BB27ED938A95E9F780E090E1A0E0A0
:10082400B1E0ED930197E9F7E0EAF7E0859195915E
:10083400009761F0A591B59105901590BF01F00165
:1008440005900D920197E1F7FB01F0CF8BBFEFEF1D
:10085400EDBFECE0EEBFC0E0D6E00C9443040E9490
:10086400151629F40E941B16AF9AE0E006C0A88171
:10087400B981119721F40E942116E09392080C94F7
:10088400D208662477240E942916A0919208AF3FCB
:1008940039F40E943116A0E00E94B20D0E9429167C
:1008A4000E94340A5E2E5520D9F70E946B0A4E2E00
:1008B400EFE0E41531F50E9437160E9448164CF417
:1008C400DF01CB01EFE8F2EC65EF7DE30E94AC1BA6
:1008D40008F005C0A0E0B0E00E94E51C04C0ECEE06
:1008E400F1E568EB7DE3E0933208F093330860931D
:1008F400340870933508E2E1E093E708E2EAF0E0B7
:1009040081C0EEE0E41591F5E0E0F0E068EC72E41B
:100914000E944D16A4E0B0E00E94E51C0E94481617
:100924004CF4DF01CB01E9E2FCE56FE07EE30E94D9
:10093400AC1B08F005C0A4E0B0E00E94E51C04C0B4
:10094400EEEAF7E461EE7DE3E0933208F0933308D6
:100954006093340870933508E1E1E093E708EDE132
:10096400F1E00E945616E2E4F1E05BC0EDE0E4152C
:1009740091F5E0E0F0E064E872E40E944D16A8E02E
:10098400B0E00E94E51C0E9448164CF4DF01CB0144
:10099400EAE9F9E969E17EE30E94AC1B08F005C0CD
:1009A400A8E0B0E00E94E51C04C0EFE8F2EC65EFBB
:1009B4007DE3E0933208F093330860933408709336
:1009C4003508E3E1E093E708E9E7F1E00E94561611
:1009D400E1EAF1E026C0E0E04E162CF4E8EDF1E0A7
:1009E4000E946B1624C00E943716E0933208F093DD
:1009F40033086093340870933508E2E1E093E70824
:100A0400E1EFF1E0FA93EA9380E010D12296E9EC69
:100A1400F0E0FA93EA930E9472160E947716E6EECB
:100A2400F0E0FA93EA930E947E160E947716E0E0C3
:100A34004E160CF43ACFE7E2F2E0FA93EA930E94FE
:100A440087160E9477167894E9E4F2E00E946B1608
:100A5400A8E8B3E10E94FC19E0E7F2E00E946B16FB
:100A64000E94F009E0912A06F0912B063097C1F418
:100A74000E9490160E949316A0919208A13079F4D6
:100A84000E9499160E949D160E94A0160E94A31609
:100A9400E1E0F0E03F01AFEFB1E00E94510FC4C0CC
:100AA400E130A0E0FA0729F40E949D160E949316F3
:100AB400BBC0E230A0E0FA0729F40E94A7160E9406
:100AC4009316B2C0E330A0E0FA0791F5A0EDB7E0C9
:100AD4000E94FC190E94610B0E949916989927C0E4
:100AE4000E949916E0919208E03069F40E94211660
:100AF400E09392080E949D160E94A0160E94A316DD
:100B0400AFEFB1E012C0A0919208A13081F4AF9A86
:100B14000E941B16E0E0E09392080E9490160E9447
:100B2400A0160E94A316AEEFB1E00E94510F7CC044
:100B3400E430A0E0FA0711F00C94E905E4E9F2E0EE
:100B44000E946B160E94AA1631F40E94640FEFEA09
:100B5400F2E00E946B16E1E0F0E0E615F70599F487
:100B6400A0919208A13019F4E5E0F0E006C0E0910C
:100B74009208E03031F4E4E0F0E0E0932A06F093E8
:100B84002B0666247724989921C00E94B416E0911C
:100B94009208E03069F40E949D160E94A0160E94FB
:100BA400A316E5E0F0E00E94B816AFEFB1E00CC088
:100BB400A0919208A13051F40E9490160E94A016B0
:100BC4000E94A3160E94BD160E94510F2DC0E5304D
:100BD400A0E0FA0749F5EFECF2E00E946B160E94E0
:100BE400CB0D0E94410E0E94AA1631F4EFEAF2E006
:100BF4000E946B160E94640FA0913008B0913108D6
:100C0400A83EE3E0BE0711F40E944C0C98990CC076
:100C14000E94B4160E9490160E94A0160E94A31669
:100C24000E94BD160E94510F1BCFFFCFFF92F82EDA
:100C3400D1501A930A93DE01A250BF4F0E94031CA5
:100C44008D010E94C316DE01AC5FBE4F0E94031CDF
:100C54000E94A61CFA93EA93D8010E940114E0E0D2
:100C6400EA93DE0113960E941308198108812296E3
:100C7400DF5FFF9008950E94C816EA83E0E0EB83EB
:100C84000E940C1D0A851B8520E130E0EC85FD8562
:100C9400EE83FF83AA85BB850E94FD1C84F52A1779
:100CA4003B074CF00E94CD16EC85FD85FA93EA9340
:100CB4000E94D21624C0F801D9010E947A1CAF0107
:100CC4000E94CD165A934A930E94D216041B150B08
:100CD400FA01AE81BF81EA0FFB1FEE83FF83F901A6
:100CE4000E94D616E887F987201731073CF00E9446
:100CF400CD161A930A930E94D21601C0DCCF0E942B
:100D0400131D2E960895BA93AA930E940C1DECEE1F
:100D1400F2E0FA93EA93E885F9850E94DB164A85A6
:100D24005B8500E010E0E885F9850E171F0794F451
:100D3400E4EFF2E00E94DE164F5F5F4FE7E0F0E081
:100D4400E017F10721F4E2EFF2E00E946B160F5F67
:100D54001F4FE9CFA885B985189724F4E2EFF2E094
:100D64000E946B16A885B98550979CF4A885B9850F
:100D7400E0E1F0E0EA1BFB0B9F0100E010E002174A
:100D840013073CF4E0EFF2E00E946B160F5F1F4F75
:100D9400F6CFE0EFF2E00E946B164A855B8500E037
:100DA40010E0E885F9850E171F07A4F4DA01AC9169
:100DB4000E940C16E03029F0EAEFF2E00E94DE1601
:100DC40004C0EDEFF2E00E946B164F5F5F4F0F5FC0
:100DD4001F4FE7CFEFEFF2E00E946B160E94131D46
:100DE4002C960895AA93EA93EFB7EA93E7EDE2BF4E
:100DF400A0910006A13019F4E1E0E0939C083EC004
:100E04006A937A93AA93BA93EA93FA93EFB7EA931D
:100E1400E7E5EDBDE0E4ECBDA5E9B8E00E94B01C57
:100E2400EF5FFF4F6F4F7F4F0E94BA1CE991EFBFF6
:100E3400F991E991B991A991799169911895AA9338
:100E4400EA93EFB7EA930E94E616E0919A08E0303D
:100E540029F0E0919908EF5FE0939908A0910006CA
:100E6400A13019F4E1E0E0939B08E0919D08E030A3
:100E740029F09F9B02C0AF9801C0AF9AE991EFBFE0
:100E8400E991A9911895E0E0E0BFE6E0E3BFE7ED62
:100E9400E2BFE0E0E1BFEFBDE4E0EEBDE7E5EDBDBC
:100EA400E0E4ECBDE0E0E7BDE6BDEBBDEABDE9BDD5
:100EB400E8BDE0937900E0937800E5BDE4BDE3BDCF
:100EC400E0938B00E4E0E0938A000E94E616E0E001
:100ED400E0938100E0938000E0938700E093860034
:100EE400E0938500E0938400E0938300E093820024
:100EF400EFE1E1BDEFE0E1BDE0E0E7BFE7BFE09394
:100F04007D0008950E94151621F4E7B7E160E7BF5C
:100F140015C0E130A0E0FA0721F4E7B7E460E7BFC9
:100F24000DC0E230A0E0FA0749F0E330A0E0FA0790
:100F340029F4E0917D00E460E0937D0078940C94C2
:100F4400D2080E94ED161BB10CB1E12FEC71C1F473
:100F5400A02F17D0043209F4DD24ED2DD394F0E052
:100F6400E65FF94F0083E0E2DE1608F0DD24033289
:100F740039F4ED2DE150CE2EDD24E1E0E0930906B5
:100F840036C0AA935D9BFECFE881ECB948C00E94AD
:100F9400ED1610919B0000919C00E12FEC7139F546
:100FA400F50131965F013197E05DF94F0083E0E090
:100FB400F2E0EA15FB0511F4AA24BB24AEE2B6E084
:100FC4000E94FD16E030A2E0FA0789F4E2E0F3E0C3
:100FD400FA93EA93E0912E06F0912F060E940317EC
:100FE400E0E0E0932E06E0932F06689420F8099140
:100FF4001991E991EFBFF991E991B991A991999169
:10100400899179916991F990199009901895AA9309
:10101400E0919B00E072E1F3E881E0939C0021966B
:101024000895BA93AA931A9310E0EB81F0E03097F5
:1010340061F40E940617EC91E03031F00E9406172B
:10104400AC919FDF1F5FF5CF0FC0E130A0E0FA073E
:1010540059F40E940617EC91E03031F00E94061713
:10106400AC91D5DF1F5FF5CF1881C8C00E94D31C97
:10107400EC81F0E0309771F5E0E0EBB9E8E9EAB92A
:10108400E6E0E0939500E0E0E09390000E940C1706
:1010940011F4EFE11DC00E941617C9F00E941E173B
:1010A40011F4EFE215C00E94261711F4E3E210C018
:1010B4000E942E1711F4E1E10BC00E94361711F4BF
:1010C400EBE006C00E943E1711F4E5E001C0E7E43E
:1010D400E9B934C0E130A0E0FA0781F5E0E0E0933B
:1010E4009B00E8E9E0939A00E6E0E0939D00E0E0ED
:1010F400E09398000E940C1711F4EFE11DC00E94C8
:101104001617C9F00E941E1711F4EFE215C00E94D1
:10111400261711F4E3E210C00E942E1711F4E1E146
:101124000BC00E94361711F4EBE006C00E943E1774
:1011340011F4E5E001C0E7E4E093990025960895F1
:101144000E94151659F4E0E4F3E00E946B16ECEEED
:10115400F8E00E944617ECEEF8E01DC0E130A0E094
:10116400FA0759F4E1E6F3E00E946B16ECEFF8E0BD
:101174000E944617ECEFF8E00EC0E230A0E0FA0758
:1011840079F4E2E8F3E00E946B16E4EFF8E00E94E1
:101194004617E4EFF8E0FA93EA930E944C1709D15A
:1011A40022960895BA93AA930E940E1D30E000E09F
:1011B40010E0EC81FD810E171F0754F4F801AE8195
:1011C400BF81AE0FBF1FEC913E0F0F5F1F4FF1CFDA
:1011D400E32FF0E0F070AFEFB0E00E94DE1CEA1BFA
:1011E400FB0B0E94151D0C94E70ABA93AA93EA819B
:1011F400FB81FA93EA93AA81BB81DBD024960895FC
:101204000E944F1703E010E0AA81BB81169708F4EF
:10121400E1C0E3EAF3E00E946B16EC81FD81FA93EE
:10122400EA93AC81BD810E943D060E94541701D00F
:10123400D1C0BA93AA931A93A981BA811C91E12FC0
:10124400F0E0E838A0E0FA0791F50E945A17A134BB
:1012540021F40E945F17A93409F003C0E1E0F0E033
:1012640021C00E945A17A33521F40E945F17A834A5
:1012740009F007C00E9464170E946917E2E0F0E0D9
:1012840011C00E945A17A33521F40E945F17AC3491
:1012940009F00CC0E6E8F8E0FA93EA930E946917B3
:1012A400E3E0F0E0E0932A06F0932B0660C0E03917
:1012B400A0E0FA0711F00C94B9090E947217A23A3F
:1012C40039F40E9477170E942C140E9481174FC092
:1012D4000E947217A33A39F40E9477170E94841768
:1012E400E3E0F0E03EC00E947217A53AD9F40E94F0
:1012F40077170E942C14A981BA819296AC91A130DF
:1013040029F40E949117EFEFF1E009C0E981FA8115
:10131400E2A1E03031F40E949117EEEFF1E0ED9399
:10132400FC9321C00E947217A63A89F4E981FA81DC
:10133400E1A1E0939308E981FA81E2A1E0939408A2
:101344000E9477170E948417E6E0F0E00AC00E942A
:101354007217A83A61F40E9477170E948417E8E094
:10136400F0E0ED93FC93ABEDB8E00E94FD16E09144
:10137400DB08F091DC0831970E949C17AE0FBF1F69
:101384000E94A61C309739F00E9491170E94A61C57
:10139400DF010E949A0FA091DB08B091DC085E97F0
:1013A40029F4E0E0E093DB08E093DC0818810C9476
:1013B400BD0D0E944F1700E010E0EA81FB810E177B
:1013C4001F0738F40E945417AC9121DE0F5F1F4FA2
:1013D400F4CFF8011981088126960895D1500E940E
:1013E4000C1D20E030E040E050E00E949916A091EE
:1013F4002E06B0912F060E94FD1C48F5ACE2B6E023
:101404000E94FD163197E05DF94F1081FA014F5F9C
:101414005F4FDE011696EA0FFB1F10832F5F3F4FCD
:10142400A0912C06B0912D06A030E2E0BE0729F46D
:10143400E0E0E0932C06E0932D06F894AEE2B6E0EB
:10144400ED91FD913197FE93EE937894D0CFFE0108
:101454003696FA93EA93D901D3DE0E94131D269699
:10146400DF5F08951AD0E0E00E94A117E1E00E9436
:10147400A1170E9445070E9490160E9484070E94AB
:101484009D160E948407A3E0B0E00E948407A0E4B4
:101494000E948C0DE0E0F0E00895A098A89AD798F7
:1014A400D698D598D498A79AE0916400E460E09324
:1014B4006400129AE0916400E860E0936400AF9ADB
:1014C4000E941B161A9AE0916500E77FE09365007D
:1014D40008951A930A930E94A8171E2F0E94991622
:1014E4000E94A8170E2F011711F4E12F01C0EFEF8E
:1014F400099119910895BA93AA930E940C1D00E0D2
:1015040010E0EE81FF8131979F0102171307DCF48D
:10151400F801A885B985AE0FBF1F4C9155270E94CD
:10152400D6160F01F901A885B985AE0FBF1FEC913E
:10153400D001EC93F9010E94D61640830F5F1F4F30
:1015440021503040E2CF0E94131D2A9608950E9434
:101554004F1700E010E0EE81FF813097D1F0F801E1
:101564000F5F1F4FAC81BD81EA0FFB1FBF01AE812E
:10157400BF81EAE0F0E00E947A1CE05DDB01EC93BD
:10158400AE81BF81EAE0F0E00E94441CEE83FF8359
:10159400E2CFEA81FB810E171F0754F4F8010F5FB5
:1015A4001F4FAC81BD81AE0FBF1FE0E3EC93F1CFC1
:1015B400EC81FD81FA93EA93D8019DDF0E945417D0
:1015C400E0E0EC93F8011981088128960895BA9314
:1015D400AA9324970E940E1D0E94C2170E94581AB3
:1015E4008F01F8010E94C7170E94CC170E94D117DF
:1015F4000E94D6171A930A93EC85FD85FA93EA9311
:101604000E949016A4DF9F01002E012A49F4F901DB
:10161400AA85BB85AE0FBF1FE0E3EC932F5F3F4F5E
:10162400E885F985309741F1F901AA85BB85AE0FAC
:10163400BF1FEEE2EC930E94DB170E94CE1CEC85E8
:10164400FD850E94C717DF01CB010E94BC150E94D3
:10165400E0170E94E5170E94E8170E94581AFA93AF
:10166400EA93F901AC85BD85EA0FFB1F3196FA9325
:10167400EA93AC85BD856BDF0E94151D60960895C5
:101684000E94ED170E94F7170E944C170E94FE1744
:101694000E9409180E949D160E942C14E5EA0E94DB
:1016A4001018E2E8F4E00E946B160E9421180E94D0
:1016B4003D060E9421180E94F7080C941310E6E1DD
:1016C400F9E00E9428180E944C170E942C14E7E0AD
:1016D400F9E0FA93EA93A09106090E942B18E0938B
:1016E4002A09E4EAF4E00E946B16E4E0F9E00E94BF
:1016F4002E18E4E0F9E028C0E0E3F9E00E94341891
:101704000E942C14EDE3F9E00E9428180E944C1763
:101714000E942C14E5E4F9E00E9434180E942C1471
:10172400EEE2F9E0FA93EA93A0912D090E942B18B6
:10173400E0935109E7ECF4E00E946B16EBE2F9E068
:101744000E942E18EBE2F9E0FA93EA93A7E2B0E0E4
:101754000E94F70808950E94ED170E94F7170E944F
:101764004C170E94FE170E9409180E949D160E94A1
:101774002C14E6EA0E941018EAEEF4E00E946B16BC
:101784000E9421180E943D060E9421180E94F70819
:101794000C9413100E94D31CE0E8F9E00E94341862
:1017A4000E942C14EDE8F9E00E9428180E944C17BE
:1017B4000E942C14E5E9F9E00E9434180E942C14CC
:1017C4000E94C2170E94CE1CE7ECF9E00E943B186D
:1017D400FEDE0E943E180E94CE1CEFECF9E00E944F
:1017E4003B18F5DE0E94E8170E94CE1CE7EDF9E0F5
:1017F4000E943B18ECDE0E9443180E94CE1CEFEDC1
:10180400F9E00E943B18E3DEE7EAE093A009E889E7
:10181400E093A109E3EAF9E0FA93EA93E7ECF9E04B
:101824000E9446180E942C14ECEAF9E0FA93EA9319
:10183400EFECF9E00E9446180E942C14E5EBF9E065
:10184400FA93EA93E7EDF9E00E9446180E942C14FB
:10185400EEEBF9E0FA93EA93EFEDF9E00E94461813
:101864000E942C14EEE7F9E0FA93EA93A0917D0923
:101874000E942B18E093C609E5E1F5E00E946B167F
:101884000E9449180E943D060E9449180E94F708C8
:10189400619608950E9450180E9455180E945E187F
:1018A400E0937408F0937508609376087093770852
:1018B4000E9450180E9465180E945E180E946E18BB
:1018C4000E9450180E9477180E945E18E0937C08CA
:1018D400F0937D0860937E0870937F080E948018BF
:1018E400E0930106F09302066093030670930406E6
:1018F4000E948918E0930506F09306066093070694
:1019040070930806EAE3F5E00E946B16E5E7F5E05C
:10191400FA93EA93E0916408F0916508609166088F
:10192400709167080E947716E4E8F5E0FA93EA9369
:10193400E0916808F091690860916A0870916B08F9
:101944000E947716E3E9F5E0FA93EA93E0916C08D4
:10195400F0916D0860916E0870916F080E9477167F
:10196400E2EAF5E0FA93EA930E9480180E9477165F
:10197400E2EBF5E0FA93EA930E9489180E94771645
:10198400E2ECF5E0FA93EA930E9492180E9477162B
:10199400E1EDF5E0FA93EA93E0917008F0917108B3
:1019A40060917208709173080E947716E9EEF5E071
:1019B400FA93EA930E9450180E940317E0E0F6E0BD
:1019C4000E946B160E949B180E94191B0E946E189D
:1019D400E1E0EA930E9480180E94CE1C0E948918BC
:1019E4000E94CE1C0E9492180E94CE1C0E94A8182D
:1019F400D1DE0E949B180E94671B0E946E180E94F1
:101A0400B118A030E0E0BE07E9E38E07E3E49E07E7
:101A140069F40E94BA18EDECFCEC6CE970E40E94E5
:101A2400AC1B09F010F40C94180D01C001C031C0B6
:101A34000E94B118A030E0E0BE07E8EC8E07E2E4B3
:101A44009E0769F40E94BA18E3E3F3E36FE971E4D3
:101A54000E94AC1B09F010F40C94310D01C001C0BC
:101A640018C00E94B118A030E0E0BE07E4E88E0779
:101A7400E2E49E0769F40E94BA18E3E3F3E36FEE2D
:101A840071E40E94AC1B09F010F40C944A0D01C0DF
:101A94001BC0E0E0E09300060E941B16AF9AE0E052
:101AA400E0930106E0930206E0930306E093040644
:101AB400E0930506E0930606E0930706E093080624
:101AC400EBE3F6E00E946B16E0E0E0933008E0936D
:101AD4003108E0936408E0936508E0936608E093B6
:101AE4006708E0936808E0936908E0936A08E09364
:101AF4006B08E0936C08E0936D08E0936E08E09344
:101B04006F08E0937008E0937108E0937208E09323
:101B140073080895AA93E881E093E709E7B9E4EA32
:101B2400E6B921960895AA931A930A9300E010E067
:101B3400EA81A091E709EA2BE7B988EB8A95F1F7E6
:101B4400379A369A349BFECF04B11127E5B1FE2FA4
:101B5400E0E00E2B1F2B349AF801198108810BC089
:101B6400AA93E199FECFE981FA81FFBBEEBBE8813C
:101B7400EDBBE29AE19A23960895BA93AA93E19968
:101B8400FECFE881F981FFBBEEBBE09AEDB30C9484
:101B94001310A1E00E94C318E2E6F6E0FA93EA9378
:101BA4000E94CA180E9403170E94CF18AAE1B7E640
:101BB4008CE990E40E94191BE0934408F0934508D3
:101BC40060934608709347080E94D518A0E0B0E8D7
:101BD40089EF93E40E94191B0E94DE180E94E71803
:101BE400E0E0F0E06AEF73E40E94671BE0934008D2
:101BF400F093410860934208709343080E94EC18E4
:101C040009F010F40C94170EA0914008B09141080B
:101C14008091420890914308E0914408F09145086E
:101C2400609146087091470807C00E94EC1820F59F
:101C34000E94DE180E94D5180E94C21AE0934C0834
:101C4400F0934D0860934E0870934F08A0914C0890
:101C5400B0914D0880914E0890914F080E94191B35
:101C64000E94F1180E94C91AE0933C08F0933D08C1
:101C740060933E0870933F08A0E8B8E00AC1A0E072
:101C84000E94C3180E94CF18A0E0B0E080EA90E45C
:101C94000E94FA18E0E0F0EC6FE774E40E94671B1E
:101CA400DF01CB01EAE0F7ED63E27CE30E94671B0E
:101CB400E0935408F09355086093560870935708BE
:101CC4000E94FF18E0E0F0E06FE573E40E94AC1BB3
:101CD40048F40E940819A0E0B0E080E191E40E9479
:101CE400C91A14C00E94FF18E0E0F0E069E673E44A
:101CF4000E94AC1B09F010F40C94900E0E94081979
:101D0400A0E0B0E080E890E40E94C21AE093540896
:101D1400F09355086093560870935708EDE6F6E083
:101D2400FA93EA930E9408190E9477160E940819F0
:101D34000E9455180E94C91AE0936408F09365083C
:101D44006093660870936708E0918008F0918108B9
:101D54000E94F1180E945E18E0935008F093510815
:101D64006093520870935308A0915008B0915108A1
:101D740080915208909153080E94CC1BE09348082C
:101D8400F093490860934A0870934B080E947E16AA
:101D9400A0914808B091490880914A0890914B0855
:101DA4000E94671BE0935808F093590860935A08FF
:101DB40070935B080E948716A0915808B091590847
:101DC40080915A0890915B080E94AC1B48F4E0E0B3
:101DD400E0935808E0935908E0935A08E0935B08AD
:101DE400E0E0E0933C08E0933D08E0933E08E09394
:101DF4003F08E0938008E09381080E9411190E9433
:101E040065180E94C91AE0936808F0936908609302
:101E14006A0870936B080E9411190E94FF180E94AF
:101E2400191BE0935C08F0935D0860935E0870935F
:101E34005F080E9477180E94C91AE0936C08F09317
:101E44006D0860936E0870936F08A0915C08B09160
:101E54005D0880915E0890915F08E4EBF2EA61E12D
:101E640079E30E94191BE0936008F0936108609382
:101E74006208709363080E94A8180E94C91AE0932C
:101E84007008F09371086093720870937308A0E36C
:101E9400B8E0ED91FD913196FE93EE930895BA93D7
:101EA400AA93E091DB08F091DC080E949C17EA0FEA
:101EB400FB1FA881B981A083B183ABEDB8E00E9478
:101EC400FD16AFC01A930A9300E010E0E091DD081C
:101ED400F091DE080E949C17AE0FBF1F0D911C915C
:101EE400EAE7F6E0FA93EA93F8010E94DB16002E83
:101EF400012A21F0ADEDB8E00E94FD16E7E8F6E016
:101F0400FA93EA93E091DD08F091DE080E94DB1673
:101F1400A091DD08B091DE085E9729F4E0E0E0933B
:101F2400DD08E093DE08D80103D0099119910895E2
:101F3400BA93AA93A881B981129729F40E948117B0
:101F4400EAE9F6E068C0A881B981139739F4EEEBA9
:101F5400F6E00E946B160E947E0B63C0A881B981D3
:101F6400AE3FE1E0BE0729F0AF3FE1E0BE0709F074
:101F740045C0E0EEF6E00E946B16A881B981AF3F40
:101F8400E1E0BE07B1F4E1E0E09394080E94811718
:101F9400E1E0E09392080E9431160E94A316AF98E4
:101FA400E0916500E460E0936500E1E0EA93A1E07C
:101FB4001AC0A881B981AE3FE1E0BE07B1F4E0E008
:101FC400E0939408E3E0F0E00E94B816E0E0E093C8
:101FD40092080E9431160E94A316AF9A0E941B1603
:101FE400E1E0EA93A0E00E94420BE1E0EA93A091D1
:101FF40094080E94AD0BE8E1F7E00DC0A881B98117
:10200400169719F4EBE3F7E006C0A881B981189795
:1020140041F4E4E6F7E0FA93EA9380E00E941806BC
:102024002296229608950E94C816E883E0E0E98388
:10203400EA83EFE3EB831A930A93EB85FC85EF3F86
:10204400AFEFFA0739F40E94CD16A0E9B7E00E9479
:102054003E14A5C0EF3FAFE7FA0739F40E94CD164E
:10206400A1E9B7E00E943E149AC0AC85AA2362F4A9
:10207400E985FA856B857C850E94231A0E941A19CA
:102084000E941F19EDE2EC93A885A73010F0E6E05A
:10209400E8871885E12F1150E03039F00E942619A5
:1020A4000E942B190E943219F5CF0E9437190E9401
:1020B400C91A0E941A1910E00E9472160E9432195D
:1020C4000E9437190E94AC1B88F00E9426190E94B6
:1020D40040190E9432191F5F173238F00E94CD1642
:1020E400A5E9B7E00E943E145AC0EACF103029F4A3
:1020F4000E941F19E0E3EC9328C0E12F1150E03057
:1021040021F10E9426190E942B190E9444190E9451
:10211400E7180E9495140E9432190E9437190E94F0
:10212400671B0E94561A0E2F0E941F190E944919FC
:102134000E9426190E94C7170E94191B0E944F195A
:102144000E94D1170E941A19D8CFE885E03019F1FE
:102154000E941F19EEE2EC93E885E150E887EF5FF7
:10216400D1F00E944F190E9440190E941A19E98562
:10217400FA856B857C850E94561A0E2F0E941F19C2
:102184000E9449190E944F190E94C7170E94D11733
:102194000E941A19E1CFAE81BF81E0E0EC9319816E
:1021A40008812D9608950E944F17AA81BB8112962B
:1021B4000E94A61C309729F1AA81BB8114960E9423
:1021C400A61C8F01309761F00230E0E01E07C0F0DA
:1021D400F80131978F01AA81BB811496ED93FC938A
:1021E400AA81BB8112960E94FD163197AC81A0830F
:1021F400AA81BB810E94A61CFF2312F00E94FD1637
:1022040006C0AA81BB81EFEFFFEFED93FC93198128
:102214000881259608950E94C816E883E0E0E983C2
:10222400E0E8EA83EFE3EB830E940E1DEE85FF8571
:10223400EF3FAFEFFA0749F4E885F985FA93EA939B
:10224400AAE9B7E00E943E14BAC0EF3FAFE7FA072D
:1022540049F4E885F985FA93EA93ABE9B7E00E947B
:102264003E14ADC0AB85A73010F0E6E0EB871B85CC
:10227400E12F1150E03019F00E945419F9CF0E9457
:10228400C2170E94F91C21F430E00E94541934C092
:102294003B850E94571909F010F40C945F110E94B9
:1022A40054190E94571940F00E94CC170E942B1910
:1022B4000E945C193F5FF5CF0DC00E94571940F48E
:1022C4000E94CC170E9440190E945C193150F5CF2E
:1022D4000E9454190E94C2170E9444190E94C91AEC
:1022E4000E945C190E94571938F00E94CC170E9472
:1022F4002B190E945C193F5F10E0EB85E11798F100
:102304000E94E0170E942B190E9444190E94E718AA
:102314000E9495140E94D6170E94E8170E94CC17B9
:102324000E94671B0E94561A0E2F0E946119E02F0B
:10233400E05DEC93E02FFF27662777270E948F1A32
:102344000E94E0170E94191B0E94CC170E94D1170B
:102354000E945C19E12F1F5FE03079F60E94611939
:10236400EEE2EC93CACF0E9468193197AA85A08344
:1023740030302CF43195A885B985EDE203C0A885E9
:10238400B985EBE2EC930E9468190E9468193197B1
:10239400BF01A32FEAE00E942C1CE05DDB01EC935B
:1023A4000E9468193197BF01A32FEAE00E946E1CB6
:1023B400E05DDB01EC93A885B985E0E0EC930E9435
:1023C400151D60960895BA93AA93EF9761970E949A
:1023D4000C1D10E0FE01E85AFF4F0190F081E02D42
:1023E400E887F987FE01EA5AFF4F0190F081E02D5A
:1023F400EE83FF83AE81BF81E0E0F0E0ED93FC93D8
:10240400DE01A45ABF4F0E94FD163197E4912E2F8E
:10241400E03011F40C94F813E12FE03039F4253254
:1024240011F411E002C00E946E19DFC1E130C1F461
:10243400253219F40E946E19D7C112E0E0E0ED8B49
:1024440000E02D3211F401E0D0C12B3219F4EBE29B
:10245400ED8BCBC1203219F4E0E2ED8BC6C102C092
:10246400E23039F450E013E0203311F40068BDC1C8
:1024740002C0E33091F4203310F02A3308F007C08F
:10248400AAE05A9F502DE22FE0535E0FAEC140E008
:102494002E3211F414E0A9C10FC0E43099F42033B2
:1024A40010F02A3308F008C00062AAE04A9F402DC9
:1024B400E22FE0534E0F99C12C3619F4026015E057
:1024C40094C104C0E53011F00C94F713E22FE33605
:1024D40059F40E9475190E947C190E947519A481EF
:1024E400AA930E94831980C1E53411F0E53609F4FA
:1024F40004C0E63611F00C94C512FE017696EE8700
:10250400FF870E9489190E94AA1C0E9490190E94A8
:102514009519AD85AA2322F0AD89AB3249F017C0D5
:102524000E9497190E94231A0E949019EDE2ED8BE4
:1025340007FF05C0ED89EA930E94831908C0EE8560
:10254400FF853196EE87FF873197AD89A08305FF1C
:1025540046E0263651F40E9497190E94CE1C4A93F5
:10256400AB89BC890E94151009C00E9497190E946A
:10257400CE1C4A932A93AC89BD894DDEFE01769622
:102584000E949C191EC0E33739F40E9495190E94D9
:10259400A4190E949C190EC0E037C1F40E94951939
:1025A4000E94A419EE87FF87AE85BF850E94571449
:1025B4001E2F08600F77403011F0411708F001C05A
:1025C400142F40E0E0E0EC8B30E06EC0E43611F014
:1025D400E93611F4046002C0E537A1F4EAE0EC8BBB
:1025E40001FF08C0E0E0FAEC6AE97BE30E94A91964
:1025F4001AE023C0E0E1F7E260E070E00E94A9196C
:1026040015E01BC0E83511F4086004C0E83711F088
:102614000C94F613E0E1EC8B01FF08C0E0E0F0E07D
:1026240060E070E10E94A91918E007C0E0E0F0E161
:1026340060E070E00E94A91914E0403011F00F77B7
:1026440001C041E001FF08C00E9495190E94891948
:1026540014960E94AA1C0FC002FF07C00E9495197D
:102664000E94A4190E94191C06C00E9495190E9478
:10267400A41966277727EA87FB876C877D8702FF83
:1026840012C0AD85AA2342F40E9497190E940B1C24
:102694000E949019EDE2ED8BED89E03019F01F5F97
:1026A4004F5F01C00B7F342F00FD14C0151710F4C9
:1026B400351708F00FC007FF08C002FF04C00B7FE6
:1026C4002D89115001C020E301C020E20E946E193F
:1026D4005150ECCF141790F4006102FF06C00E9421
:1026E400AE1909F0515011504150E0E3EA930E94B1
:1026F4008319503009F051504150ECCF312FEC89FF
:10270400E030B9F43030A1F003FF06C0EE85FF8558
:102714002591EE87FF8705C0AE85BF852D91AE87D5
:10272400BF870E946E19503009F051503150EACFE2
:1027340051C00E94C0190E94491C2E2F2A3030F02B
:1027440003FF02C0295C01C0295A01C0205D04FDB9
:1027540021C0213360F4A889B9898A899B89A13071
:10276400E0E0BE07E0E08E07E0E09E0709F40BC05E
:10277400431740F4531710F000FF01C010C020E2CB
:1027840007FF08C020E3006102FF04C00E94AE19E5
:1027940009F051500E946E19503009F051503150D7
:1027A4000E94C0190E94881C0E949019EC89A88973
:1027B400B9898A899B89FF27662777270E94491C44
:1027C4000E94A919E889F9896A897B890E94F91C00
:1027D40009F0AFCF00FF08C0503031F05150E0E2B3
:1027E400EA930E948319F8CF10E00ACEAE81BF812C
:1027F4000E94A61C0E94131DEF966F960895BA932B
:10280400AA9326971A930A93EC85FD85309721F4B1
:10281400EFEFFFEF0C94B815EC85FD85EC83FD8399
:10282400E0E0EE83EF83EA85FB85FA93EA93EA8599
:10283400FB85FA93EA93E5EDF0E1FA93EA93DE017E
:102844001896C1DD8F01AC81BD81E0E0EC93F80105
:102854000C94B815BA93AA9399818881009641F093
:10286400BD81AC81FB81EA8161916D930197E1F7B0
:10287400FD81EC8126960895BA93AA93E991F99182
:10288400A991B991CD0105900D920020E1F7FC01C9
:102894000895BA93AA93A991B991EE27FF276D9150
:1028A400662311F03196FBCF0895BA93AA93AA2711
:1028B400BB27E991F9910590002011F01196FBCF07
:1028C400FD0108950E94D31C7B816A81F981E8810E
:1028D40077FB770F67FD7160972F9E5781F078F033
:1028E400983190F4AA27BB27882708948795B79531
:1028F400A7959A95D1F7EA23FB23682305C0E894AA
:102904007727EE27FF2766276F77769508F46068A8
:1029140077F9A991B99189919991EA17FB07680709
:10292400790797FB08950E94D31C0E94C41C0E943F
:1029340064140E94C91C19F40E94431805C0E6F7E8
:102944000E9443180E94C919249608950E94D31C1A
:1029540024971A930A930E94D0190E94011D2CF007
:10296400EFEFFFEF6FE77FEF71C00E94D5190E9470
:10297400CE1CADB7BEB711971F930F930E94061AD2
:102984000F911F910E94DA190E94D019E3EFF4E02D
:1029940065E37FE30E94AC1B40F40E94DF190E94B0
:1029A400C91A0E94DA19015010400E94D5190E94D8
:1029B400C9197F936F93FF93EF930E94D519A0E0F9
:1029C400B0E080E89FE30E94C91AAF91BF918F9154
:1029D4009F910E94671B0E94DA190E94DF190E94CE
:1029E400E119A6E2B2E485E69FE30E94FA18EEE458
:1029F400F1E164E570E40E94D1170E94D0190E94AD
:102A0400191B7F936F93FF93EF930E94E919ADE431
:102A1400B1E184ED9FE30E94C21AAF91BF918F91FF
:102A24009F910E94671B7F936F93FF93EF93F8012D
:102A34000E94C717A8E1B2E781E39FE30E94191B34
:102A4400AF91BF918F919F910E94C91A19810881FA
:102A54002A9608950E94D31C28971A930A930E94D9
:102A6400EE19E0E5FCEA6EEA72EC0E94AC1B18F485
:102A74000E94F3197BC00E9497190E94F91C19F453
:102A84000E94721673C00E94EE19E8E1F2E761EB4E
:102A940072E40E94AC1B09F010F40C945615EFEF8D
:102AA400FFEF6FE77FE762C00E94EE19EBE3FAEAFB
:102AB40068EB7FE30E94191B0E9490190E94EE1993
:102AC40032DF0E94581A8F01F8010E94EE190E9409
:102AD400C7170E94D117DF01CB01E0E0F0E060E00E
:102AE4007FE30E94D1170E94DA190E94DF190E9425
:102AF400E119ADE6BCE48CE69DE30E94191BA6EA4D
:102B0400B3EE86EE90E40E94C91A0E94D0190E9486
:102B1400191B0E94DA190E94E919A8E2BDE886EAA5
:102B240091E40E94C91A0E9432190E94D5190E9488
:102B340026190E94C91AA3EFB4E085EB9FE30E9413
:102B4400191B7F936F93FF93EF930E94D0190E94F8
:102B5400E9190E94C21AAF91BF918F919F910E946F
:102B6400671B0E94CE1CD8010E94171A1981088184
:102B74002E9608950E94D31C24970E943E180E940A
:102B8400F91C19F40E94F31943C0A885B9858A85F4
:102B94009B850E94011D84F40E94E8170E94F91C81
:102BA40019F40E94721634C0A885B9858A859B855C
:102BB4000E94F8194FDF2CC00E94E817DE010E9422
:102BC400581A0E94B51C0E9443180E948F1ADF01F4
:102BD400CB010E94E8170E94071D19F00E94F31907
:102BE40017C00E943E180E94231ADF01CB010E94E5
:102BF400F81930DFE887F9876A877B87E881E17015
:102C040019F40E943E1804C00E943E180E94231A20
:102C14002C960895AA93E1E0F991F03210F0F0387F
:102C240008F0EE270895BA93AA93E881F9813097C2
:102C34000895E0916500EB7FE09365000895E091CD
:102C44006500E460E0936500AF98E1E00895A09129
:102C54009E08BB270E94BF0DE09392080895E0915F
:102C64009E08F0E0FA93EA930895E0E0F0E069E367
:102C740073E4E0933608F093370860933808709350
:102C84003908A0E0B0E00E94E51C0895DF01CB0103
:102C94000E94011D0895E0933608F093370860936D
:102CA4003808709339080895FA93EA9380E00E94F3
:102CB40018062296E9ECF0E0FA93EA93E0E0F0E0FB
:102CC40060E87FE30E94CE1C84E00E9418062696EA
:102CD4000895FA93EA9380E00E94180622960895D4
:102CE400E0E0F0E060E87FE308950E94CE1C84E019
:102CF4000E94180626960895E0913608F091370848
:102D040060913808709139080895E0913208F09183
:102D1400330860913408709135080895A0E0B0E05C
:102D240008950E94A208A4E6B0E00C94FC19A4E65D
:102D3400B0E00C94FC19A1E0B0E008950E943104C5
:102D44008ECFA09192080C94B20DA2E0B0E0089549
:102D5400F40131964F01D401EAE0F0E00E947A1CBC
:102D640030970895A8ECB0E00C94FC19E0932A067F
:102D7400F0932B060895E4E0F0E0F8DFAEEFB1E065
:102D84000895FE013296FA93EA930895BA93AA93AA
:102D94002497E0E00895EE81FF81FA93EA93089581
:102DA400AC85BD850C948506A885B985EA0FFB1F03
:102DB40008950E94191C99CFFA93EA93DA01EC91D1
:102DC400FF276627772791CFEBEAE0938900E0EAB3
:102DD400E093880008950A921A92FA926A937A9379
:102DE4008A939A93AA93BA93EA93FA93EFB7EA93DE
:102DF4001A930A930895ED91FD913196FE93EE9303
:102E040008956627772771CFA981BA81EE27A10F8C
:102E1400BE1F08950E94BF1CE036A9E0FA07A0E097
:102E24006A07A0E07A070895E038A5E2FA07A0E06F
:102E34006A07A0E07A070895E034A8E3FA07A0E05F
:102E44006A07A0E07A070895E030ABE4FA07A0E04F
:102E54006A07A0E07A070895E030A6E9FA07A0E03F
:102E64006A07A0E07A070895E030A1EEFA07A0E02F
:102E74006A07A0E07A070895E030A2ECFA07A1E01F
:102E84006A07A0E07A070895FA93EA93A8E0B0E00D
:102E94000C943D06A8E0B0E00895BA93AA931A935F
:102EA4000A930895F801AC81BD81AE0FBF1F089548
:102EB400A981BA811296AC910895A981BA81139619
:102EC400AC910895E2E8F8E0FA93EA930895EB816F
:102ED400FC813596FA93EA93A4E0B0E00C942C14A8
:102EE400A981BA819096AC910895EAE8F8E0FA9342
:102EF400EA93EB81FC813196FA93EA93CBCFE4E039
:102F0400F0E034CF0E942C14E091DB08F091DC084F
:102F1400AFE9B8E0EE0FFF1FAE0FBF1F0895E091B9
:102F2400DB08F091DC08AFE9B8E0EE0FFF1FAE0F4D
:102F3400BF1F0895AFE9B8E0EE0FFF1F0895EA93AD
:102F4400A0E0B6E980E090E00C943808E0E0CF9986
:102F5400E1E00E2EA0E0CE99A1E0EA2FEE0F0E2ABA
:102F6400A0E0CD99A1E0EA2FEE0FEE0F0E2AA0E02B
:102F7400CC99A1E0EA2FEE0FEE0FEE0FE0290895B1
:102F8400EC85FD856E857F8508950E94191C0E943D
:102F94008F1A0895AC85BD858E859F8508950E94FE
:102FA400D81C0E94C21A0895EC83FD836E837F832C
:102FB4000895E0E0F0E060E271E40895AC81BD8141
:102FC4008E819F8108950E94191BEECFEC81FD81B3
:102FD4006E817F810895AA93E7E5F9E0FA93EA9375
:102FE400EAE8F8E0FA93EA9355CF0E942C14E4E659
:102FF400F9E0FA93EA9366CF0E942C14ECE6F9E028
:10300400FA93EA93EAE8F8E0FA93EA9343CF0E944A
:103014002C14E9E7F9E0FA93EA93B3CEE093770945
:10302400E981E0937809E5E5F9E0FA93EA93A09160
:103034005409B0E00E94D408E0937A090895E2E5C7
:10304400F9E0FA93EA93A9E2B0E00895FA93EA93D7
:1030540039CFB0E00C94D408FA93EA93A7E2B0E035
:103064000C943D06FA93EA93EAE8F8E0FA93EA93BB
:1030740011CFFA93EA9369CEE885F9856A857B8551
:1030840008950E94BF1C0895FA93EA9303CFEBE7D7
:10309400F9E0FA93EA93ACE4B0E00895E0913008E3
:1030A400F09131080895A0916408B0916508809169
:1030B4006608909167080895662777270E948F1AFB
:1030C4000E94671B0895A0916808B09169088091D7
:1030D4006A0890916B080895E0937808F093790852
:1030E40060937A0870937B080895A0916C08B0915E
:1030F4006D0880916E0890916F080895E0917408AE
:10310400F091750860917608709177080895E091C0
:103114007808F091790860917A0870917B08089595
:10312400E0917C08F0917D0860917E0870917F08A1
:103134000895A0917808B091790880917A089091C7
:103144007B08E0E0F0E06AE774E40895A091700879
:10315400B091710880917208909173080895A091BC
:103164003608B0913708809138089091390808954D
:10317400A0917808B091790880917A0890917B08A1
:1031840008950E94950DE0933A08F0933B08089542
:10319400E0913A08F0913B080895FADF6627772713
:1031A4000E948F1A0895E0914008F09141086091BF
:1031B4004208709143080895A0914408B0914508CD
:1031C400809146089091470808950E94C91ADF012A
:1031D400CB010895E8DFF0DF0E94AC1B0895A091B5
:1031E4003C08B0913D0880913E0890913F080895B5
:1031F4000E94191BDF01CB010895A0915408B091DE
:10320400550880915608909157080895E091540804
:10321400F091550860915608709157080895E0910F
:103224005808F091590860915A0870915B08089504
:10323400E987FA876B877C870895AE81BF811196F1
:10324400AE83BF8311970895AA81BB818C819D8130
:103254000895EDECFCEC6CEC7DE30E94191B0895E1
:10326400EA83FB836C837D830895EA81FB816C810F
:103274007D81A985BA858B859C8508959ADE0E94F7
:10328400191B0895A0E0B0E080E09FE30895E02FCB
:10329400E05DEC93E02FF0E00895A985BA858B8575
:1032A4009C8508958BDE85DE8ECE90DE73DE0E94D3
:1032B400AC1B0895EC87FD876E877F870895A885EA
:1032C400B9851196A887B98711970895E885F98576
:1032D4003196E887F98708952A93AF81B885E985FF
:1032E400FA8509950895FE01E65AFF4F0190F08191
:1032F400E02D08953497DE01A65ABF4FED93FC9359
:103304000895AF81B885E985FA8509950895DE01A8
:10331400A65ABF4F0D90BC91A02D0895EA87FB8754
:103324006C877D870895DFDFE5CFEA85FB856C85B3
:103334007D850895EE87FF87AE85BF850E944B1477
:103344001E2F0895E4DF14960E94A61C0895E88BAE
:10335400F98B6A8B7B8B08950B7FED89EA93DE01F1
:10336400A95ABF4F0D90BC91A02DFE01E75AFF4F03
:103374000190F081E02D099550300895E889F9898C
:103384006A897B89AA85BB858C859D850895A0E083
:10339400B0E080E89FE30E94C21A0895AE81BF8125
:1033A400888599850895EE81FF81688579850895DA
:1033B400EE83FF83688779870895F5DFEFCF0E9456
:1033C400191B4EDFEA81FB816C817D810895EA81BE
:1033D400FB816C817D810895AA85BB858C859D8543
:1033E4000895E0E0F0E060E070E008950E94A81421
:1033F400E5DDFECE109639F08DEC9AE00197F1F7F9
:10340400A8951197C9F70895E991F991699179916E
:1034140077FB660F771F88277E57880B7D938C93E5
:103424007EE7769567956EF00895E991F991699133
:10343400799177FB660F771F7A0F769567950EF073
:10344400089530976040704009F0705808955523EE
:1034540042F4503811F4E0FF04C03196691F791F1B
:103464006BF050E8572711F45F93CFC05F3F31F002
:10347400660F000C57956795752F08955F9300208C
:103484000AF0CFC0C8C050E8192E1522880F991F22
:103494009527550F879550E8072E0522660F771F4D
:1034A4007527550F67950895689401C0E8945F9354
:1034B400F2DF703818F07F3F08F4A7C056E1571BBD
:1034C400AAF4519558300EF4593030F0EFEFFFEF75
:1034D4006FEF7FE777F91AC077275523B9F0EE0F1E
:1034E400FF1F661F771F5A95D1F710C077275830F2
:1034F40028F0EF2FF62F672F5850F9CF552331F0CE
:1035040076956795F795E7955A95D1F700200AF4D3
:1035140080D15F910895689401C0E8943097604029
:103524007040B1F0002426F0772312F4009471D196
:10353400172E7EE1112032F07A95EE0FFF1F661FE1
:10354400111CF9CFEF2FF62F612D5F938ADF5F9166
:1035540008954F93AF01FD01DA01AB01BC01CA012B
:10356400402D012C142E4F910895EA0FFB1F681F64
:103574000895E095F0956095EF5FFF4F6F4F0895C4
:103584005F9381DF903871F150E8152604C05F9392
:103594007ADF903839F1703821F1572F591B2BF10C
:1035A40012F4D7DFFACF583118F0AA27BB2788279F
:1035B400583028F0AB2FB82F88275850F9CF55230F
:1035C40029F08695B795A7955A95D9F7502D512589
:1035D40072F0CBDF38F46795F795E795739513F49C
:1035E40020C0B7DF3EDF5F910895D8F7FBCFEA1B19
:1035F400FB0B680B51F010F40094BBDF662392F3CD
:10360400EE0FFF1F661F7A95CBF7EE27FF2766277D
:1036140077275F910895EFEFFFEF6FE77FEF5F91FB
:103624000895EFEFFFEF6FE77FE75F9108955F93F2
:103634002ADF703851F3903841F301240894791F3C
:1036440023F41CF300203AF3ECCF0F921F932F9333
:103654003F934F93112722279927689FA0018F9F9B
:10366400302D410D591F6B9F300D411D591F8E9FE9
:1036740027D0BF9F25D06A9F23D0BE9F1DD0AF9F68
:103684001BD0AE9F110D291F391F491F591FE32F4E
:10369400F42F652F522F4F913F912F911F910F902F
:1036A40066232AF0550FEE1FFF1F661F02C0739595
:1036B4004BF2CDDE5F910895100D211D391F02C01C
:1036C400200D311D491F591F08955F93DCDE7038AA
:1036D40021F411200AF49FCFA4CF903809F495CF98
:1036E40001240894970B1BF4D4F30020F3CF792F13
:1036F4001F932F933F934F9311241127222733278E
:103704004427552790E2AE17BF078607410730F0DC
:10371400AE1BBF0B860B410B089401C08894551F48
:10372400221F331F111CAA1FBB1F881F441F9A95F9
:1037340051F7F901612D4F913F912F911F9166230C
:1037440032F0550FEE1FFF1F661F7A9543F27FDE9E
:103754005F91089599239AF0772342F0971748F0E0
:1037640029F4AE17BF07860720F031F098948894A7
:103774000895989408940895189488940895772344
:10378400C2F7971798F3A9F7EA17FB07680788F3B6
:1037940099F3ECCF06D124975F939F81992311F479
:1037A400289633CF12F428963CCF4F9342E48E816F
:1037B400BD81AC8188839983AA83BB83FD01BC014D
:1037C400AC81BD818E819F8180DF88819981AA81AE
:1037D400BB81DDDE60DE7A9544DE88819981AA8131
:1037E400BB81AE27A87F21F4BF178607970729F06E
:1037F4004A9519F0DF01CB01DDCF4F915F912896F7
:1038040008950024AF0DB01D0895F195E195F040A1
:103814000895F09560957095E195FF4F6F4F7F4F38
:103824000895FE2FFF0FFF0B6F2F7F2F08956F2F2B
:10383400660F660B762F0895002498E0AA0F001CEB
:103844000E1A10F40E0E01C0A1609A95B9F7EA2F72
:10385400A02D08955FD0F0DF0EF4E19508950024C3
:10386400112490E1AA0FBB1F001C111C0E1A1F0A81
:1038740018F40E0E1F1E01C0A1609A9599F7FD0160
:10388400D001089553D0EBDF0EF4BFDF08953F93CA
:103894004F935F93002411244427552730E2AA0F45
:1038A400BB1F881F991F001C111C441F551F0E1A93
:1038B4001F0A460B570B28F40E0E1F1E461F571FD8
:1038C40001C0A1603A9559F7FD01BC01D001CA01BC
:1038D4005F914F913F910895E894A7FF02C0A1958D
:1038E4006894E7FDE195A8DFEA2F0EF4E1950895C9
:1038F400E894B7FF04C0A095B09511966894F7FDBD
:1039040084DFADDFFD010EF480DF0895C0DFFD012B
:10391400BC010895E894E7FF02C0E1956894A7FF0D
:1039240004C0A19500F8039400FA0895E894F7FF01
:1039340002C06BDF6894B7FF06C0A095B0951196DE
:1039440000F8039400FA0895ED91FC9111970895FD
:10395400ED91FD916D917C9113970895ED91FD91F9
:103964006D917D910895ED93FD936D937C930895EE
:103974007E936E93FE93EE930895E881F9816A81B4
:103984007B810895A881B9818A819B810895E88308
:10399400F9836A837B8308957A936A93FA93EA930B
:1039A40008959A938A93BA93AA930895182E862F0A
:1039B400612D192E972F712D1B2EBF2FF12D1A2E2D
:1039C400AE2FE12D0895129602D0BF0112971196E1
:1039D40002D0FE2F1197E199FECFFF93FFB7F89421
:1039E400AEBBBFBBE09AEDB3FFBFFF910895309724
:1039F40060407040089500240A160B0608950024C0
:103A04000A160B06080609060895EA17FB07680755
:103A1400790708955A934A933A932A931A930A93E7
:103A240008955D814C813B812A8119810881089523
:00000001FF
