:020000000C945E
:10000200DE030C9400000C9400000C9400000C948D
:1000120000000C9400000C9400000C9400000C945E
:1000220000000C9400000C9400000C9400000C944E
:1000320000000C9400000C94DD060C9400000C945B
:10004200CF060C9400000C947E070C9400000C94D4
:1000520000000C9400000C9400000C9400000C941E
:1000620000000C9400000C9400000C9400000C940E
:1000720000000C94FC060C94A4070C9400000C9451
:1000820000000C9400000C9400000000000000002E
:10009200000000000000000000FFFFFFFF00000062
:1000A2000D0A2B2B2B2B2B2B2B2B2B2B20536D6148
:1000B200727420537769746368202B2B2B2B2B2BA4
:1000C2002B2B2B2B0D0A000D0A4669726D7761727C
:1000D200652056657273696F6E203A2025302E3185
:1000E200660D0A0043757272656E742053656E73F5
:1000F2006F722020203A20414353373132454C431E
:1001020054522D3035422D54202825302E31662070
:100112006D562F416D702E290D0A000D0A2B2B2BC7
:100122002B2B2B2B2B2B2B20536D61727420506C9D
:100132007567202B2B2B2B2B2B2B2B2B2B0D0A00FC
:1001420043757272656E742053656E736F722020F0
:10015200203A20414353373132454C4354522D32D9
:1001620030412D54202825302E3166206D562F41E6
:100172006D702E290D0A000D0A2B2B2B2B2B2B2BEE
:100182002B2B2B20536D61727420427265616B655B
:1001920072202B2B2B2B2B2B2B2B2B2B0D0A0043C3
:1001A200757272656E742053656E736F72202020B3
:1001B2003A20414353373132454C4354522D333068
:1001C200412D54202825302E3166206D562F416D49
:1001D200702E290D0A0052656164204469702D5306
:1001E2007769746368204552524F52210D0A000DFF
:1001F2000A2B2B2B2B2B2B2B2B2B2B2044656661B5
:10020200756C742054797065203A20536D61727454
:1002120020537769746368202B2B2B2B2B2B2B2BD2
:100222002B2B0D0A0043757272656E74204D656149
:100232007375726520203A203E2025302E326620CA
:10024200416D702E0D0A000D0A2D2D2D2D2D2D2DF7
:100252002D20496E697469616C20436F6D706C6505
:100262007465202D2D2D2D2D2D2D2D0D0A000D0AFD
:100272002D2D2D2D2D2D2D2D205374617274205076
:10028200726F6772616D202D2D2D2D2D2D2D2D0D4F
:100292000A000D0A2D2D2D2D2D2D2D2D2049646C9A
:1002A20065202D2D2D2D2D2D2D2D0D0A000D0A2D04
:1002B2002D2D2D2D2D2D2D20504F50204556454EA4
:1002C20054202D2D2D2D2D2D2D2D0D0A000D0A2DF5
:1002D2002D2D2D2D2D2D2D20416374697665202D18
:1002E2002D2D2D2D2D2D2D0D0A002530356420208C
:1002F20020002530325820002563002E000D0A0010
:100302005741524E494E47203A20554152543020CF
:10031200425546464552204F564552464C4F57206D
:1003220025640D0A00007E0004080141496C7E002C
:10033200040801534C577E0004080153485B0D0A20
:10034200202B2B2B2B2B2B2B2B2B2B2053656E6433
:10035200204149202B2B2B2B2B2B2B2B0D0A000D55
:100362000A202B2B2B2B2B2B2B2B2B2B2053656E6D
:1003720064205348202B2B2B2B2B2B2B2B0D0A00CD
:100382000D0A202B2B2B2B2B2B2B2B2B2B205365AE
:100392006E6420534C202B2B2B2B2B2B2B2B0D0A3B
:1003A200000D0A202B2B2B2B2B2B2B2B2B2B2052F4
:1003B200656372656976652044617461202B2B2B1D
:1003C2002B2B2B2B2B0D0A007E002310010000008B
:1003D2000000000000FFFE000030000000000000EE
:1003E200000000000000000000007E0001A17E006D
:1003F2002310010000000000000000FFFE0000309A
:1004020000000000000000000000000000000000EA
:100412007E0001A47E002510010000000000000003
:1004220000FFFE000030000000000000000000009D
:100432000000000000007E0001A501007E004810BF
:10044200010000000000000000FFFE00003000007C
:1004520000000000000000000000000000007E001C
:1004620026A70101000000000000000002000000B9
:100472000000000000030000000000000000040073
:100482000D0A202B2B2B2B2B2B2B2B2B2B205365AD
:100492006E64204C4544202B2B2B2B2B2B2B2B0D0E
:1004A2000A000D0A202B2B2B2B2B2B2B2B2B2B203B
:1004B20053656E64204A6F696E202B2B2B2B2B2BDE
:1004C2002B2B0D0A000D0A202B2B2B2B2B2B2B2B2E
:1004D2002B2B2053656E642050696E67202B2B2BCB
:1004E2002B2B2B2B2B0D0A000D0A202B2B2B2B2B0E
:1004F2002B2B2B2B2B2053656E64204556454E54D7
:1005020020524543495645202B2B2B2B2B2B2B2B93
:100512000D0A000D0A202B2B2B2B2B2B2B2B2B2BDD
:100522002053656E64205245504F5254202B2B2B82
:100532002B2B2B2B2B0D0A000D0A3D3D3D3D3D3D46
:100542003D3D3D3D3D3D3D3D3D3D3D3D3D3D3D3DD9
:100552003D3D3D3D3D3D3D3D3D3D3D3D3D3D3D3DC9
:100562003D3D3D3D3D3D3D3D3D3D3D3D3D3D3D3DB9
:100572000D0A005673756D203D2025302E346620FD
:1005820020004973756D203D2025302E34662020D1
:10059200005073756D203D2025302E34660D0A0003
:1005A20056617667203D2025302E346620202000BB
:1005B20049617667203D2025302E346620202000B8
:1005C20050617667203D2025302E34660D0A005793
:1005D2006174742D486F75722053756D203D20250E
:1005E200302E34660D0A004E756D626572205361BD
:1005F2006D706C696E67203D2025640D0A003D3DDB
:100602003D3D3D3D3D3D3D3D3D3D3D3D3D3D3D3D18
:100612003D3D3D3D3D3D3D3D3D3D3D3D3D3D3D3D08
:100622003D3D3D3D3D3D3D3D3D3D3D3D3D3D3D3DF8
:100632003D3D3D3D0D0A0D0A0043757272656E74B3
:1006420020457863656564202D2D535749544348EE
:10065200204F4646210D0A004000050000401C457F
:10066200414443203D2025640D0A00566F6C7420DE
:100672003D2025660D0A00004556454E54203D207A
:1006820025640D0A00636F756E745F6576656E741E
:10069200203D2025640D0A000D0A2D2D2D2D2D2D16
:1006A2002D2D204A4F494E54205355434345535311
:1006B200202D2D2D2D2D2D2D2D0D0A000D0A2D2D28
:1006C2002D2D2D2D2D2D2052454349564520504983
:1006D2004E47202D2D2D2D2D2D2D2D0D0A000D0ACD
:1006E2002D2D2D2D2D2D2D2D2052454349564520A2
:1006F2004556454E54202D2D2D2D2D2D2D2D0D0AD7
:10070200000D0A2D2D2D2D2D2D2D2D2053454E441E
:10071200204556454E54202D2D2D2D2D2D2D2D0DA0
:100722000A000D0A2D2D2D2D2D2D2D2D2053454E38
:1007320044205245504F525420535543434553533E
:10074200202D2D2D2D2D2D2D2D0D0A0001002D4E8C
:10075200414E00494E4600002D4E414E0000010020
:1007620002008C000400000D8E000D00DF089200D4
:1007720002000800A0000800EC0828030800F408A2
:1007820030030800FC08380326000409CA032600C7
:100792002B09F00327005209160443007B093E048B
:1007A2000100E7095A0601009E085C0604004008A1
:1007B2005E060100E8094E070000F894EE27ECBB44
:1007C200F1E0F5BFE5BFE0936C00F8E1F1BDE1BDFA
:1007D2008DE0A2E0BB27ED938A95E9F780E090E1F6
:1007E200A0E0B1E0ED930197E9F7E0E6F7E085914B
:1007F2009591009761F0A591B59105901590BF0173
:10080200F00105900D920197E1F7FB01F0CF8BBF4C
:10081200EFEFEDBFECE0EEBFC0E0D6E00C942804B1
:100822000E94FF1529F40E940516AF9AE0E00BC062
:10083200A881B981119749F4E0916500E460E093E1
:100842006500AF98E1E0E09392080C94AD0866244D
:1008520077240E940B16A0919208AF3F39F40E94B0
:100862001316A0E00E948F0D0E940B160E94110A1F
:100872005E2E5520D9F70E94480A4E2EEFE0E4156D
:1008820031F50E9419160E942A164CF4DF01CB01A1
:10089200EFE8F2EC65EF7DE30E949B1B08F005C0D8
:1008A200A0E0B0E00E94D41C04C0ECEEF1E568EBDD
:1008B2007DE3E0933208F093330860933408709339
:1008C2003508E2E1E093E708E2EAF0E081C0EEE019
:1008D200E41591F5E0E0F0E068EC72E40E942F1676
:1008E200A4E0B0E00E94D41C0E942A164CF4DF015E
:1008F200CB01E9E2FCE56FE07EE30E949B1B08F07E
:1009020005C0A4E0B0E00E94D41C04C0EEEAF7E403
:1009120061EE7DE3E0933208F0933308609334088C
:1009220070933508E1E1E093E708EDE1F1E00E9420
:100932003816E2E4F1E05BC0EDE0E41591F5E0E0A9
:10094200F0E064E872E40E942F16A8E0B0E00E9492
:10095200D41C0E942A164CF4DF01CB01EAE9F9E922
:1009620069E17EE30E949B1B08F005C0A8E0B0E0AD
:100972000E94D41C04C0EFE8F2EC65EF7DE3E09343
:100982003208F09333086093340870933508E3E13A
:10099200E093E708E9E7F1E00E943816E1EAF1E0C6
:1009A20026C0E0E04E162CF4E8EDF1E00E944D1670
:1009B20024C00E941916E0933208F0933308609322
:1009C200340870933508E2E1E093E708E1EFF1E0E3
:1009D200FA93EA9380E006D12296E9ECF0E0FA93EA
:1009E200EA930E9454160E945916E6EEF0E0FA933A
:1009F200EA930E9460160E945916E0E04E160CF42B
:100A02003ACFE7E2F2E0FA93EA930E9469160E9473
:100A120059167894E9E4F2E00E944D16A8E8B3E191
:100A22000E94EB19E0E7F2E00E944D160E94CD0908
:100A3200E0912A06F0912B063097C1F40E947216BB
:100A42000E947516A0919208A13079F40E947B163B
:100A52000E947F160E9482160E948516E1E0F0E055
:100A62003F01A6EFB3E10E942E0FBAC0E130A0E031
:100A7200FA0729F40E947F160E947516B1C0E2306F
:100A8200A0E0FA0729F40E9489160E947516A8C0F0
:100A9200E330A0E0FA0741F5A0EDB7E00E94EB19C0
:100AA2000E943E0B0E947B1698991DC00E947B16E5
:100AB200E0919208E03049F40E947F160E9482166B
:100AC2000E948516A6EFB3E10CC0A0919208A13056
:100AD20051F40E9472160E9482160E948516ACEE94
:100AE200B3E10E942E0F7CC0E430A0E0FA0711F0BF
:100AF2000C94C405E4E9F2E00E944D160E948C16A3
:100B020031F40E94410FEFEAF2E00E944D16E1E05B
:100B1200F0E0E615F70599F4A0919208A13019F4D6
:100B2200E5E0F0E006C0E0919208E03031F4E4E064
:100B3200F0E0E0932A06F0932B0666247724989936
:100B420021C00E949616E0919208E03069F40E945A
:100B52007F160E9482160E948516E5E0F0E00E9450
:100B62009A16A6EFB3E10CC0A0919208A13051F4FD
:100B72000E9472160E9482160E9485160E949F167B
:100B82000E942E0F2DC0E530A0E0FA0749F5EFECE8
:100B9200F2E00E944D160E94A80D0E941E0E0E94B5
:100BA2008C1631F4EFEAF2E00E944D160E94410FDA
:100BB200A0913008B0913108A83EE3E0BE0711F4DD
:100BC2000E94290C98990CC00E9496160E947216D7
:100BD2000E9482160E9485160E949F160E942E0F66
:100BE20025CFFFCFFF92F82ED1501A930A93DE0140
:100BF200A250BF4F0E94F21B8D010E94A516DE017A
:100C0200AC5FBE4F0E94F21B0E94951CFA93EA93BE
:100C1200D8010E94EB13E0E0EA93DE0113960E94F2
:100C2200EE07198108812296DF5FFF9008950E94E6
:100C3200AA16EA83E0E0EB830E94FB1C0A851B856F
:100C420020E130E0EC85FD85EE83FF83AA85BB853C
:100C52000E94EC1C84F52A173B074CF00E94AF1649
:100C6200EC85FD85FA93EA930E94B41624C0F8013C
:100C7200D9010E94691CAF010E94AF165A934A9390
:100C82000E94B416041B150BFA01AE81BF81EA0F54
:100C9200FB1FEE83FF83F9010E94B816E887F987EC
:100CA200201731073CF00E94AF161A930A930E9454
:100CB200B41601C0DCCF0E94021D2E960895BA938D
:100CC200AA930E94FB1CECEEF2E0FA93EA93E88509
:100CD200F9850E94BD164A855B8500E010E0E88533
:100CE200F9850E171F0794F4E4EFF2E00E94C01694
:100CF2004F5F5F4FE7E0F0E0E017F10721F4E2EF2A
:100D0200F2E00E944D160F5F1F4FE9CFA885B9850B
:100D1200189724F4E2EFF2E00E944D16A885B985F7
:100D220050979CF4A885B985E0E1F0E0EA1BFB0B43
:100D32009F0100E010E0021713073CF4E0EFF2E03D
:100D42000E944D160F5F1F4FF6CFE0EFF2E00E94B8
:100D52004D164A855B8500E010E0E885F9850E179F
:100D62001F07A4F4DA01AC910E94F615E03029F0D5
:100D7200EAEFF2E00E94C01604C0EDEFF2E00E943A
:100D82004D164F5F5F4F0F5F1F4FE7CFEFEFF2E060
:100D92000E944D160E94021D2C960895AA93EA9372
:100DA200EFB7EA93E7EDE2BFA0910006A13019F494
:100DB200E1E0E0939C083EC06A937A93AA93BA93C7
:100DC200EA93FA93EFB7EA93E7E5EDBDE0E4ECBD11
:100DD200A5E9B8E00E949F1CEF5FFF4F6F4F7F4F66
:100DE2000E94A91CE991EFBFF991E991B991A991EA
:100DF200799169911895AA93EA93EFB7EA930E94C1
:100E0200C816E0919A08E03029F0E0919908EF5F66
:100E1200E0939908A0910006A13019F4E1E0E09373
:100E22009B08E0919D08E03029F09F9B02C0AF989B
:100E320001C0AF9AE991EFBFE991A9911895E0E05D
:100E4200E0BFE6E0E3BFE7EDE2BFE0E0E1BFEFBD18
:100E5200E4E0EEBDE7E5EDBDE0E4ECBDE0E0E7BDDA
:100E6200E6BDEBBDEABDE9BDE8BDE0937900E093E4
:100E72007800E5BDE4BDE3BDE0938B00E4E0E093E0
:100E82008A000E94C816E0E0E0938100E0938000AF
:100E9200E0938700E0938600E0938500E09384006E
:100EA200E0938300E0938200EFE1E1BDEFE0E1BD7A
:100EB200E0E0E7BFE7BFE0937D0008950E94FF15E1
:100EC20021F4E7B7E160E7BF15C0E130A0E0FA071F
:100ED20021F4E7B7E460E7BF0DC0E230A0E0FA0713
:100EE20049F0E330A0E0FA0729F4E0917D00E460E4
:100EF200E0937D0078940C94AD080E94CF161BB14C
:100F02000CB1E12FEC71C1F4A02F17D0043209F417
:100F1200DD24ED2DD394F0E0E65FF94F0083E0E2AB
:100F2200DE1608F0DD24033239F4ED2DE150CE2E29
:100F3200DD24E1E0E093090636C0AA935D9BFECF73
:100F4200E881ECB948C00E94CF1610919B00009135
:100F52009C00E12FEC7139F5F50131965F01319773
:100F6200E05DF94F0083E0E0F2E0EA15FB0511F4E1
:100F7200AA24BB24AEE2B6E00E94DF16E030A2E073
:100F8200FA0789F4E2E0F3E0FA93EA93E0912E069D
:100F9200F0912F060E94E516E0E0E0932E06E09322
:100FA2002F06689420F809911991E991EFBFF99100
:100FB200E991B991A9919991899179916991F99060
:100FC200199009901895AA93E0919B00E072E1F3C1
:100FD200E881E0939C0021960895BA93AA931A930C
:100FE20010E0EB81F0E0309761F40E94E816EC919A
:100FF200E03031F00E94E816AC919FDF1F5FF5CF21
:101002000FC0E130A0E0FA0759F40E94E816EC9113
:10101200E03031F00E94E816AC91D5DF1F5FF5CFCA
:101022001881C8C00E94C21CEC81F0E0309771F5B3
:10103200E0E0EBB9E8E9EAB9E6E0E0939500E0E048
:10104200E09390000E94EE1611F4EFE11DC00E94A1
:10105200F816C9F00E94001711F4EFE215C00E94C1
:10106200081711F4E3E210C00E94101711F4E1E135
:101072000BC00E94181711F4EBE006C00E94201763
:1010820011F4E5E001C0E7E4E9B934C0E130A0E0E1
:10109200FA0781F5E0E0E0939B00E8E9E0939A002B
:1010A200E6E0E0939D00E0E0E09398000E94EE16F7
:1010B20011F4EFE11DC00E94F816C9F00E9400175A
:1010C20011F4EFE215C00E94081711F4E3E210C018
:1010D2000E94101711F4E1E10BC00E94181711F4DD
:1010E200EBE006C00E94201711F4E5E001C0E7E43E
:1010F200E0939900259608950E94FF1559F4E0E4C3
:10110200F3E00E944D16ECEEF8E00E942817ECEE98
:10111200F8E01DC0E130A0E0FA0759F4E1E6F3E09F
:101122000E944D16ECEFF8E00E942817ECEFF8E071
:101132000EC0E230A0E0FA0779F4E2E8F3E00E94A0
:101142004D16E4EFF8E00E942817E4EFF8E0FA9376
:10115200EA930E942E170BD122960895BA93AA936E
:101162000E94FD1C30E000E010E0EC81FD810E17D2
:101172001F0754F4F801AE81BF81AE0FBF1FEC917F
:101182003E0F0F5F1F4FF1CFE32FF0E0F070AFEF94
:10119200B0E00E94CD1CEA1BFB0B0E94041D0C94C4
:1011A200C40ABA93AA93EA81FB81FA93EA93AA81C9
:1011B200BB81DDD0249608950E94311703E010E030
:1011C200AA81BB81169708F4E3C0E3EAF3E00E9428
:1011D2004D16EC81FD81FA93EA93AC81BD810E94A8
:1011E20018060E94361701D0D3C0BA93AA931A9355
:1011F200A981BA811C91E12FF0E0E838A0E0FA075A
:1012020091F50E943C17A13421F40E944117A934A0
:1012120009F003C0E1E0F0E021C00E943C17A335D1
:1012220021F40E944117A83409F007C00E94461712
:101232000E944B17E2E0F0E011C00E943C17A33578
:1012420021F40E944117AC3409F00CC0E6E8F8E042
:10125200FA93EA930E944B17E3E0F0E0E0932A0648
:10126200F0932B0662C0E039A0E0FA0711F00C946B
:1012720096090E945417A23A49F40E9459170E94F3
:101282001614E4E0F0E00E949A164FC00E94541730
:10129200A33A39F40E9459170E946317E3E0F0E081
:1012A2003EC00E945417A53AD9F40E9459170E94D1
:1012B2001614A981BA819296AC91A13029F40E94A8
:1012C2007017EFEFF1E009C0E981FA81E2A1E030A5
:1012D20031F40E947017EEEFF1E0ED93FC9321C020
:1012E2000E945417A63A89F4E981FA81E1A1E093B8
:1012F2009308E981FA81E2A1E09394080E945917C8
:101302000E946317E6E0F0E00AC00E945417A83A70
:1013120061F40E9459170E946317E8E0F0E0ED9330
:10132200FC93ABEDB8E00E94DF16E091DB08F09190
:10133200DC0831970E947B17AE0FBF1F0E94951CDD
:10134200309739F00E9470170E94951CDF010E94AD
:10135200770FA091DB08B091DC085E9729F4E0E0FA
:10136200E093DB08E093DC0818810C949A0D0E944C
:10137200311700E010E0EA81FB810E171F0738F4F5
:101382000E943617AC911FDE0F5F1F4FF4CFF8019A
:101392001981088126960895D1500E94FB1C20E0F5
:1013A20030E040E050E00E947B16A0912E06B09102
:1013B2002F060E94EC1C48F5ACE2B6E00E94DF1654
:1013C2003197E05DF94F1081FA014F5F5F4FDE0107
:1013D2001696EA0FFB1F10832F5F3F4FA0912C063A
:1013E200B0912D06A030E2E0BE0729F4E0E0E093E0
:1013F2002C06E0932D06F894AEE2B6E0ED91FD9155
:101402003197FE93EE937894D0CFFE013696FA93FD
:10141200EA93D901D1DE0E94021D2696DF5F08956C
:101422001AD0E0E00E948017E1E00E9480170E943B
:1014320020070E9472160E945F070E947F160E9478
:101442005F07A3E0B0E00E945F07A0E40E94690D7D
:10145200E0E0F0E00895A098A89AD798D698D59899
:10146200D498A79AE0916400E460E0936400129A31
:10147200E0916400E860E0936400AF9A0E94051670
:101482001A9AE0916500E77FE093650008951A9348
:101492000A930E9487171E2F0E947B160E948717AD
:1014A2000E2F011711F4E12F01C0EFEF09911991ED
:1014B2000895BA93AA930E94FB1C00E010E0EE810B
:1014C200FF8131979F0102171307DCF4F801A88509
:1014D200B985AE0FBF1F4C9155270E94B8160F0158
:1014E200F901A885B985AE0FBF1FEC91D001EC932D
:1014F200F9010E94B81640830F5F1F4F2150304000
:10150200E2CF0E94021D2A9608950E94311700E040
:1015120010E0EE81FF813097D1F0F8010F5F1F4F8D
:10152200AC81BD81EA0FFB1FBF01AE81BF81EAE042
:10153200F0E00E94691CE05DDB01EC93AE81BF81AB
:10154200EAE0F0E00E94331CEE83FF83E2CFEA81FF
:10155200FB810E171F0754F4F8010F5F1F4FAC8178
:10156200BD81AE0FBF1FE0E3EC93F1CFEC81FD81B3
:10157200FA93EA93D8019DDF0E943617E0E0EC93DC
:10158200F8011981088128960895BA93AA9324979D
:101592000E94FD1C0E94A1170E94471A8F01F801A8
:1015A2000E94A6170E94AB170E94B0170E94B5179F
:1015B2001A930A93EC85FD85FA93EA930E947216B8
:1015C200A4DF9F01002E012A49F4F901AA85BB85F7
:1015D200AE0FBF1FE0E3EC932F5F3F4FE885F98525
:1015E200309741F1F901AA85BB85AE0FBF1FEEE22C
:1015F200EC930E94BA170E94BD1CEC85FD850E94E7
:10160200A617DF01CB010E94A6150E94BF170E94F8
:10161200C4170E94C7170E94471AFA93EA93F90166
:10162200AC85BD85EA0FFB1F3196FA93EA93AC8530
:10163200BD856BDF0E94041D609608950E94CC1741
:101642000E94D6170E942E170E94DD170E94E817EB
:101652000E947F160E941614E5EA0E94EF17E2E844
:10166200F4E00E944D160E9400180E9418060E9483
:1016720000180E94D2080C94FD0FE6E1F9E00E94E6
:1016820007180E942E170E941614E7E0F9E0FA9359
:10169200EA93A09106090E940A18E0932A09E4EA53
:1016A200F4E00E944D16E4E0F9E00E940D18E4E037
:1016B200F9E028C0E0E3F9E00E9413180E94161432
:1016C200EDE3F9E00E9407180E942E170E941614FB
:1016D200E5E4F9E00E9413180E941614EEE2F9E024
:1016E200FA93EA93A0912D090E940A18E0935109F6
:1016F200E7ECF4E00E944D16EBE2F9E00E940D18CF
:10170200EBE2F9E0FA93EA93A7E2B0E00E94D20892
:1017120008950E94CC170E94D6170E942E170E948D
:10172200DD170E94E8170E947F160E941614E6EA4F
:101732000E94EF17EAEEF4E00E944D160E94001894
:101742000E9418060E9400180E94D2080C94FD0FF5
:101752000E94C21CE0E8F9E00E9413180E941614CD
:10176200EDE8F9E00E9407180E942E170E94161455
:10177200E5E9F9E00E9413180E9416140E94A117CD
:101782000E94BD1CE7ECF9E00E941A18FEDE0E94DE
:101792001D180E94BD1CEFECF9E00E941A18F5DE3C
:1017A2000E94C7170E94BD1CE7EDF9E00E941A18BB
:1017B200ECDE0E9422180E94BD1CEFEDF9E00E94AF
:1017C2001A18E3DEE7EAE093A009E889E093A109A9
:1017D200E3EAF9E0FA93EA93E7ECF9E00E942518CC
:1017E2000E941614ECEAF9E0FA93EA93EFECF9E0BE
:1017F2000E9425180E941614E5EBF9E0FA93EA9389
:10180200E7EDF9E00E9425180E941614EEEBF9E0CC
:10181200FA93EA93EFEDF9E00E9425180E9416145C
:10182200EEE7F9E0FA93EA93A0917D090E940A1883
:10183200E093C609E5E1F5E00E944D160E942818E2
:101842000E9418060E9428180E94D20861960895E4
:101852000E942F180E9434180E943D18E0937408C9
:10186200F093750860937608709377080E942F189A
:101872000E9444180E943D180E944D180E942F1881
:101882000E9456180E943D18E0937C08F0937D0850
:1018920060937E0870937F080E945F18E0930106B0
:1018A200F093020660930306709304060E94681880
:1018B200E0930506F0930606609307067093080608
:1018C200EAE3F5E00E944D16E5E7F5E0FA93EA93C4
:1018D200E0916408F091650860916608709167086C
:1018E2000E945916E4E8F5E0FA93EA93E091680859
:1018F200F091690860916A0870916B080E9459160C
:10190200E3E9F5E0FA93EA93E0916C08F0916D084F
:1019120060916E0870916F080E945916E2EAF5E034
:10192200FA93EA930E945F180E945916E2EBF5E0DF
:10193200FA93EA930E9468180E945916E2ECF5E0C5
:10194200FA93EA930E9471180E945916E1EDF5E0AC
:10195200FA93EA93E0917008F0917108609172082D
:10196200709173080E945916E9EEF5E0FA93EA9332
:101972000E942F180E94E516E0E0F6E00E944D1644
:101982000E947A180E94081B0E944D18E1E0EA9317
:101992000E945F180E94BD1C0E9468180E94BD1C14
:1019A2000E9471180E94BD1C0E948718D1DE0E94FD
:1019B2007A180E94561B0E944D180E949018A0305F
:1019C200E0E0BE07E9E38E07E3E49E0769F40E94C4
:1019D2009918EDECFCEC6CE970E40E949B1B09F099
:1019E20010F40C94F50C01C001C031C00E94901893
:1019F200A030E0E0BE07E8EC8E07E2E49E0769F45F
:101A02000E949918E3E3F3E36FE971E40E949B1BE0
:101A120009F010F40C940E0D01C001C018C00E9410
:101A22009018A030E0E0BE07E4E88E07E2E49E07EB
:101A320069F40E949918E3E3F3E36FEE71E40E9404
:101A42009B1B09F010F40C94270D01C01BC0E0E0B1
:101A5200E09300060E940516AF9AE0E0E0930106CB
:101A6200E0930206E0930306E0930406E093050682
:101A7200E0930606E0930706E0930806EBE3F6E040
:101A82000E944D16E0E0E0933008E0933108E093C5
:101A92006408E0936508E0936608E0936708E093C2
:101AA2006808E0936908E0936A08E0936B08E093A2
:101AB2006C08E0936D08E0936E08E0936F08E09382
:101AC2007008E0937108E0937208E0937308089538
:101AD200AA93E881E093E709E7B9E4EAE6B9219637
:101AE2000895AA931A930A9300E010E0EA81A09164
:101AF200E709EA2BE7B988EB8A95F1F7379A369A24
:101B0200349BFECF04B11127E5B1FE2FE0E00E2B8E
:101B12001F2B349AF801198108810BC0AA93E1990D
:101B2200FECFE981FA81FFBBEEBBE881EDBBE29A11
:101B3200E19A23960895BA93AA93E199FECFE88198
:101B4200F981FFBBEEBBE09AEDB30C94FD0FA1E06F
:101B52000E94A218E2E6F6E0FA93EA930E94A9181C
:101B62000E94E5160E94AE18AAE1B7E68CE990E45D
:101B72000E94081BE0934408F093450860934608CE
:101B8200709347080E94B418A0E0B0E889EF93E48C
:101B92000E94081B0E94BD180E94C618E0E0F0E0F7
:101BA2006AEF73E40E94561BE0934008F0934108E9
:101BB20060934208709343080E94CB1809F010F416
:101BC2000C94F40DA0914008B09141088091420814
:101BD20090914308E0914408F091450860914608CD
:101BE2007091470807C00E94CB1820F50E94BD18CB
:101BF2000E94B4180E94B11AE0934C08F0934D0869
:101C020060934E0870934F08A0914C08B0914D0814
:101C120080914E0890914F080E94081B0E94D01894
:101C22000E94B81AE0933C08F0933D0860933E0886
:101C320070933F08A0E8B8E00AC1A0E00E94A21891
:101C42000E94AE18A0E0B0E080EA90E40E94D918A9
:101C5200E0E0F0EC6FE774E40E94561BDF01CB0179
:101C6200EAE0F7ED63E27CE30E94561BE09354083E
:101C7200F093550860935608709357080E94DE1837
:101C8200E0E0F0E06FE573E40E949B1B48F40E94E1
:101C9200E718A0E0B0E080E191E40E94B81A14C015
:101CA2000E94DE18E0E0F0E069E673E40E949B1B0C
:101CB20009F010F40C946D0E0E94E718A0E0B0E059
:101CC20080E890E40E94B11AE0935408F09355081A
:101CD2006093560870935708EDE6F6E0FA93EA939C
:101CE2000E94E7180E9459160E94E7180E943418B1
:101CF2000E94B81AE0936408F0936508609366083E
:101D020070936708E0918008F09181080E94D018D2
:101D12000E943D18E0935008F093510860935208D6
:101D220070935308A0915008B091510880915208C5
:101D3200909153080E94BB1BE0934808F093490816
:101D420060934A0870934B080E946016A09148085D
:101D5200B091490880914A0890914B080E94561B05
:101D6200E0935808F093590860935A0870935B08FF
:101D72000E946916A0915808B091590880915A089A
:101D820090915B080E949B1B48F4E0E0E0935808A6
:101D9200E0935908E0935A08E0935B08E0E0E0938F
:101DA2003C08E0933D08E0933E08E0933F08E0934F
:101DB2008008E09381080E94F0180E9444180E9453
:101DC200B81AE0936808F093690860936A08709300
:101DD2006B080E94F0180E94DE180E94081BE09314
:101DE2005C08F0935D0860935E0870935F080E9440
:101DF20056180E94B81AE0936C08F0936D0860932D
:101E02006E0870936F08A0915C08B0915D08809194
:101E12005E0890915F08E4EBF2EA61E179E30E94E7
:101E2200081BE0936008F093610860936208709366
:101E320063080E9487180E94B81AE0937008F09312
:101E420071086093720870937308A0E3B8E0ED9193
:101E5200FD913196FE93EE930895BA93AA93E09181
:101E6200DB08F091DC080E947B17EA0FFB1FA881B8
:101E7200B981A083B183ABEDB8E00E94DF16BCC08C
:101E82001A930A9300E010E0E091DD08F091DE0879
:101E92000E947B17AE0FBF1F0D911C91EAE7F6E07F
:101EA200FA93EA93F8010E94BD16002E012A21F04E
:101EB200ADEDB8E00E94DF16E7E8F6E0FA93EA93A8
:101EC200E091DD08F091DE080E94BD16A091DD08C8
:101ED200B091DE085E9729F4E0E0E093DD08E0933C
:101EE200DE08D80103D0099119910895BA93AA93F3
:101EF200A881B981129739F4E4E0F0E00E949A16C1
:101F0200EAE9F6E073C0A881B981139739F4EEEBE0
:101F1200F6E00E944D160E945B0B6EC0A881B9814B
:101F2200AE3FE1E0BE0721F0AF3FE1E0BE0731F591
:101F3200A881B981AF3FE1E0BE0729F40E947F1674
:101F42000E94F9180AC0A881B981AE3FE1E0BE073C
:101F520061F40E9472160E940119E0932A06F0931E
:101F62002B060E9413160E948516E1E0EA93A091C7
:101F720094080E948A0BE0EEF6E038C0A881B9818D
:101F8200AC3EE3E1BE0721F0A63FE3E1BE0741F527
:101F9200E3E0F7E00E944D16A881B981A63FE3E194
:101FA200BE0729F40E947F160E94F9180AC0A88170
:101FB200B981AC3EE3E1BE0791F40E9472160E9421
:101FC2000119E0932A06F0932B060E9413160E9431
:101FD2008516E1E0EA93A09194080E941F0B0CC0C1
:101FE200A881B981189741F4E4E2F7E0FA93EA9301
:101FF20080E00E94F3052296229608950E94AA1676
:10200200E883E0E0E983EA83EFE3EB831A930A9340
:10201200EB85FC85EF3FAFEFFA0739F40E94AF166C
:10202200A0E5B7E00E942814A5C0EF3FAFE7FA078A
:1020320039F40E94AF16A1E5B7E00E9428149AC0B5
:10204200AC85AA2362F4E985FA856B857C850E94BA
:10205200121A0E9409190E940E19EDE2EC93A8854A
:10206200A73010F0E6E0E8871885E12F1150E03044
:1020720039F00E9415190E941A190E942119F5CFF0
:102082000E9426190E94B81A0E94091910E00E94A3
:1020920054160E9421190E9426190E949B1B88F047
:1020A2000E9415190E942F190E9421191F5F1732D1
:1020B20038F00E94AF16A5E5B7E00E9428145AC076
:1020C200EACF103029F40E940E19E0E3EC9328C005
:1020D200E12F1150E03021F10E9415190E941A19C6
:1020E2000E9433190E94C6180E947F140E9421196F
:1020F2000E9426190E94561B0E94451A0E2F0E940A
:102102000E190E9438190E9415190E94A6170E94E2
:10211200081B0E943E190E94B0170E940919D8CFCD
:10212200E885E03019F10E940E19EEE2EC93E885A1
:10213200E150E887EF5FD1F00E943E190E942F190B
:102142000E940919E985FA856B857C850E94451AEA
:102152000E2F0E940E190E9438190E943E190E94E9
:10216200A6170E94B0170E940919E1CFAE81BF8164
:10217200E0E0EC93198108812D9608950E943117B1
:10218200AA81BB8112960E94951C309729F1AA81DF
:10219200BB8114960E94951C8F01309761F002302A
:1021A200E0E01E07C0F0F80131978F01AA81BB81E0
:1021B2001496ED93FC93AA81BB8112960E94DF16BE
:1021C2003197AC81A083AA81BB810E94951CFF2319
:1021D20012F00E94DF1606C0AA81BB81EFEFFFEF6B
:1021E200ED93FC9319810881259608950E94AA1601
:1021F200E883E0E0E983E0E8EA83EFE3EB830E942F
:10220200FD1CEE85FF85EF3FAFEFFA0749F4E88545
:10221200F985FA93EA93AAE5B7E00E942814BAC0B6
:10222200EF3FAFE7FA0749F4E885F985FA93EA93B5
:10223200ABE5B7E00E942814ADC0AB85A73010F023
:10224200E6E0EB871B85E12F1150E03019F00E9488
:102252004319F9CF0E94A1170E94E81C21F430E033
:102262000E94431934C03B850E94461909F010F4BC
:102272000C9449110E9443190E94461940F00E9491
:10228200AB170E941A190E944B193F5FF5CF0DC080
:102292000E94461940F40E94AB170E942F190E9417
:1022A2004B193150F5CF0E9443190E94A1170E9489
:1022B20033190E94B81A0E944B190E94461938F02D
:1022C2000E94AB170E941A190E944B193F5F10E03F
:1022D200EB85E11798F10E94BF170E941A190E941C
:1022E20033190E94C6180E947F140E94B5170E94DB
:1022F200C7170E94AB170E94561B0E94451A0E2F49
:102302000E945019E02FE05DEC93E02FFF27662733
:1023120077270E947E1A0E94BF170E94081B0E9404
:10232200AB170E94B0170E944B19E12F1F5FE030DC
:1023320079F60E945019EEE2EC93CACF0E94571927
:102342003197AA85A08330302CF43195A885B985C0
:10235200EDE203C0A885B985EBE2EC930E94571920
:102362000E9457193197BF01A32FEAE00E941B1C5C
:10237200E05DDB01EC930E9457193197BF01A32F57
:10238200EAE00E945D1CE05DDB01EC93A885B98563
:10239200E0E0EC930E94041D60960895BA93AA931C
:1023A200EF9761970E94FB1C10E0FE01E85AFF4F75
:1023B2000190F081E02DE887F987FE01EA5AFF4F8C
:1023C2000190F081E02DEE83FF83AE81BF81E0E0DA
:1023D200F0E0ED93FC93DE01A45ABF4F0E94DF169A
:1023E2003197E4912E2FE03011F40C94E213E12F97
:1023F200E03039F4253211F411E002C00E945D1977
:10240200DFC1E130C1F4253219F40E945D19D7C150
:1024120012E0E0E0ED8B00E02D3211F401E0D0C1DA
:102422002B3219F4EBE2ED8BCBC1203219F4E0E24E
:10243200ED8BC6C102C0E23039F450E013E0203324
:1024420011F40068BDC102C0E33091F4203310F0F2
:102452002A3308F007C0AAE05A9F502DE22FE0531A
:102462005E0FAEC140E02E3211F414E0A9C10FC0DC
:10247200E43099F4203310F02A3308F008C00062E7
:10248200AAE04A9F402DE22FE0534E0F99C12C360D
:1024920019F4026015E094C104C0E53011F00C9407
:1024A200E113E22FE33659F40E9464190E946B197A
:1024B2000E946419A481AA930E94721980C1E53412
:1024C20011F0E53609F404C0E63611F00C94AF12AF
:1024D200FE017696EE87FF870E9478190E94991C6A
:1024E2000E947F190E948419AD85AA2322F0AD892A
:1024F200AB3249F017C00E9486190E94121A0E943C
:102502007F19EDE2ED8B07FF05C0ED89EA930E948A
:10251200721908C0EE85FF853196EE87FF873197E5
:10252200AD89A08305FF46E0263651F40E94861944
:102532000E94BD1C4A93AB89BC890E94FF0F09C04F
:102542000E9486190E94BD1C4A932A93AC89BD89B8
:102552004DDEFE0176960E948B191EC0E33739F4D8
:102562000E9484190E9493190E948B190EC0E037B1
:10257200C1F40E9484190E949319EE87FF87AE85E9
:10258200BF850E9441141E2F08600F77403011F062
:10259200411708F001C0142F40E0E0E0EC8B30E07E
:1025A2006EC0E43611F0E93611F4046002C0E5377A
:1025B200A1F4EAE0EC8B01FF08C0E0E0FAEC6AE982
:1025C2007BE30E9498191AE023C0E0E1F7E260E0A1
:1025D20070E00E94981915E01BC0E83511F40860FC
:1025E20004C0E83711F00C94E013E0E1EC8B01FF3A
:1025F20008C0E0E0F0E060E070E10E94981918E0A5
:1026020007C0E0E0F0E160E070E00E94981914E099
:10261200403011F00F7701C041E001FF08C00E9475
:1026220084190E94781914960E94991C0FC002FF07
:1026320007C00E9484190E9493190E94081C06C0B8
:102642000E9484190E94931966277727EA87FB87DD
:102652006C877D8702FF12C0AD85AA2342F40E94D7
:1026620086190E94FA1B0E947F19EDE2ED8BED891B
:10267200E03019F01F5F4F5F01C00B7F342F00FD68
:1026820014C0151710F4351708F00FC007FF08C063
:1026920002FF04C00B7F2D89115001C020E301C04D
:1026A20020E20E945D195150ECCF141790F40061A2
:1026B20002FF06C00E949D1909F05150115041506D
:1026C200E0E3EA930E947219503009F051504150F0
:1026D200ECCF312FEC89E030B9F43030A1F003FFB8
:1026E20006C0EE85FF852591EE87FF8705C0AE8582
:1026F200BF852D91AE87BF870E945D19503009F0CA
:1027020051503150EACF51C00E94AF190E94381C7B
:102712002E2F2A3030F003FF02C0295C01C0295A53
:1027220001C0205D04FD21C0213360F4A889B9896C
:102732008A899B89A130E0E0BE07E0E08E07E0E0F5
:102742009E0709F40BC0431740F4531710F000FF23
:1027520001C010C020E207FF08C020E3006102FFB1
:1027620004C00E949D1909F051500E945D19503019
:1027720009F0515031500E94AF190E94771C0E94FB
:102782007F19EC89A889B9898A899B89FF276627DD
:1027920077270E94381C0E949819E889F9896A896A
:1027A2007B890E94E81C09F0AFCF00FF08C05030BF
:1027B20031F05150E0E2EA930E947219F8CF10E032
:1027C2000ACEAE81BF810E94951C0E94021DEF9627
:1027D2006F960895BA93AA9326971A930A93EC8553
:1027E200FD85309721F4EFEFFFEF0C94A215EC85F5
:1027F200FD85EC83FD83E0E0EE83EF83EA85FB85D4
:10280200FA93EA93EA85FB85FA93EA93EFEBF0E118
:10281200FA93EA93DE011896C1DD8F01AC81BD8186
:10282200E0E0EC93F8010C94A215BA93AA93998173
:102832008881009641F0BD81AC81FB81EA81619182
:102842006D930197E1F7FD81EC8126960895BA9385
:10285200AA93E991F991A991B991CD0105900D92AF
:102862000020E1F7FC010895BA93AA93A991B991C6
:10287200EE27FF276D91662311F03196FBCF089565
:10288200BA93AA93AA27BB27E991F9910590002050
:1028920011F01196FBCFFD0108950E94C21C7B81AD
:1028A2006A81F981E88177FB770F67FD7160972F65
:1028B2009E5781F078F0983190F4AA27BB27882799
:1028C20008948795B795A7959A95D1F7EA23FB23A4
:1028D200682305C0E8947727EE27FF2766276F77DE
:1028E200769508F4606877F9A991B99189919991DF
:1028F200EA17FB076807790797FB08950E94C21C35
:102902000E94B31C0E944E140E94B81C19F40E942B
:10291200221805C0E6F70E9422180E94B8192496D0
:1029220008950E94C21C24971A930A930E94BF1909
:102932000E94F01C2CF0EFEFFFEF6FE77FEF71C00A
:102942000E94C4190E94BD1CADB7BEB711971F9358
:102952000F930E94F5190F911F910E94C9190E94AD
:10296200BF19E3EFF4E065E37FE30E949B1B40F4B1
:102972000E94CE190E94B81A0E94C9190150104033
:102982000E94C4190E94B8197F936F93FF93EF932B
:102992000E94C419A0E0B0E080E89FE30E94B81A48
:1029A200AF91BF918F919F910E94561B0E94C919AE
:1029B2000E94CE190E94D019A6E2B2E485E69FE3F6
:1029C2000E94D918EEE4F1E164E570E40E94B017C8
:1029D2000E94BF190E94081B7F936F93FF93EF938E
:1029E2000E94D819ADE4B1E184ED9FE30E94B11ACF
:1029F200AF91BF918F919F910E94561B7F936F93CE
:102A0200FF93EF93F8010E94A617A8E1B2E781E3D2
:102A12009FE30E94081BAF91BF918F919F910E94EB
:102A2200B81A198108812A9608950E94C21C289713
:102A32001A930A930E94DD19E0E5FCEA6EEA72EC51
:102A42000E949B1B18F40E94E2197BC00E94861907
:102A52000E94E81C19F40E94541673C00E94DD19EA
:102A6200E8E1F2E761EB72E40E949B1B09F010F4CB
:102A72000C944015EFEFFFEF6FE77FE762C00E9413
:102A8200DD19EBE3FAEA68EB7FE30E94081B0E9480
:102A92007F190E94DD1932DF0E94471A8F01F80167
:102AA2000E94DD190E94A6170E94B017DF01CB0118
:102AB200E0E0F0E060E07FE30E94B0170E94C919F5
:102AC2000E94CE190E94D019ADE6BCE48CE69DE3CB
:102AD2000E94081BA6EAB3EE86EE90E40E94B81AA2
:102AE2000E94BF190E94081B0E94C9190E94D8198E
:102AF200A8E2BDE886EA91E40E94B81A0E94211970
:102B02000E94C4190E9415190E94B81AA3EFB4E0DA
:102B120085EB9FE30E94081B7F936F93FF93EF93D4
:102B22000E94BF190E94D8190E94B11AAF91BF9199
:102B32008F919F910E94561B0E94BD1CD8010E943A
:102B4200061A198108812E9608950E94C21C2497A4
:102B52000E941D180E94E81C19F40E94E21943C049
:102B6200A885B9858A859B850E94F01C84F40E9401
:102B7200C7170E94E81C19F40E94541634C0A88595
:102B8200B9858A859B850E94E7194FDF2CC00E9478
:102B9200C717DE010E94471A0E94A41C0E94221835
:102BA2000E947E1ADF01CB010E94C7170E94F61C09
:102BB20019F00E94E21917C00E941D180E94121AF1
:102BC200DF01CB010E94E71930DFE887F9876A87C6
:102BD2007B87E881E17019F40E941D1804C00E94ED
:102BE2001D180E94121A2C960895AA93E1E0F991F9
:102BF200F03210F0F03808F0EE270895BA93AA9355
:102C0200E881F98130970895E0916500EB7FE093C8
:102C120065000895A0919E08BB270E949C0DE09339
:102C220092080895E0919E08F0E0FA93EA930895DD
:102C3200E0E0F0E069E373E4E0933608F0933708EC
:102C42006093380870933908A0E0B0E00E94D41C69
:102C52000895DF01CB010E94F01C0895E09336082D
:102C6200F093370860933808709339080895FA93FF
:102C7200EA9380E00E94F3052296E9ECF0E0FA93F1
:102C8200EA93E0E0F0E060E87FE30E94BD1C84E0AC
:102C92000E94F30526960895FA93EA9380E00E9433
:102CA200F30522960895E0E0F0E060E87FE30895FE
:102CB2000E94BD1C84E00E94F30526960895E091CF
:102CC2003608F091370860913808709139080895F4
:102CD200E0913208F0913308609134087091350820
:102CE2000895A0E0B0E008950E947D08A4E6B0E057
:102CF2000C94EB19A4E6B0E00C94EB19A1E0B0E05F
:102D020008950E9411048ECFA09192080C948F0D09
:102D1200A2E0B0E00895F40131964F01D401EAE057
:102D2200F0E00E94691C30970895A8ECB0E00C9482
:102D3200EB19E0932A06F0932B060895E4E0F0E005
:102D4200F8DFACEEB3E10895FE013296FA93EA930E
:102D52000895BA93AA932497E0E00895EE81FF8143
:102D6200FA93EA930895AC85BD850C946006A88514
:102D7200B985EA0FFB1F08950E94081C99CFFA93A8
:102D8200EA93DA01EC91FF276627772791CFEBEAE6
:102D9200E0938900E0EAE093880008950A921A928B
:102DA200FA926A937A938A939A93AA93BA93EA933A
:102DB200FA93EFB7EA931A930A930895ED91FD916E
:102DC2003196FE93EE9308956627772771CFA981F6
:102DD200BA81EE27A10FBE1F08950E94AE1CE036F5
:102DE200A9E0FA07A0E06A07A0E07A070895E038B0
:102DF200A5E2FA07A0E06A07A0E07A070895E034A6
:102E0200A8E3FA07A0E06A07A0E07A070895E03095
:102E1200ABE4FA07A0E06A07A0E07A070895E03081
:102E2200A6E9FA07A0E06A07A0E07A070895E03071
:102E3200A1EEFA07A0E06A07A0E07A070895E03061
:102E4200A2ECFA07A1E06A07A0E07A070895FA93D4
:102E5200EA93A8E0B0E00C941806A8E0B0E0089568
:102E6200BA93AA931A930A930895F801AC81BD818B
:102E7200AE0FBF1F0895A981BA811296AC91089531
:102E8200A981BA811396AC910895E2E8F8E0FA9329
:102E9200EA930895EB81FC813596FA93EA93A4E0D4
:102EA200B0E00C941614A981BA819096AC91089561
:102EB200EAE8F8E0FA93EA93EB81FC813196FA931F
:102EC200EA93CBCF0E941614E091DB08F091DC0864
:102ED200AFE9B8E0EE0FFF1FAE0FBF1F0895E091FC
:102EE200DB08F091DC08AFE9B8E0EE0FFF1FAE0F90
:102EF200BF1F0895AFE9B8E0EE0FFF1F0895EA93F0
:102F0200A0E0B6E980E090E00C941308E0E0CF99ED
:102F1200E1E00E2EA0E0CE99A1E0EA2FEE0F0E2AFC
:102F2200A0E0CD99A1E0EA2FEE0FEE0F0E2AA0E06D
:102F3200CC99A1E0EA2FEE0FEE0FEE0FE0290895F3
:102F4200EC85FD856E857F8508950E94081C0E9490
:102F52007E1A0895AC85BD858E859F8508950E9451
:102F6200C71C0E94B11A0895EC83FD836E837F8390
:102F72000895E0E0F0E060E271E40895AC81BD8183
:102F82008E819F8108950E94081BEECFEC81FD8106
:102F92006E817F810895AA93E7E5F9E0FA93EA93B7
:102FA200EAE8F8E0FA93EA9358CF0E941614E4E6AE
:102FB200F9E0FA93EA9369CF0E941614ECE6F9E07D
:102FC200FA93EA93EAE8F8E0FA93EA9346CF0E948A
:102FD2001614E9E7F9E0FA93EA93B6CEE09377099B
:102FE200E981E0937809E5E5F9E0FA93EA93A091A3
:102FF2005409B0E00E94AF08E0937A090895E2E52F
:10300200F9E0FA93EA93A9E2B0E00895FA93EA9319
:103012003CCFB0E00C94AF08FA93EA93A7E2B0E099
:103022000C941806FA93EA93EAE8F8E0FA93EA9322
:1030320014CFFA93EA936CCEE885F9856A857B858D
:1030420008950E94AE1C0895FA93EA9306CFEBE727
:10305200F9E0FA93EA93ACE4B0E00895E091300825
:10306200F09131080895A0916408B09165088091AB
:103072006608909167080895662777270E947E1A4E
:103082000E94561B0895A0916808B091690880912A
:103092006A0890916B080895E0937808F093790894
:1030A20060937A0870937B080895A0916C08B091A0
:1030B2006D0880916E0890916F080895E0917408F0
:1030C200F091750860917608709177080895E09103
:1030D2007808F091790860917A0870917B080895D8
:1030E200E0917C08F0917D0860917E0870917F08E4
:1030F2000895A0917808B091790880917A0890910A
:103102007B08E0E0F0E06AE774E40895A0917008BB
:10311200B091710880917208909173080895A091FE
:103122003608B0913708809138089091390808958F
:10313200A0917808B091790880917A0890917B08E3
:1031420008950E94720DE0933A08F0933B080895A7
:10315200E0913A08F0913B080895FADF6627772755
:103162000E947E1A0895E0914008F0914108609112
:103172004208709143080895A0914408B09145080F
:10318200809146089091470808950E94B81ADF017D
:10319200CB010895E8DFF0DF0E949B1B0895A09108
:1031A2003C08B0913D0880913E0890913F080895F7
:1031B2000E94081BDF01CB010895A0915408B09131
:1031C200550880915608909157080895E091540847
:1031D200F091550860915608709157080895E09152
:1031E2005808F091590860915A0870915B08089547
:1031F2000E941104E1E0E0939408E5E0F0E0089514
:103202000E941104E0E0E0939408E4E0F0E0089505
:10321200E987FA876B877C870895AE81BF81119613
:10322200AE83BF8311970895AA81BB818C819D8152
:103232000895EDECFCEC6CEC7DE30E94081B089514
:10324200EA83FB836C837D830895EA81FB816C8131
:103252007D81A985BA858B859C8508958ADE0E9429
:10326200081B0895A0E0B0E080E09FE30895E02FFE
:10327200E05DEC93E02FF0E00895A985BA858B8597
:103282009C8508957BDE75DE7ECE80DE63DE0E9445
:103292009B1B0895EC87FD876E877F870895A8851D
:1032A200B9851196A887B98711970895E885F98598
:1032B2003196E887F98708952A93AF81B885E98521
:1032C200FA8509950895FE01E65AFF4F0190F081B3
:1032D200E02D08953497DE01A65ABF4FED93FC937B
:1032E2000895AF81B885E985FA8509950895DE01CB
:1032F200A65ABF4F0D90BC91A02D0895EA87FB8777
:103302006C877D870895DFDFE5CFEA85FB856C85D5
:103312007D850895EE87FF87AE85BF850E943514AF
:103322001E2F0895E4DF14960E94951C0895E88BE1
:10333200F98B6A8B7B8B08950B7FED89EA93DE0113
:10334200A95ABF4F0D90BC91A02DFE01E75AFF4F25
:103352000190F081E02D099550300895E889F989AE
:103362006A897B89AA85BB858C859D850895A0E0A5
:10337200B0E080E89FE30E94B11A0895AE81BF8158
:10338200888599850895EE81FF81688579850895FC
:10339200EE83FF83688779870895F5DFEFCF0E9478
:1033A200081B4EDFEA81FB816C817D810895EA81F1
:1033B200FB816C817D810895AA85BB858C859D8565
:1033C2000895E0E0F0E060E070E008950E94921459
:1033D200D5DDEECE109639F08DEC9AE00197F1F73B
:1033E200A8951197C9F70895E991F9916991799191
:1033F20077FB660F771F88277E57880B7D938C9308
:103402007EE7769567956EF00895E991F991699155
:10341200799177FB660F771F7A0F769567950EF095
:10342200089530976040704009F070580895552310
:1034320042F4503811F4E0FF04C03196691F791F3D
:103442006BF050E8572711F45F93CFC05F3F31F024
:10345200660F000C57956795752F08955F930020AE
:103462000AF0CFC0C8C050E8192E1522880F991F44
:103472009527550F879550E8072E0522660F771F6F
:103482007527550F67950895689401C0E8945F9376
:10349200F2DF703818F07F3F08F4A7C056E1571BDF
:1034A200AAF4519558300EF4593030F0EFEFFFEF97
:1034B2006FEF7FE777F91AC077275523B9F0EE0F40
:1034C200FF1F661F771F5A95D1F710C07727583014
:1034D20028F0EF2FF62F672F5850F9CF552331F0F0
:1034E20076956795F795E7955A95D1F700200AF4F6
:1034F20080D15F910895689401C0E894309760404C
:103502007040B1F0002426F0772312F4009471D1B8
:10351200172E7EE1112032F07A95EE0FFF1F661F03
:10352200111CF9CFEF2FF62F612D5F938ADF5F9188
:1035320008954F93AF01FD01DA01AB01BC01CA014D
:10354200402D012C142E4F910895EA0FFB1F681F86
:103552000895E095F0956095EF5FFF4F6F4F0895E6
:103562005F9381DF903871F150E8152604C05F93B4
:103572007ADF903839F1703821F1572F591B2BF12E
:1035820012F4D7DFFACF583118F0AA27BB278827C1
:10359200583028F0AB2FB82F88275850F9CF552331
:1035A20029F08695B795A7955A95D9F7502D5125AB
:1035B20072F0CBDF38F46795F795E795739513F4BE
:1035C20020C0B7DF3EDF5F910895D8F7FBCFEA1B3B
:1035D200FB0B680B51F010F40094BBDF662392F3EF
:1035E200EE0FFF1F661F7A95CBF7EE27FF276627A0
:1035F20077275F910895EFEFFFEF6FE77FEF5F911E
:103602000895EFEFFFEF6FE77FE75F9108955F9314
:103612002ADF703851F3903841F301240894791F5E
:1036220023F41CF300203AF3ECCF0F921F932F9355
:103632003F934F93112722279927689FA0018F9FBD
:10364200302D410D591F6B9F300D411D591F8E9F0B
:1036520027D0BF9F25D06A9F23D0BE9F1DD0AF9F8A
:103662001BD0AE9F110D291F391F491F591FE32F70
:10367200F42F652F522F4F913F912F911F910F9051
:1036820066232AF0550FEE1FFF1F661F02C07395B7
:103692004BF2CDDE5F910895100D211D391F02C03E
:1036A200200D311D491F591F08955F93DCDE7038CC
:1036B20021F411200AF49FCFA4CF903809F495CFBA
:1036C20001240894970B1BF4D4F30020F3CF792F35
:1036D2001F932F933F934F931124112722273327B0
:1036E2004427552790E2AE17BF078607410730F0FF
:1036F200AE1BBF0B860B410B089401C08894551F6B
:10370200221F331F111CAA1FBB1F881F441F9A951B
:1037120051F7F901612D4F913F912F911F9166232E
:1037220032F0550FEE1FFF1F661F7A9543F27FDEC0
:103732005F91089599239AF0772342F0971748F002
:1037420029F4AE17BF07860720F031F098948894C9
:103752000895989408940895189488940895772366
:10376200C2F7971798F3A9F7EA17FB07680788F3D8
:1037720099F3ECCF06D124975F939F81992311F49B
:10378200289633CF12F428963CCF4F9342E48E8191
:10379200BD81AC8188839983AA83BB83FD01BC016F
:1037A200AC81BD818E819F8180DF88819981AA81D0
:1037B200BB81DDDE60DE7A9544DE88819981AA8153
:1037C200BB81AE27A87F21F4BF178607970729F090
:1037D2004A9519F0DF01CB01DDCF4F915F91289619
:1037E20008950024AF0DB01D0895F195E195F040C4
:1037F2000895F09560957095E195FF4F6F4F7F4F5B
:103802000895FE2FFF0FFF0B6F2F7F2F08956F2F4D
:10381200660F660B762F0895002498E0AA0F001C0D
:103822000E1A10F40E0E01C0A1609A95B9F7EA2F94
:10383200A02D08955FD0F0DF0EF4E19508950024E5
:10384200112490E1AA0FBB1F001C111C0E1A1F0AA3
:1038520018F40E0E1F1E01C0A1609A9599F7FD0182
:10386200D001089553D0EBDF0EF4BFDF08953F93EC
:103872004F935F93002411244427552730E2AA0F67
:10388200BB1F881F991F001C111C441F551F0E1AB5
:103892001F0A460B570B28F40E0E1F1E461F571FFA
:1038A20001C0A1603A9559F7FD01BC01D001CA01DE
:1038B2005F914F913F910895E894A7FF02C0A195AF
:1038C2006894E7FDE195A8DFEA2F0EF4E1950895EB
:1038D200E894B7FF04C0A095B09511966894F7FDDF
:1038E20084DFADDFFD010EF480DF0895C0DFFD014E
:1038F200BC010895E894E7FF02C0E1956894A7FF30
:1039020004C0A19500F8039400FA0895E894F7FF23
:1039120002C06BDF6894B7FF06C0A095B095119600
:1039220000F8039400FA0895ED91FC91119708951F
:10393200ED91FD916D917C9113970895ED91FD911B
:103942006D917D910895ED93FD936D937C93089510
:103952007E936E93FE93EE930895E881F9816A81D6
:103962007B810895A881B9818A819B810895E8832A
:10397200F9836A837B8308957A936A93FA93EA932D
:1039820008959A938A93BA93AA930895182E862F2C
:10399200612D192E972F712D1B2EBF2FF12D1A2E4F
:1039A200AE2FE12D0895129602D0BF011297119603
:1039B20002D0FE2F1197E199FECFFF93FFB7F89443
:1039C200AEBBBFBBE09AEDB3FFBFFF910895309746
:1039D20060407040089500240A160B0608950024E2
:1039E2000A160B06080609060895EA17FB07680778
:1039F200790708955A934A933A932A931A930A930A
:103A020008955D814C813B812A8119810881089545
:00000001FF
